{
	"@chainlink/contracts-ccip/src/v0.8/shared/token/ERC677/ERC677.sol": {
		"ERC677": {
			"abi": [
				{
					"inputs": [
						{
							"internalType": "string",
							"name": "name",
							"type": "string"
						},
						{
							"internalType": "string",
							"name": "symbol",
							"type": "string"
						}
					],
					"stateMutability": "nonpayable",
					"type": "constructor"
				},
				{
					"anonymous": false,
					"inputs": [
						{
							"indexed": true,
							"internalType": "address",
							"name": "owner",
							"type": "address"
						},
						{
							"indexed": true,
							"internalType": "address",
							"name": "spender",
							"type": "address"
						},
						{
							"indexed": false,
							"internalType": "uint256",
							"name": "value",
							"type": "uint256"
						}
					],
					"name": "Approval",
					"type": "event"
				},
				{
					"anonymous": false,
					"inputs": [
						{
							"indexed": true,
							"internalType": "address",
							"name": "from",
							"type": "address"
						},
						{
							"indexed": true,
							"internalType": "address",
							"name": "to",
							"type": "address"
						},
						{
							"indexed": false,
							"internalType": "uint256",
							"name": "value",
							"type": "uint256"
						},
						{
							"indexed": false,
							"internalType": "bytes",
							"name": "data",
							"type": "bytes"
						}
					],
					"name": "Transfer",
					"type": "event"
				},
				{
					"anonymous": false,
					"inputs": [
						{
							"indexed": true,
							"internalType": "address",
							"name": "from",
							"type": "address"
						},
						{
							"indexed": true,
							"internalType": "address",
							"name": "to",
							"type": "address"
						},
						{
							"indexed": false,
							"internalType": "uint256",
							"name": "value",
							"type": "uint256"
						}
					],
					"name": "Transfer",
					"type": "event"
				},
				{
					"inputs": [
						{
							"internalType": "address",
							"name": "owner",
							"type": "address"
						},
						{
							"internalType": "address",
							"name": "spender",
							"type": "address"
						}
					],
					"name": "allowance",
					"outputs": [
						{
							"internalType": "uint256",
							"name": "",
							"type": "uint256"
						}
					],
					"stateMutability": "view",
					"type": "function"
				},
				{
					"inputs": [
						{
							"internalType": "address",
							"name": "spender",
							"type": "address"
						},
						{
							"internalType": "uint256",
							"name": "amount",
							"type": "uint256"
						}
					],
					"name": "approve",
					"outputs": [
						{
							"internalType": "bool",
							"name": "",
							"type": "bool"
						}
					],
					"stateMutability": "nonpayable",
					"type": "function"
				},
				{
					"inputs": [
						{
							"internalType": "address",
							"name": "account",
							"type": "address"
						}
					],
					"name": "balanceOf",
					"outputs": [
						{
							"internalType": "uint256",
							"name": "",
							"type": "uint256"
						}
					],
					"stateMutability": "view",
					"type": "function"
				},
				{
					"inputs": [],
					"name": "decimals",
					"outputs": [
						{
							"internalType": "uint8",
							"name": "",
							"type": "uint8"
						}
					],
					"stateMutability": "view",
					"type": "function"
				},
				{
					"inputs": [
						{
							"internalType": "address",
							"name": "spender",
							"type": "address"
						},
						{
							"internalType": "uint256",
							"name": "subtractedValue",
							"type": "uint256"
						}
					],
					"name": "decreaseAllowance",
					"outputs": [
						{
							"internalType": "bool",
							"name": "",
							"type": "bool"
						}
					],
					"stateMutability": "nonpayable",
					"type": "function"
				},
				{
					"inputs": [
						{
							"internalType": "address",
							"name": "spender",
							"type": "address"
						},
						{
							"internalType": "uint256",
							"name": "addedValue",
							"type": "uint256"
						}
					],
					"name": "increaseAllowance",
					"outputs": [
						{
							"internalType": "bool",
							"name": "",
							"type": "bool"
						}
					],
					"stateMutability": "nonpayable",
					"type": "function"
				},
				{
					"inputs": [],
					"name": "name",
					"outputs": [
						{
							"internalType": "string",
							"name": "",
							"type": "string"
						}
					],
					"stateMutability": "view",
					"type": "function"
				},
				{
					"inputs": [],
					"name": "symbol",
					"outputs": [
						{
							"internalType": "string",
							"name": "",
							"type": "string"
						}
					],
					"stateMutability": "view",
					"type": "function"
				},
				{
					"inputs": [],
					"name": "totalSupply",
					"outputs": [
						{
							"internalType": "uint256",
							"name": "",
							"type": "uint256"
						}
					],
					"stateMutability": "view",
					"type": "function"
				},
				{
					"inputs": [
						{
							"internalType": "address",
							"name": "to",
							"type": "address"
						},
						{
							"internalType": "uint256",
							"name": "amount",
							"type": "uint256"
						}
					],
					"name": "transfer",
					"outputs": [
						{
							"internalType": "bool",
							"name": "",
							"type": "bool"
						}
					],
					"stateMutability": "nonpayable",
					"type": "function"
				},
				{
					"inputs": [
						{
							"internalType": "address",
							"name": "to",
							"type": "address"
						},
						{
							"internalType": "uint256",
							"name": "amount",
							"type": "uint256"
						},
						{
							"internalType": "bytes",
							"name": "data",
							"type": "bytes"
						}
					],
					"name": "transferAndCall",
					"outputs": [
						{
							"internalType": "bool",
							"name": "success",
							"type": "bool"
						}
					],
					"stateMutability": "nonpayable",
					"type": "function"
				},
				{
					"inputs": [
						{
							"internalType": "address",
							"name": "from",
							"type": "address"
						},
						{
							"internalType": "address",
							"name": "to",
							"type": "address"
						},
						{
							"internalType": "uint256",
							"name": "amount",
							"type": "uint256"
						}
					],
					"name": "transferFrom",
					"outputs": [
						{
							"internalType": "bool",
							"name": "",
							"type": "bool"
						}
					],
					"stateMutability": "nonpayable",
					"type": "function"
				}
			],
			"devdoc": {
				"events": {
					"Approval(address,address,uint256)": {
						"details": "Emitted when the allowance of a `spender` for an `owner` is set by a call to {approve}. `value` is the new allowance."
					},
					"Transfer(address,address,uint256)": {
						"details": "Emitted when `value` tokens are moved from one account (`from`) to another (`to`). Note that `value` may be zero."
					}
				},
				"kind": "dev",
				"methods": {
					"allowance(address,address)": {
						"details": "See {IERC20-allowance}."
					},
					"approve(address,uint256)": {
						"details": "See {IERC20-approve}. NOTE: If `amount` is the maximum `uint256`, the allowance is not updated on `transferFrom`. This is semantically equivalent to an infinite approval. Requirements: - `spender` cannot be the zero address."
					},
					"balanceOf(address)": {
						"details": "See {IERC20-balanceOf}."
					},
					"decimals()": {
						"details": "Returns the number of decimals used to get its user representation. For example, if `decimals` equals `2`, a balance of `505` tokens should be displayed to a user as `5.05` (`505 / 10 ** 2`). Tokens usually opt for a value of 18, imitating the relationship between Ether and Wei. This is the value {ERC20} uses, unless this function is overridden; NOTE: This information is only used for _display_ purposes: it in no way affects any of the arithmetic of the contract, including {IERC20-balanceOf} and {IERC20-transfer}."
					},
					"decreaseAllowance(address,uint256)": {
						"details": "Atomically decreases the allowance granted to `spender` by the caller. This is an alternative to {approve} that can be used as a mitigation for problems described in {IERC20-approve}. Emits an {Approval} event indicating the updated allowance. Requirements: - `spender` cannot be the zero address. - `spender` must have allowance for the caller of at least `subtractedValue`."
					},
					"increaseAllowance(address,uint256)": {
						"details": "Atomically increases the allowance granted to `spender` by the caller. This is an alternative to {approve} that can be used as a mitigation for problems described in {IERC20-approve}. Emits an {Approval} event indicating the updated allowance. Requirements: - `spender` cannot be the zero address."
					},
					"name()": {
						"details": "Returns the name of the token."
					},
					"symbol()": {
						"details": "Returns the symbol of the token, usually a shorter version of the name."
					},
					"totalSupply()": {
						"details": "See {IERC20-totalSupply}."
					},
					"transfer(address,uint256)": {
						"details": "See {IERC20-transfer}. Requirements: - `to` cannot be the zero address. - the caller must have a balance of at least `amount`."
					},
					"transferAndCall(address,uint256,bytes)": {
						"params": {
							"amount": "The amount of tokens to be transferred",
							"data": "bytes Additional data with no specified format, sent in call to `to`",
							"to": "The address which you want to transfer to"
						},
						"returns": {
							"success": "true unless throwing"
						}
					},
					"transferFrom(address,address,uint256)": {
						"details": "See {IERC20-transferFrom}. Emits an {Approval} event indicating the updated allowance. This is not required by the EIP. See the note at the beginning of {ERC20}. NOTE: Does not update the allowance if the current allowance is the maximum `uint256`. Requirements: - `from` and `to` cannot be the zero address. - `from` must have a balance of at least `amount`. - the caller must have allowance for ``from``'s tokens of at least `amount`."
					}
				},
				"version": 1
			},
			"evm": {
				"assembly": "    /* \"@chainlink/contracts-ccip/src/v0.8/shared/token/ERC677/ERC677.sol\":275:731  contract ERC677 is IERC677, ERC20 {... */\n  mstore(0x40, 0x80)\n    /* \"@chainlink/contracts-ccip/src/v0.8/shared/token/ERC677/ERC677.sol\":313:389  constructor(string memory name, string memory symbol) ERC20(name, symbol) {} */\n  callvalue\n  dup1\n  iszero\n  tag_1\n  jumpi\n  0x00\n  dup1\n  revert\ntag_1:\n  pop\n  mload(0x40)\n  sub(codesize, bytecodeSize)\n  dup1\n  bytecodeSize\n  dup4\n  codecopy\n  dup2\n  add\n  0x40\n  dup2\n  swap1\n  mstore\n  tag_2\n  swap2\n  tag_3\n  jump\t// in\ntag_2:\n    /* \"@chainlink/contracts-ccip/src/v0.8/shared/token/ERC677/ERC677.sol\":373:377  name */\n  dup2\n    /* \"@chainlink/contracts-ccip/src/v0.8/shared/token/ERC677/ERC677.sol\":379:385  symbol */\n  dup2\n    /* \"@chainlink/contracts-ccip/src/v0.8/vendor/openzeppelin-solidity/v4.8.3/contracts/token/ERC20/ERC20.sol\":2008:2013  _name */\n  0x03\n    /* \"@chainlink/contracts-ccip/src/v0.8/vendor/openzeppelin-solidity/v4.8.3/contracts/token/ERC20/ERC20.sol\":2008:2021  _name = name_ */\n  tag_7\n    /* \"@chainlink/contracts-ccip/src/v0.8/shared/token/ERC677/ERC677.sol\":373:377  name */\n  dup4\n    /* \"@chainlink/contracts-ccip/src/v0.8/vendor/openzeppelin-solidity/v4.8.3/contracts/token/ERC20/ERC20.sol\":2008:2013  _name */\n  dup3\n    /* \"@chainlink/contracts-ccip/src/v0.8/vendor/openzeppelin-solidity/v4.8.3/contracts/token/ERC20/ERC20.sol\":2008:2021  _name = name_ */\n  tag_8\n  jump\t// in\ntag_7:\n  pop\n    /* \"@chainlink/contracts-ccip/src/v0.8/vendor/openzeppelin-solidity/v4.8.3/contracts/token/ERC20/ERC20.sol\":2027:2034  _symbol */\n  0x04\n    /* \"@chainlink/contracts-ccip/src/v0.8/vendor/openzeppelin-solidity/v4.8.3/contracts/token/ERC20/ERC20.sol\":2027:2044  _symbol = symbol_ */\n  tag_9\n    /* \"@chainlink/contracts-ccip/src/v0.8/vendor/openzeppelin-solidity/v4.8.3/contracts/token/ERC20/ERC20.sol\":2037:2044  symbol_ */\n  dup3\n    /* \"@chainlink/contracts-ccip/src/v0.8/vendor/openzeppelin-solidity/v4.8.3/contracts/token/ERC20/ERC20.sol\":2027:2034  _symbol */\n  dup3\n    /* \"@chainlink/contracts-ccip/src/v0.8/vendor/openzeppelin-solidity/v4.8.3/contracts/token/ERC20/ERC20.sol\":2027:2044  _symbol = symbol_ */\n  tag_8\n  jump\t// in\ntag_9:\n  pop\n    /* \"@chainlink/contracts-ccip/src/v0.8/vendor/openzeppelin-solidity/v4.8.3/contracts/token/ERC20/ERC20.sol\":1946:2049  constructor(string memory name_, string memory symbol_) {... */\n  pop\n  pop\n    /* \"@chainlink/contracts-ccip/src/v0.8/shared/token/ERC677/ERC677.sol\":313:389  constructor(string memory name, string memory symbol) ERC20(name, symbol) {} */\n  pop\n  pop\n    /* \"@chainlink/contracts-ccip/src/v0.8/shared/token/ERC677/ERC677.sol\":275:731  contract ERC677 is IERC677, ERC20 {... */\n  jump(tag_18)\n    /* \"#utility.yul\":14:141   */\ntag_12:\n    /* \"#utility.yul\":75:85   */\n  0x4e487b71\n    /* \"#utility.yul\":70:73   */\n  0xe0\n    /* \"#utility.yul\":66:86   */\n  shl\n    /* \"#utility.yul\":63:64   */\n  0x00\n    /* \"#utility.yul\":56:87   */\n  mstore\n    /* \"#utility.yul\":106:110   */\n  0x41\n    /* \"#utility.yul\":103:104   */\n  0x04\n    /* \"#utility.yul\":96:111   */\n  mstore\n    /* \"#utility.yul\":130:134   */\n  0x24\n    /* \"#utility.yul\":127:128   */\n  0x00\n    /* \"#utility.yul\":120:135   */\n  revert\n    /* \"#utility.yul\":146:990   */\ntag_13:\n    /* \"#utility.yul\":200:205   */\n  0x00\n    /* \"#utility.yul\":253:256   */\n  dup3\n    /* \"#utility.yul\":246:250   */\n  0x1f\n    /* \"#utility.yul\":238:244   */\n  dup4\n    /* \"#utility.yul\":234:251   */\n  add\n    /* \"#utility.yul\":230:257   */\n  slt\n    /* \"#utility.yul\":220:275   */\n  tag_21\n  jumpi\n    /* \"#utility.yul\":271:272   */\n  0x00\n    /* \"#utility.yul\":268:269   */\n  dup1\n    /* \"#utility.yul\":261:273   */\n  revert\n    /* \"#utility.yul\":220:275   */\ntag_21:\n    /* \"#utility.yul\":294:307   */\n  dup2\n  mload\n  sub(shl(0x40, 0x01), 0x01)\n    /* \"#utility.yul\":356:366   */\n  dup1\n  dup3\n  gt\n    /* \"#utility.yul\":353:389   */\n  iszero\n  tag_23\n  jumpi\n    /* \"#utility.yul\":369:387   */\n  tag_23\n  tag_12\n  jump\t// in\ntag_23:\n    /* \"#utility.yul\":444:446   */\n  0x40\n    /* \"#utility.yul\":438:447   */\n  mload\n    /* \"#utility.yul\":412:414   */\n  0x1f\n    /* \"#utility.yul\":498:511   */\n  dup4\n  add\n  not(0x1f)\n    /* \"#utility.yul\":494:516   */\n  swap1\n  dup2\n  and\n    /* \"#utility.yul\":518:520   */\n  0x3f\n    /* \"#utility.yul\":490:521   */\n  add\n    /* \"#utility.yul\":486:526   */\n  and\n    /* \"#utility.yul\":474:527   */\n  dup2\n  add\n  swap1\n    /* \"#utility.yul\":542:560   */\n  dup3\n  dup3\n  gt\n    /* \"#utility.yul\":562:584   */\n  dup2\n  dup4\n  lt\n    /* \"#utility.yul\":539:585   */\n  or\n    /* \"#utility.yul\":536:608   */\n  iszero\n  tag_25\n  jumpi\n    /* \"#utility.yul\":588:606   */\n  tag_25\n  tag_12\n  jump\t// in\ntag_25:\n    /* \"#utility.yul\":628:638   */\n  dup2\n    /* \"#utility.yul\":624:626   */\n  0x40\n    /* \"#utility.yul\":617:639   */\n  mstore\n    /* \"#utility.yul\":663:665   */\n  dup4\n    /* \"#utility.yul\":655:661   */\n  dup2\n    /* \"#utility.yul\":648:666   */\n  mstore\n    /* \"#utility.yul\":685:689   */\n  0x20\n    /* \"#utility.yul\":675:689   */\n  swap3\n  pop\n    /* \"#utility.yul\":732:735   */\n  dup7\n    /* \"#utility.yul\":725:729   */\n  0x20\n    /* \"#utility.yul\":720:722   */\n  dup6\n    /* \"#utility.yul\":712:718   */\n  dup9\n    /* \"#utility.yul\":708:723   */\n  add\n    /* \"#utility.yul\":704:730   */\n  add\n    /* \"#utility.yul\":701:736   */\n  gt\n    /* \"#utility.yul\":698:753   */\n  iszero\n  tag_26\n  jumpi\n    /* \"#utility.yul\":749:750   */\n  0x00\n    /* \"#utility.yul\":746:747   */\n  dup1\n    /* \"#utility.yul\":739:751   */\n  revert\n    /* \"#utility.yul\":698:753   */\ntag_26:\n    /* \"#utility.yul\":771:772   */\n  0x00\n    /* \"#utility.yul\":762:772   */\n  swap2\n  pop\n    /* \"#utility.yul\":781:914   */\ntag_27:\n    /* \"#utility.yul\":795:797   */\n  dup4\n    /* \"#utility.yul\":792:793   */\n  dup3\n    /* \"#utility.yul\":789:798   */\n  lt\n    /* \"#utility.yul\":781:914   */\n  iszero\n  tag_29\n  jumpi\n    /* \"#utility.yul\":883:897   */\n  dup6\n  dup3\n  add\n    /* \"#utility.yul\":879:902   */\n  dup4\n  add\n    /* \"#utility.yul\":873:903   */\n  mload\n    /* \"#utility.yul\":852:866   */\n  dup2\n  dup4\n  add\n    /* \"#utility.yul\":848:871   */\n  dup5\n  add\n    /* \"#utility.yul\":841:904   */\n  mstore\n    /* \"#utility.yul\":806:816   */\n  swap1\n  dup3\n  add\n  swap1\n    /* \"#utility.yul\":781:914   */\n  jump(tag_27)\ntag_29:\n    /* \"#utility.yul\":958:959   */\n  0x00\n    /* \"#utility.yul\":951:955   */\n  0x20\n    /* \"#utility.yul\":946:948   */\n  dup6\n    /* \"#utility.yul\":938:944   */\n  dup4\n    /* \"#utility.yul\":934:949   */\n  add\n    /* \"#utility.yul\":930:956   */\n  add\n    /* \"#utility.yul\":923:960   */\n  mstore\n    /* \"#utility.yul\":978:984   */\n  dup1\n    /* \"#utility.yul\":969:984   */\n  swap5\n  pop\n  pop\n  pop\n  pop\n  pop\n    /* \"#utility.yul\":146:990   */\n  swap3\n  swap2\n  pop\n  pop\n  jump\t// out\n    /* \"#utility.yul\":995:1557   */\ntag_3:\n    /* \"#utility.yul\":1094:1100   */\n  0x00\n    /* \"#utility.yul\":1102:1108   */\n  dup1\n    /* \"#utility.yul\":1155:1157   */\n  0x40\n    /* \"#utility.yul\":1143:1152   */\n  dup4\n    /* \"#utility.yul\":1134:1141   */\n  dup6\n    /* \"#utility.yul\":1130:1153   */\n  sub\n    /* \"#utility.yul\":1126:1158   */\n  slt\n    /* \"#utility.yul\":1123:1175   */\n  iszero\n  tag_31\n  jumpi\n    /* \"#utility.yul\":1171:1172   */\n  0x00\n    /* \"#utility.yul\":1168:1169   */\n  dup1\n    /* \"#utility.yul\":1161:1173   */\n  revert\n    /* \"#utility.yul\":1123:1175   */\ntag_31:\n    /* \"#utility.yul\":1198:1214   */\n  dup3\n  mload\n  sub(shl(0x40, 0x01), 0x01)\n    /* \"#utility.yul\":1263:1277   */\n  dup1\n  dup3\n  gt\n    /* \"#utility.yul\":1260:1294   */\n  iszero\n  tag_32\n  jumpi\n    /* \"#utility.yul\":1290:1291   */\n  0x00\n    /* \"#utility.yul\":1287:1288   */\n  dup1\n    /* \"#utility.yul\":1280:1292   */\n  revert\n    /* \"#utility.yul\":1260:1294   */\ntag_32:\n    /* \"#utility.yul\":1313:1374   */\n  tag_33\n    /* \"#utility.yul\":1366:1373   */\n  dup7\n    /* \"#utility.yul\":1357:1363   */\n  dup4\n    /* \"#utility.yul\":1346:1355   */\n  dup8\n    /* \"#utility.yul\":1342:1364   */\n  add\n    /* \"#utility.yul\":1313:1374   */\n  tag_13\n  jump\t// in\ntag_33:\n    /* \"#utility.yul\":1303:1374   */\n  swap4\n  pop\n    /* \"#utility.yul\":1420:1422   */\n  0x20\n    /* \"#utility.yul\":1409:1418   */\n  dup6\n    /* \"#utility.yul\":1405:1423   */\n  add\n    /* \"#utility.yul\":1399:1424   */\n  mload\n    /* \"#utility.yul\":1383:1424   */\n  swap2\n  pop\n    /* \"#utility.yul\":1449:1451   */\n  dup1\n    /* \"#utility.yul\":1439:1447   */\n  dup3\n    /* \"#utility.yul\":1436:1452   */\n  gt\n    /* \"#utility.yul\":1433:1469   */\n  iszero\n  tag_34\n  jumpi\n    /* \"#utility.yul\":1465:1466   */\n  0x00\n    /* \"#utility.yul\":1462:1463   */\n  dup1\n    /* \"#utility.yul\":1455:1467   */\n  revert\n    /* \"#utility.yul\":1433:1469   */\ntag_34:\n  pop\n    /* \"#utility.yul\":1488:1551   */\n  tag_35\n    /* \"#utility.yul\":1543:1550   */\n  dup6\n    /* \"#utility.yul\":1532:1540   */\n  dup3\n    /* \"#utility.yul\":1521:1530   */\n  dup7\n    /* \"#utility.yul\":1517:1541   */\n  add\n    /* \"#utility.yul\":1488:1551   */\n  tag_13\n  jump\t// in\ntag_35:\n    /* \"#utility.yul\":1478:1551   */\n  swap2\n  pop\n  pop\n    /* \"#utility.yul\":995:1557   */\n  swap3\n  pop\n  swap3\n  swap1\n  pop\n  jump\t// out\n    /* \"#utility.yul\":1562:1942   */\ntag_14:\n    /* \"#utility.yul\":1641:1642   */\n  0x01\n    /* \"#utility.yul\":1637:1649   */\n  dup2\n  dup2\n  shr\n  swap1\n    /* \"#utility.yul\":1684:1696   */\n  dup3\n  and\n  dup1\n    /* \"#utility.yul\":1705:1766   */\n  tag_37\n  jumpi\n    /* \"#utility.yul\":1759:1763   */\n  0x7f\n    /* \"#utility.yul\":1751:1757   */\n  dup3\n    /* \"#utility.yul\":1747:1764   */\n  and\n    /* \"#utility.yul\":1737:1764   */\n  swap2\n  pop\n    /* \"#utility.yul\":1705:1766   */\ntag_37:\n    /* \"#utility.yul\":1812:1814   */\n  0x20\n    /* \"#utility.yul\":1804:1810   */\n  dup3\n    /* \"#utility.yul\":1801:1815   */\n  lt\n    /* \"#utility.yul\":1781:1799   */\n  dup2\n    /* \"#utility.yul\":1778:1816   */\n  sub\n    /* \"#utility.yul\":1775:1936   */\n  tag_38\n  jumpi\n    /* \"#utility.yul\":1858:1868   */\n  0x4e487b71\n    /* \"#utility.yul\":1853:1856   */\n  0xe0\n    /* \"#utility.yul\":1849:1869   */\n  shl\n    /* \"#utility.yul\":1846:1847   */\n  0x00\n    /* \"#utility.yul\":1839:1870   */\n  mstore\n    /* \"#utility.yul\":1893:1897   */\n  0x22\n    /* \"#utility.yul\":1890:1891   */\n  0x04\n    /* \"#utility.yul\":1883:1898   */\n  mstore\n    /* \"#utility.yul\":1921:1925   */\n  0x24\n    /* \"#utility.yul\":1918:1919   */\n  0x00\n    /* \"#utility.yul\":1911:1926   */\n  revert\n    /* \"#utility.yul\":1775:1936   */\ntag_38:\n  pop\n    /* \"#utility.yul\":1562:1942   */\n  swap2\n  swap1\n  pop\n  jump\t// out\n    /* \"#utility.yul\":2073:2616   */\ntag_16:\n    /* \"#utility.yul\":2175:2177   */\n  0x1f\n    /* \"#utility.yul\":2170:2173   */\n  dup3\n    /* \"#utility.yul\":2167:2178   */\n  gt\n    /* \"#utility.yul\":2164:2610   */\n  iszero\n  tag_41\n  jumpi\n    /* \"#utility.yul\":2211:2212   */\n  0x00\n    /* \"#utility.yul\":2235:2240   */\n  dup2\n    /* \"#utility.yul\":2232:2233   */\n  0x00\n    /* \"#utility.yul\":2225:2241   */\n  mstore\n    /* \"#utility.yul\":2279:2283   */\n  0x20\n    /* \"#utility.yul\":2276:2277   */\n  0x00\n    /* \"#utility.yul\":2266:2284   */\n  keccak256\n    /* \"#utility.yul\":2349:2351   */\n  0x1f\n    /* \"#utility.yul\":2337:2347   */\n  dup6\n    /* \"#utility.yul\":2333:2352   */\n  add\n    /* \"#utility.yul\":2330:2331   */\n  0x05\n    /* \"#utility.yul\":2326:2353   */\n  shr\n    /* \"#utility.yul\":2320:2324   */\n  dup2\n    /* \"#utility.yul\":2316:2354   */\n  add\n    /* \"#utility.yul\":2385:2389   */\n  0x20\n    /* \"#utility.yul\":2373:2383   */\n  dup7\n    /* \"#utility.yul\":2370:2390   */\n  lt\n    /* \"#utility.yul\":2367:2414   */\n  iszero\n  tag_42\n  jumpi\n  pop\n    /* \"#utility.yul\":2408:2412   */\n  dup1\n    /* \"#utility.yul\":2367:2414   */\ntag_42:\n    /* \"#utility.yul\":2463:2465   */\n  0x1f\n    /* \"#utility.yul\":2458:2461   */\n  dup6\n    /* \"#utility.yul\":2454:2466   */\n  add\n    /* \"#utility.yul\":2451:2452   */\n  0x05\n    /* \"#utility.yul\":2447:2467   */\n  shr\n    /* \"#utility.yul\":2441:2445   */\n  dup3\n    /* \"#utility.yul\":2437:2468   */\n  add\n    /* \"#utility.yul\":2427:2468   */\n  swap2\n  pop\n    /* \"#utility.yul\":2518:2600   */\ntag_43:\n    /* \"#utility.yul\":2536:2538   */\n  dup2\n    /* \"#utility.yul\":2529:2534   */\n  dup2\n    /* \"#utility.yul\":2526:2539   */\n  lt\n    /* \"#utility.yul\":2518:2600   */\n  iszero\n  tag_45\n  jumpi\n    /* \"#utility.yul\":2581:2598   */\n  dup3\n  dup2\n  sstore\n    /* \"#utility.yul\":2562:2563   */\n  0x01\n    /* \"#utility.yul\":2551:2564   */\n  add\n    /* \"#utility.yul\":2518:2600   */\n  jump(tag_43)\ntag_45:\n    /* \"#utility.yul\":2522:2525   */\n  pop\n  pop\n  pop\n    /* \"#utility.yul\":2164:2610   */\ntag_41:\n    /* \"#utility.yul\":2073:2616   */\n  pop\n  pop\n  pop\n  jump\t// out\n    /* \"#utility.yul\":2792:4137   */\ntag_8:\n    /* \"#utility.yul\":2912:2922   */\n  dup2\n  mload\n  sub(shl(0x40, 0x01), 0x01)\n    /* \"#utility.yul\":2934:2964   */\n  dup2\n  gt\n    /* \"#utility.yul\":2931:2987   */\n  iszero\n  tag_49\n  jumpi\n    /* \"#utility.yul\":2967:2985   */\n  tag_49\n  tag_12\n  jump\t// in\ntag_49:\n    /* \"#utility.yul\":2996:3093   */\n  tag_50\n    /* \"#utility.yul\":3086:3092   */\n  dup2\n    /* \"#utility.yul\":3046:3084   */\n  tag_51\n    /* \"#utility.yul\":3078:3082   */\n  dup5\n    /* \"#utility.yul\":3072:3083   */\n  sload\n    /* \"#utility.yul\":3046:3084   */\n  tag_14\n  jump\t// in\ntag_51:\n    /* \"#utility.yul\":3040:3044   */\n  dup5\n    /* \"#utility.yul\":2996:3093   */\n  tag_16\n  jump\t// in\ntag_50:\n    /* \"#utility.yul\":3148:3152   */\n  0x20\n  dup1\n    /* \"#utility.yul\":3205:3207   */\n  0x1f\n    /* \"#utility.yul\":3194:3208   */\n  dup4\n  gt\n    /* \"#utility.yul\":3222:3223   */\n  0x01\n    /* \"#utility.yul\":3217:3880   */\n  dup2\n  eq\n  tag_53\n  jumpi\n    /* \"#utility.yul\":3924:3925   */\n  0x00\n    /* \"#utility.yul\":3941:3947   */\n  dup5\n    /* \"#utility.yul\":3938:4027   */\n  iszero\n  tag_54\n  jumpi\n  pop\n    /* \"#utility.yul\":3993:4012   */\n  dup6\n  dup4\n  add\n    /* \"#utility.yul\":3987:4013   */\n  mload\n    /* \"#utility.yul\":3938:4027   */\ntag_54:\n  not(0x00)\n    /* \"#utility.yul\":2749:2750   */\n  0x03\n    /* \"#utility.yul\":2745:2756   */\n  dup7\n  swap1\n  shl\n    /* \"#utility.yul\":2741:2765   */\n  shr\n    /* \"#utility.yul\":2737:2766   */\n  not\n    /* \"#utility.yul\":2727:2767   */\n  and\n    /* \"#utility.yul\":2773:2774   */\n  0x01\n    /* \"#utility.yul\":2769:2780   */\n  dup6\n  swap1\n  shl\n    /* \"#utility.yul\":2724:2781   */\n  or\n    /* \"#utility.yul\":4040:4121   */\n  dup6\n  sstore\n    /* \"#utility.yul\":3187:4131   */\n  jump(tag_45)\n    /* \"#utility.yul\":3217:3880   */\ntag_53:\n    /* \"#utility.yul\":2020:2021   */\n  0x00\n    /* \"#utility.yul\":2013:2027   */\n  dup6\n  dup2\n  mstore\n    /* \"#utility.yul\":2057:2061   */\n  0x20\n    /* \"#utility.yul\":2044:2062   */\n  dup2\n  keccak256\n  not(0x1f)\n    /* \"#utility.yul\":3253:3273   */\n  dup7\n  and\n  swap2\n    /* \"#utility.yul\":3371:3607   */\ntag_57:\n    /* \"#utility.yul\":3385:3392   */\n  dup3\n    /* \"#utility.yul\":3382:3383   */\n  dup2\n    /* \"#utility.yul\":3379:3393   */\n  lt\n    /* \"#utility.yul\":3371:3607   */\n  iszero\n  tag_59\n  jumpi\n    /* \"#utility.yul\":3474:3493   */\n  dup9\n  dup7\n  add\n    /* \"#utility.yul\":3468:3494   */\n  mload\n    /* \"#utility.yul\":3453:3495   */\n  dup3\n  sstore\n    /* \"#utility.yul\":3566:3593   */\n  swap5\n  dup5\n  add\n  swap5\n    /* \"#utility.yul\":3534:3535   */\n  0x01\n    /* \"#utility.yul\":3522:3536   */\n  swap1\n  swap2\n  add\n  swap1\n    /* \"#utility.yul\":3401:3420   */\n  dup5\n  add\n    /* \"#utility.yul\":3371:3607   */\n  jump(tag_57)\ntag_59:\n    /* \"#utility.yul\":3375:3378   */\n  pop\n    /* \"#utility.yul\":3635:3641   */\n  dup6\n    /* \"#utility.yul\":3626:3633   */\n  dup3\n    /* \"#utility.yul\":3623:3642   */\n  lt\n    /* \"#utility.yul\":3620:3821   */\n  iszero\n  tag_60\n  jumpi\n    /* \"#utility.yul\":3696:3715   */\n  dup8\n  dup6\n  add\n    /* \"#utility.yul\":3690:3716   */\n  mload\n  not(0x00)\n    /* \"#utility.yul\":3779:3780   */\n  0x03\n    /* \"#utility.yul\":3775:3789   */\n  dup9\n  swap1\n  shl\n    /* \"#utility.yul\":3791:3794   */\n  0xf8\n    /* \"#utility.yul\":3771:3795   */\n  and\n    /* \"#utility.yul\":3767:3804   */\n  shr\n    /* \"#utility.yul\":3763:3805   */\n  not\n    /* \"#utility.yul\":3748:3806   */\n  and\n    /* \"#utility.yul\":3733:3807   */\n  dup2\n  sstore\n    /* \"#utility.yul\":3620:3821   */\ntag_60:\n  pop\n  pop\n  pop\n  pop\n  pop\n    /* \"#utility.yul\":3867:3868   */\n  0x01\n    /* \"#utility.yul\":3851:3865   */\n  swap1\n  dup2\n  shl\n    /* \"#utility.yul\":3847:3869   */\n  add\n    /* \"#utility.yul\":3834:3870   */\n  swap1\n  sstore\n  pop\n    /* \"#utility.yul\":2792:4137   */\n  jump\t// out\ntag_18:\n    /* \"@chainlink/contracts-ccip/src/v0.8/shared/token/ERC677/ERC677.sol\":275:731  contract ERC677 is IERC677, ERC20 {... */\n  dataSize(sub_0)\n  dup1\n  dataOffset(sub_0)\n  0x00\n  codecopy\n  0x00\n  return\nstop\n\nsub_0: assembly {\n        /* \"@chainlink/contracts-ccip/src/v0.8/shared/token/ERC677/ERC677.sol\":275:731  contract ERC677 is IERC677, ERC20 {... */\n      mstore(0x40, 0x80)\n      callvalue\n      dup1\n      iszero\n      tag_1\n      jumpi\n      0x00\n      dup1\n      revert\n    tag_1:\n      pop\n      jumpi(tag_2, lt(calldatasize, 0x04))\n      shr(0xe0, calldataload(0x00))\n      dup1\n      0x4000aea0\n      gt\n      tag_15\n      jumpi\n      dup1\n      0x4000aea0\n      eq\n      tag_9\n      jumpi\n      dup1\n      0x70a08231\n      eq\n      tag_10\n      jumpi\n      dup1\n      0x95d89b41\n      eq\n      tag_11\n      jumpi\n      dup1\n      0xa457c2d7\n      eq\n      tag_12\n      jumpi\n      dup1\n      0xa9059cbb\n      eq\n      tag_13\n      jumpi\n      dup1\n      0xdd62ed3e\n      eq\n      tag_14\n      jumpi\n      0x00\n      dup1\n      revert\n    tag_15:\n      dup1\n      0x06fdde03\n      eq\n      tag_3\n      jumpi\n      dup1\n      0x095ea7b3\n      eq\n      tag_4\n      jumpi\n      dup1\n      0x18160ddd\n      eq\n      tag_5\n      jumpi\n      dup1\n      0x23b872dd\n      eq\n      tag_6\n      jumpi\n      dup1\n      0x313ce567\n      eq\n      tag_7\n      jumpi\n      dup1\n      0x39509351\n      eq\n      tag_8\n      jumpi\n    tag_2:\n      0x00\n      dup1\n      revert\n        /* \"@chainlink/contracts-ccip/src/v0.8/vendor/openzeppelin-solidity/v4.8.3/contracts/token/ERC20/ERC20.sol\":2106:2198  function name() public view virtual override returns (string memory) {... */\n    tag_3:\n      tag_16\n      tag_17\n      jump\t// in\n    tag_16:\n      mload(0x40)\n      tag_18\n      swap2\n      swap1\n      tag_19\n      jump\t// in\n    tag_18:\n      mload(0x40)\n      dup1\n      swap2\n      sub\n      swap1\n      return\n        /* \"@chainlink/contracts-ccip/src/v0.8/vendor/openzeppelin-solidity/v4.8.3/contracts/token/ERC20/ERC20.sol\":4231:4414  function approve(address spender, uint256 amount) public virtual override returns (bool) {... */\n    tag_4:\n      tag_20\n      tag_21\n      calldatasize\n      0x04\n      tag_22\n      jump\t// in\n    tag_21:\n      tag_23\n      jump\t// in\n    tag_20:\n      mload(0x40)\n        /* \"#utility.yul\":1269:1283   */\n      swap1\n      iszero\n        /* \"#utility.yul\":1262:1284   */\n      iszero\n        /* \"#utility.yul\":1244:1285   */\n      dup2\n      mstore\n        /* \"#utility.yul\":1232:1234   */\n      0x20\n        /* \"#utility.yul\":1217:1235   */\n      add\n        /* \"@chainlink/contracts-ccip/src/v0.8/vendor/openzeppelin-solidity/v4.8.3/contracts/token/ERC20/ERC20.sol\":4231:4414  function approve(address spender, uint256 amount) public virtual override returns (bool) {... */\n      tag_18\n        /* \"#utility.yul\":1104:1291   */\n      jump\n        /* \"@chainlink/contracts-ccip/src/v0.8/vendor/openzeppelin-solidity/v4.8.3/contracts/token/ERC20/ERC20.sol\":3130:3230  function totalSupply() public view virtual override returns (uint256) {... */\n    tag_5:\n        /* \"@chainlink/contracts-ccip/src/v0.8/vendor/openzeppelin-solidity/v4.8.3/contracts/token/ERC20/ERC20.sol\":3213:3225  _totalSupply */\n      sload(0x02)\n        /* \"@chainlink/contracts-ccip/src/v0.8/vendor/openzeppelin-solidity/v4.8.3/contracts/token/ERC20/ERC20.sol\":3130:3230  function totalSupply() public view virtual override returns (uint256) {... */\n    tag_26:\n      mload(0x40)\n        /* \"#utility.yul\":1442:1467   */\n      swap1\n      dup2\n      mstore\n        /* \"#utility.yul\":1430:1432   */\n      0x20\n        /* \"#utility.yul\":1415:1433   */\n      add\n        /* \"@chainlink/contracts-ccip/src/v0.8/vendor/openzeppelin-solidity/v4.8.3/contracts/token/ERC20/ERC20.sol\":3130:3230  function totalSupply() public view virtual override returns (uint256) {... */\n      tag_18\n        /* \"#utility.yul\":1296:1473   */\n      jump\n        /* \"@chainlink/contracts-ccip/src/v0.8/vendor/openzeppelin-solidity/v4.8.3/contracts/token/ERC20/ERC20.sol\":4942:5180  function transferFrom(address from, address to, uint256 amount) public virtual override returns (bool) {... */\n    tag_6:\n      tag_20\n      tag_31\n      calldatasize\n      0x04\n      tag_32\n      jump\t// in\n    tag_31:\n      tag_33\n      jump\t// in\n        /* \"@chainlink/contracts-ccip/src/v0.8/vendor/openzeppelin-solidity/v4.8.3/contracts/token/ERC20/ERC20.sol\":2993:3078  function decimals() public view virtual override returns (uint8) {... */\n    tag_7:\n      mload(0x40)\n        /* \"@chainlink/contracts-ccip/src/v0.8/vendor/openzeppelin-solidity/v4.8.3/contracts/token/ERC20/ERC20.sol\":3071:3073  18 */\n      0x12\n        /* \"#utility.yul\":1953:1989   */\n      dup2\n      mstore\n        /* \"#utility.yul\":1941:1943   */\n      0x20\n        /* \"#utility.yul\":1926:1944   */\n      add\n        /* \"@chainlink/contracts-ccip/src/v0.8/vendor/openzeppelin-solidity/v4.8.3/contracts/token/ERC20/ERC20.sol\":2993:3078  function decimals() public view virtual override returns (uint8) {... */\n      tag_18\n        /* \"#utility.yul\":1811:1995   */\n      jump\n        /* \"@chainlink/contracts-ccip/src/v0.8/vendor/openzeppelin-solidity/v4.8.3/contracts/token/ERC20/ERC20.sol\":5549:5769  function increaseAllowance(address spender, uint256 addedValue) public virtual returns (bool) {... */\n    tag_8:\n      tag_20\n      tag_40\n      calldatasize\n      0x04\n      tag_22\n      jump\t// in\n    tag_40:\n      tag_41\n      jump\t// in\n        /* \"@chainlink/contracts-ccip/src/v0.8/shared/token/ERC677/ERC677.sol\":419:729  function transferAndCall(address to, uint256 amount, bytes memory data) public returns (bool success) {... */\n    tag_9:\n      tag_20\n      tag_44\n      calldatasize\n      0x04\n      tag_45\n      jump\t// in\n    tag_44:\n      tag_46\n      jump\t// in\n        /* \"@chainlink/contracts-ccip/src/v0.8/vendor/openzeppelin-solidity/v4.8.3/contracts/token/ERC20/ERC20.sol\":3280:3399  function balanceOf(address account) public view virtual override returns (uint256) {... */\n    tag_10:\n      tag_26\n      tag_49\n      calldatasize\n      0x04\n      tag_50\n      jump\t// in\n    tag_49:\n      sub(shl(0xa0, 0x01), 0x01)\n        /* \"@chainlink/contracts-ccip/src/v0.8/vendor/openzeppelin-solidity/v4.8.3/contracts/token/ERC20/ERC20.sol\":3376:3394  _balances[account] */\n      and\n        /* \"@chainlink/contracts-ccip/src/v0.8/vendor/openzeppelin-solidity/v4.8.3/contracts/token/ERC20/ERC20.sol\":3354:3361  uint256 */\n      0x00\n        /* \"@chainlink/contracts-ccip/src/v0.8/vendor/openzeppelin-solidity/v4.8.3/contracts/token/ERC20/ERC20.sol\":3376:3394  _balances[account] */\n      swap1\n      dup2\n      mstore\n      0x20\n      dup2\n      swap1\n      mstore\n      0x40\n      swap1\n      keccak256\n      sload\n      swap1\n        /* \"@chainlink/contracts-ccip/src/v0.8/vendor/openzeppelin-solidity/v4.8.3/contracts/token/ERC20/ERC20.sol\":3280:3399  function balanceOf(address account) public view virtual override returns (uint256) {... */\n      jump\n        /* \"@chainlink/contracts-ccip/src/v0.8/vendor/openzeppelin-solidity/v4.8.3/contracts/token/ERC20/ERC20.sol\":2301:2397  function symbol() public view virtual override returns (string memory) {... */\n    tag_11:\n      tag_16\n      tag_54\n      jump\t// in\n        /* \"@chainlink/contracts-ccip/src/v0.8/vendor/openzeppelin-solidity/v4.8.3/contracts/token/ERC20/ERC20.sol\":6226:6621  function decreaseAllowance(address spender, uint256 subtractedValue) public virtual returns (bool) {... */\n    tag_12:\n      tag_20\n      tag_57\n      calldatasize\n      0x04\n      tag_22\n      jump\t// in\n    tag_57:\n      tag_58\n      jump\t// in\n        /* \"@chainlink/contracts-ccip/src/v0.8/vendor/openzeppelin-solidity/v4.8.3/contracts/token/ERC20/ERC20.sol\":3577:3752  function transfer(address to, uint256 amount) public virtual override returns (bool) {... */\n    tag_13:\n      tag_20\n      tag_61\n      calldatasize\n      0x04\n      tag_22\n      jump\t// in\n    tag_61:\n      tag_62\n      jump\t// in\n        /* \"@chainlink/contracts-ccip/src/v0.8/vendor/openzeppelin-solidity/v4.8.3/contracts/token/ERC20/ERC20.sol\":3802:3945  function allowance(address owner, address spender) public view virtual override returns (uint256) {... */\n    tag_14:\n      tag_26\n      tag_65\n      calldatasize\n      0x04\n      tag_66\n      jump\t// in\n    tag_65:\n      tag_67\n      jump\t// in\n        /* \"@chainlink/contracts-ccip/src/v0.8/vendor/openzeppelin-solidity/v4.8.3/contracts/token/ERC20/ERC20.sol\":2106:2198  function name() public view virtual override returns (string memory) {... */\n    tag_17:\n        /* \"@chainlink/contracts-ccip/src/v0.8/vendor/openzeppelin-solidity/v4.8.3/contracts/token/ERC20/ERC20.sol\":2160:2173  string memory */\n      0x60\n        /* \"@chainlink/contracts-ccip/src/v0.8/vendor/openzeppelin-solidity/v4.8.3/contracts/token/ERC20/ERC20.sol\":2188:2193  _name */\n      0x03\n        /* \"@chainlink/contracts-ccip/src/v0.8/vendor/openzeppelin-solidity/v4.8.3/contracts/token/ERC20/ERC20.sol\":2181:2193  return _name */\n      dup1\n      sload\n      tag_70\n      swap1\n      tag_71\n      jump\t// in\n    tag_70:\n      dup1\n      0x1f\n      add\n      0x20\n      dup1\n      swap2\n      div\n      mul\n      0x20\n      add\n      mload(0x40)\n      swap1\n      dup2\n      add\n      0x40\n      mstore\n      dup1\n      swap3\n      swap2\n      swap1\n      dup2\n      dup2\n      mstore\n      0x20\n      add\n      dup3\n      dup1\n      sload\n      tag_72\n      swap1\n      tag_71\n      jump\t// in\n    tag_72:\n      dup1\n      iszero\n      tag_73\n      jumpi\n      dup1\n      0x1f\n      lt\n      tag_74\n      jumpi\n      0x0100\n      dup1\n      dup4\n      sload\n      div\n      mul\n      dup4\n      mstore\n      swap2\n      0x20\n      add\n      swap2\n      jump(tag_73)\n    tag_74:\n      dup3\n      add\n      swap2\n      swap1\n      0x00\n      mstore\n      keccak256(0x00, 0x20)\n      swap1\n    tag_75:\n      dup2\n      sload\n      dup2\n      mstore\n      swap1\n      0x01\n      add\n      swap1\n      0x20\n      add\n      dup1\n      dup4\n      gt\n      tag_75\n      jumpi\n      dup3\n      swap1\n      sub\n      0x1f\n      and\n      dup3\n      add\n      swap2\n    tag_73:\n      pop\n      pop\n      pop\n      pop\n      pop\n      swap1\n      pop\n        /* \"@chainlink/contracts-ccip/src/v0.8/vendor/openzeppelin-solidity/v4.8.3/contracts/token/ERC20/ERC20.sol\":2106:2198  function name() public view virtual override returns (string memory) {... */\n      swap1\n      jump\t// out\n        /* \"@chainlink/contracts-ccip/src/v0.8/vendor/openzeppelin-solidity/v4.8.3/contracts/token/ERC20/ERC20.sol\":4231:4414  function approve(address spender, uint256 amount) public virtual override returns (bool) {... */\n    tag_23:\n        /* \"@chainlink/contracts-ccip/src/v0.8/vendor/openzeppelin-solidity/v4.8.3/contracts/token/ERC20/ERC20.sol\":4314:4318  bool */\n      0x00\n        /* \"@chainlink/contracts-ccip/src/v0.8/vendor/openzeppelin-solidity/v4.8.3/contracts/utils/Context.sol\":713:723  msg.sender */\n      caller\n        /* \"@chainlink/contracts-ccip/src/v0.8/vendor/openzeppelin-solidity/v4.8.3/contracts/token/ERC20/ERC20.sol\":4360:4392  _approve(owner, spender, amount) */\n      tag_79\n        /* \"@chainlink/contracts-ccip/src/v0.8/vendor/openzeppelin-solidity/v4.8.3/contracts/utils/Context.sol\":713:723  msg.sender */\n      dup2\n        /* \"@chainlink/contracts-ccip/src/v0.8/vendor/openzeppelin-solidity/v4.8.3/contracts/token/ERC20/ERC20.sol\":4376:4383  spender */\n      dup6\n        /* \"@chainlink/contracts-ccip/src/v0.8/vendor/openzeppelin-solidity/v4.8.3/contracts/token/ERC20/ERC20.sol\":4385:4391  amount */\n      dup6\n        /* \"@chainlink/contracts-ccip/src/v0.8/vendor/openzeppelin-solidity/v4.8.3/contracts/token/ERC20/ERC20.sol\":4360:4368  _approve */\n      tag_80\n        /* \"@chainlink/contracts-ccip/src/v0.8/vendor/openzeppelin-solidity/v4.8.3/contracts/token/ERC20/ERC20.sol\":4360:4392  _approve(owner, spender, amount) */\n      jump\t// in\n    tag_79:\n        /* \"@chainlink/contracts-ccip/src/v0.8/vendor/openzeppelin-solidity/v4.8.3/contracts/token/ERC20/ERC20.sol\":4405:4409  true */\n      0x01\n        /* \"@chainlink/contracts-ccip/src/v0.8/vendor/openzeppelin-solidity/v4.8.3/contracts/token/ERC20/ERC20.sol\":4398:4409  return true */\n      swap2\n      pop\n      pop\n        /* \"@chainlink/contracts-ccip/src/v0.8/vendor/openzeppelin-solidity/v4.8.3/contracts/token/ERC20/ERC20.sol\":4231:4414  function approve(address spender, uint256 amount) public virtual override returns (bool) {... */\n    tag_76:\n      swap3\n      swap2\n      pop\n      pop\n      jump\t// out\n        /* \"@chainlink/contracts-ccip/src/v0.8/vendor/openzeppelin-solidity/v4.8.3/contracts/token/ERC20/ERC20.sol\":4942:5180  function transferFrom(address from, address to, uint256 amount) public virtual override returns (bool) {... */\n    tag_33:\n        /* \"@chainlink/contracts-ccip/src/v0.8/vendor/openzeppelin-solidity/v4.8.3/contracts/token/ERC20/ERC20.sol\":5039:5043  bool */\n      0x00\n        /* \"@chainlink/contracts-ccip/src/v0.8/vendor/openzeppelin-solidity/v4.8.3/contracts/utils/Context.sol\":713:723  msg.sender */\n      caller\n        /* \"@chainlink/contracts-ccip/src/v0.8/vendor/openzeppelin-solidity/v4.8.3/contracts/token/ERC20/ERC20.sol\":5087:5125  _spendAllowance(from, spender, amount) */\n      tag_84\n        /* \"@chainlink/contracts-ccip/src/v0.8/vendor/openzeppelin-solidity/v4.8.3/contracts/token/ERC20/ERC20.sol\":5103:5107  from */\n      dup6\n        /* \"@chainlink/contracts-ccip/src/v0.8/vendor/openzeppelin-solidity/v4.8.3/contracts/utils/Context.sol\":713:723  msg.sender */\n      dup3\n        /* \"@chainlink/contracts-ccip/src/v0.8/vendor/openzeppelin-solidity/v4.8.3/contracts/token/ERC20/ERC20.sol\":5118:5124  amount */\n      dup6\n        /* \"@chainlink/contracts-ccip/src/v0.8/vendor/openzeppelin-solidity/v4.8.3/contracts/token/ERC20/ERC20.sol\":5087:5102  _spendAllowance */\n      tag_85\n        /* \"@chainlink/contracts-ccip/src/v0.8/vendor/openzeppelin-solidity/v4.8.3/contracts/token/ERC20/ERC20.sol\":5087:5125  _spendAllowance(from, spender, amount) */\n      jump\t// in\n    tag_84:\n        /* \"@chainlink/contracts-ccip/src/v0.8/vendor/openzeppelin-solidity/v4.8.3/contracts/token/ERC20/ERC20.sol\":5131:5158  _transfer(from, to, amount) */\n      tag_86\n        /* \"@chainlink/contracts-ccip/src/v0.8/vendor/openzeppelin-solidity/v4.8.3/contracts/token/ERC20/ERC20.sol\":5141:5145  from */\n      dup6\n        /* \"@chainlink/contracts-ccip/src/v0.8/vendor/openzeppelin-solidity/v4.8.3/contracts/token/ERC20/ERC20.sol\":5147:5149  to */\n      dup6\n        /* \"@chainlink/contracts-ccip/src/v0.8/vendor/openzeppelin-solidity/v4.8.3/contracts/token/ERC20/ERC20.sol\":5151:5157  amount */\n      dup6\n        /* \"@chainlink/contracts-ccip/src/v0.8/vendor/openzeppelin-solidity/v4.8.3/contracts/token/ERC20/ERC20.sol\":5131:5140  _transfer */\n      tag_87\n        /* \"@chainlink/contracts-ccip/src/v0.8/vendor/openzeppelin-solidity/v4.8.3/contracts/token/ERC20/ERC20.sol\":5131:5158  _transfer(from, to, amount) */\n      jump\t// in\n    tag_86:\n      pop\n        /* \"@chainlink/contracts-ccip/src/v0.8/vendor/openzeppelin-solidity/v4.8.3/contracts/token/ERC20/ERC20.sol\":5171:5175  true */\n      0x01\n      swap5\n        /* \"@chainlink/contracts-ccip/src/v0.8/vendor/openzeppelin-solidity/v4.8.3/contracts/token/ERC20/ERC20.sol\":4942:5180  function transferFrom(address from, address to, uint256 amount) public virtual override returns (bool) {... */\n      swap4\n      pop\n      pop\n      pop\n      pop\n      jump\t// out\n        /* \"@chainlink/contracts-ccip/src/v0.8/vendor/openzeppelin-solidity/v4.8.3/contracts/token/ERC20/ERC20.sol\":5549:5769  function increaseAllowance(address spender, uint256 addedValue) public virtual returns (bool) {... */\n    tag_41:\n        /* \"@chainlink/contracts-ccip/src/v0.8/vendor/openzeppelin-solidity/v4.8.3/contracts/token/ERC20/ERC20.sol\":5637:5641  bool */\n      0x00\n        /* \"@chainlink/contracts-ccip/src/v0.8/vendor/openzeppelin-solidity/v4.8.3/contracts/utils/Context.sol\":713:723  msg.sender */\n      caller\n        /* \"@chainlink/contracts-ccip/src/v0.8/vendor/openzeppelin-solidity/v4.8.3/contracts/token/ERC20/ERC20.sol\":5683:5747  _approve(owner, spender, allowance(owner, spender) + addedValue) */\n      tag_79\n        /* \"@chainlink/contracts-ccip/src/v0.8/vendor/openzeppelin-solidity/v4.8.3/contracts/utils/Context.sol\":713:723  msg.sender */\n      dup2\n        /* \"@chainlink/contracts-ccip/src/v0.8/vendor/openzeppelin-solidity/v4.8.3/contracts/token/ERC20/ERC20.sol\":5699:5706  spender */\n      dup6\n        /* \"@chainlink/contracts-ccip/src/v0.8/vendor/openzeppelin-solidity/v4.8.3/contracts/token/ERC20/ERC20.sol\":5736:5746  addedValue */\n      dup6\n        /* \"@chainlink/contracts-ccip/src/v0.8/vendor/openzeppelin-solidity/v4.8.3/contracts/token/ERC20/ERC20.sol\":5708:5733  allowance(owner, spender) */\n      tag_92\n        /* \"@chainlink/contracts-ccip/src/v0.8/vendor/openzeppelin-solidity/v4.8.3/contracts/utils/Context.sol\":713:723  msg.sender */\n      dup4\n        /* \"@chainlink/contracts-ccip/src/v0.8/vendor/openzeppelin-solidity/v4.8.3/contracts/token/ERC20/ERC20.sol\":5699:5706  spender */\n      dup4\n        /* \"@chainlink/contracts-ccip/src/v0.8/vendor/openzeppelin-solidity/v4.8.3/contracts/token/ERC20/ERC20.sol\":5708:5717  allowance */\n      tag_67\n        /* \"@chainlink/contracts-ccip/src/v0.8/vendor/openzeppelin-solidity/v4.8.3/contracts/token/ERC20/ERC20.sol\":5708:5733  allowance(owner, spender) */\n      jump\t// in\n    tag_92:\n        /* \"@chainlink/contracts-ccip/src/v0.8/vendor/openzeppelin-solidity/v4.8.3/contracts/token/ERC20/ERC20.sol\":5708:5746  allowance(owner, spender) + addedValue */\n      tag_93\n      swap2\n      swap1\n      tag_94\n      jump\t// in\n    tag_93:\n        /* \"@chainlink/contracts-ccip/src/v0.8/vendor/openzeppelin-solidity/v4.8.3/contracts/token/ERC20/ERC20.sol\":5683:5691  _approve */\n      tag_80\n        /* \"@chainlink/contracts-ccip/src/v0.8/vendor/openzeppelin-solidity/v4.8.3/contracts/token/ERC20/ERC20.sol\":5683:5747  _approve(owner, spender, allowance(owner, spender) + addedValue) */\n      jump\t// in\n        /* \"@chainlink/contracts-ccip/src/v0.8/shared/token/ERC677/ERC677.sol\":419:729  function transferAndCall(address to, uint256 amount, bytes memory data) public returns (bool success) {... */\n    tag_46:\n        /* \"@chainlink/contracts-ccip/src/v0.8/shared/token/ERC677/ERC677.sol\":507:519  bool success */\n      0x00\n        /* \"@chainlink/contracts-ccip/src/v0.8/shared/token/ERC677/ERC677.sol\":527:553  super.transfer(to, amount) */\n      tag_96\n        /* \"@chainlink/contracts-ccip/src/v0.8/shared/token/ERC677/ERC677.sol\":542:544  to */\n      dup5\n        /* \"@chainlink/contracts-ccip/src/v0.8/shared/token/ERC677/ERC677.sol\":546:552  amount */\n      dup5\n        /* \"@chainlink/contracts-ccip/src/v0.8/shared/token/ERC677/ERC677.sol\":527:541  super.transfer */\n      tag_62\n        /* \"@chainlink/contracts-ccip/src/v0.8/shared/token/ERC677/ERC677.sol\":527:553  super.transfer(to, amount) */\n      jump\t// in\n    tag_96:\n      pop\n        /* \"@chainlink/contracts-ccip/src/v0.8/shared/token/ERC677/ERC677.sol\":585:587  to */\n      dup4\n      sub(shl(0xa0, 0x01), 0x01)\n        /* \"@chainlink/contracts-ccip/src/v0.8/shared/token/ERC677/ERC677.sol\":564:602  Transfer(msg.sender, to, amount, data) */\n      and\n        /* \"@chainlink/contracts-ccip/src/v0.8/shared/token/ERC677/ERC677.sol\":573:583  msg.sender */\n      caller\n      sub(shl(0xa0, 0x01), 0x01)\n        /* \"@chainlink/contracts-ccip/src/v0.8/shared/token/ERC677/ERC677.sol\":564:602  Transfer(msg.sender, to, amount, data) */\n      and\n      0xe19260aff97b920c7df27010903aeb9c8d2be5d310a2c67824cf3f15396e4c16\n        /* \"@chainlink/contracts-ccip/src/v0.8/shared/token/ERC677/ERC677.sol\":589:595  amount */\n      dup6\n        /* \"@chainlink/contracts-ccip/src/v0.8/shared/token/ERC677/ERC677.sol\":597:601  data */\n      dup6\n        /* \"@chainlink/contracts-ccip/src/v0.8/shared/token/ERC677/ERC677.sol\":564:602  Transfer(msg.sender, to, amount, data) */\n      mload(0x40)\n      tag_97\n      swap3\n      swap2\n      swap1\n      tag_98\n      jump\t// in\n    tag_97:\n      mload(0x40)\n      dup1\n      swap2\n      sub\n      swap1\n      log3\n      sub(shl(0xa0, 0x01), 0x01)\n        /* \"@chainlink/contracts-ccip/src/v0.8/shared/token/ERC677/ERC677.sol\":612:626  to.code.length */\n      dup5\n      and\n      extcodesize\n        /* \"@chainlink/contracts-ccip/src/v0.8/shared/token/ERC677/ERC677.sol\":612:630  to.code.length > 0 */\n      iszero\n        /* \"@chainlink/contracts-ccip/src/v0.8/shared/token/ERC677/ERC677.sol\":608:708  if (to.code.length > 0) {... */\n      tag_99\n      jumpi\n        /* \"@chainlink/contracts-ccip/src/v0.8/shared/token/ERC677/ERC677.sol\":640:701  IERC677Receiver(to).onTokenTransfer(msg.sender, amount, data) */\n      mload(0x40)\n      shl(0xe1, 0x5260769b)\n      dup2\n      mstore\n      sub(shl(0xa0, 0x01), 0x01)\n        /* \"@chainlink/contracts-ccip/src/v0.8/shared/token/ERC677/ERC677.sol\":640:675  IERC677Receiver(to).onTokenTransfer */\n      dup6\n      and\n      swap1\n      0xa4c0ed36\n      swap1\n        /* \"@chainlink/contracts-ccip/src/v0.8/shared/token/ERC677/ERC677.sol\":640:701  IERC677Receiver(to).onTokenTransfer(msg.sender, amount, data) */\n      tag_100\n      swap1\n        /* \"@chainlink/contracts-ccip/src/v0.8/shared/token/ERC677/ERC677.sol\":676:686  msg.sender */\n      caller\n      swap1\n        /* \"@chainlink/contracts-ccip/src/v0.8/shared/token/ERC677/ERC677.sol\":688:694  amount */\n      dup8\n      swap1\n        /* \"@chainlink/contracts-ccip/src/v0.8/shared/token/ERC677/ERC677.sol\":696:700  data */\n      dup8\n      swap1\n        /* \"@chainlink/contracts-ccip/src/v0.8/shared/token/ERC677/ERC677.sol\":640:701  IERC677Receiver(to).onTokenTransfer(msg.sender, amount, data) */\n      0x04\n      add\n      tag_101\n      jump\t// in\n    tag_100:\n      0x00\n      mload(0x40)\n      dup1\n      dup4\n      sub\n      dup2\n      0x00\n      dup8\n      dup1\n      extcodesize\n      iszero\n      dup1\n      iszero\n      tag_102\n      jumpi\n      0x00\n      dup1\n      revert\n    tag_102:\n      pop\n      gas\n      call\n      iszero\n      dup1\n      iszero\n      tag_104\n      jumpi\n      returndatasize\n      0x00\n      dup1\n      returndatacopy\n      revert(0x00, returndatasize)\n    tag_104:\n      pop\n      pop\n      pop\n      pop\n        /* \"@chainlink/contracts-ccip/src/v0.8/shared/token/ERC677/ERC677.sol\":608:708  if (to.code.length > 0) {... */\n    tag_99:\n      pop\n        /* \"@chainlink/contracts-ccip/src/v0.8/shared/token/ERC677/ERC677.sol\":720:724  true */\n      0x01\n        /* \"@chainlink/contracts-ccip/src/v0.8/shared/token/ERC677/ERC677.sol\":419:729  function transferAndCall(address to, uint256 amount, bytes memory data) public returns (bool success) {... */\n      swap4\n      swap3\n      pop\n      pop\n      pop\n      jump\t// out\n        /* \"@chainlink/contracts-ccip/src/v0.8/vendor/openzeppelin-solidity/v4.8.3/contracts/token/ERC20/ERC20.sol\":2301:2397  function symbol() public view virtual override returns (string memory) {... */\n    tag_54:\n        /* \"@chainlink/contracts-ccip/src/v0.8/vendor/openzeppelin-solidity/v4.8.3/contracts/token/ERC20/ERC20.sol\":2357:2370  string memory */\n      0x60\n        /* \"@chainlink/contracts-ccip/src/v0.8/vendor/openzeppelin-solidity/v4.8.3/contracts/token/ERC20/ERC20.sol\":2385:2392  _symbol */\n      0x04\n        /* \"@chainlink/contracts-ccip/src/v0.8/vendor/openzeppelin-solidity/v4.8.3/contracts/token/ERC20/ERC20.sol\":2378:2392  return _symbol */\n      dup1\n      sload\n      tag_70\n      swap1\n      tag_71\n      jump\t// in\n        /* \"@chainlink/contracts-ccip/src/v0.8/vendor/openzeppelin-solidity/v4.8.3/contracts/token/ERC20/ERC20.sol\":6226:6621  function decreaseAllowance(address spender, uint256 subtractedValue) public virtual returns (bool) {... */\n    tag_58:\n        /* \"@chainlink/contracts-ccip/src/v0.8/vendor/openzeppelin-solidity/v4.8.3/contracts/token/ERC20/ERC20.sol\":6319:6323  bool */\n      0x00\n        /* \"@chainlink/contracts-ccip/src/v0.8/vendor/openzeppelin-solidity/v4.8.3/contracts/utils/Context.sol\":713:723  msg.sender */\n      caller\n        /* \"@chainlink/contracts-ccip/src/v0.8/vendor/openzeppelin-solidity/v4.8.3/contracts/token/ERC20/ERC20.sol\":6319:6323  bool */\n      dup2\n        /* \"@chainlink/contracts-ccip/src/v0.8/vendor/openzeppelin-solidity/v4.8.3/contracts/token/ERC20/ERC20.sol\":6392:6417  allowance(owner, spender) */\n      tag_114\n        /* \"@chainlink/contracts-ccip/src/v0.8/vendor/openzeppelin-solidity/v4.8.3/contracts/utils/Context.sol\":713:723  msg.sender */\n      dup3\n        /* \"@chainlink/contracts-ccip/src/v0.8/vendor/openzeppelin-solidity/v4.8.3/contracts/token/ERC20/ERC20.sol\":6409:6416  spender */\n      dup7\n        /* \"@chainlink/contracts-ccip/src/v0.8/vendor/openzeppelin-solidity/v4.8.3/contracts/token/ERC20/ERC20.sol\":6392:6401  allowance */\n      tag_67\n        /* \"@chainlink/contracts-ccip/src/v0.8/vendor/openzeppelin-solidity/v4.8.3/contracts/token/ERC20/ERC20.sol\":6392:6417  allowance(owner, spender) */\n      jump\t// in\n    tag_114:\n        /* \"@chainlink/contracts-ccip/src/v0.8/vendor/openzeppelin-solidity/v4.8.3/contracts/token/ERC20/ERC20.sol\":6365:6417  uint256 currentAllowance = allowance(owner, spender) */\n      swap1\n      pop\n        /* \"@chainlink/contracts-ccip/src/v0.8/vendor/openzeppelin-solidity/v4.8.3/contracts/token/ERC20/ERC20.sol\":6451:6466  subtractedValue */\n      dup4\n        /* \"@chainlink/contracts-ccip/src/v0.8/vendor/openzeppelin-solidity/v4.8.3/contracts/token/ERC20/ERC20.sol\":6431:6447  currentAllowance */\n      dup2\n        /* \"@chainlink/contracts-ccip/src/v0.8/vendor/openzeppelin-solidity/v4.8.3/contracts/token/ERC20/ERC20.sol\":6431:6466  currentAllowance >= subtractedValue */\n      lt\n      iszero\n        /* \"@chainlink/contracts-ccip/src/v0.8/vendor/openzeppelin-solidity/v4.8.3/contracts/token/ERC20/ERC20.sol\":6423:6508  require(currentAllowance >= subtractedValue, \"ERC20: decreased allowance below zero\") */\n      tag_115\n      jumpi\n      mload(0x40)\n      shl(0xe5, 0x461bcd)\n      dup2\n      mstore\n        /* \"#utility.yul\":5155:5157   */\n      0x20\n        /* \"@chainlink/contracts-ccip/src/v0.8/vendor/openzeppelin-solidity/v4.8.3/contracts/token/ERC20/ERC20.sol\":6423:6508  require(currentAllowance >= subtractedValue, \"ERC20: decreased allowance below zero\") */\n      0x04\n      dup3\n      add\n        /* \"#utility.yul\":5137:5158   */\n      mstore\n        /* \"#utility.yul\":5194:5196   */\n      0x25\n        /* \"#utility.yul\":5174:5192   */\n      0x24\n      dup3\n      add\n        /* \"#utility.yul\":5167:5197   */\n      mstore\n        /* \"#utility.yul\":5233:5267   */\n      0x45524332303a2064656372656173656420616c6c6f77616e63652062656c6f77\n        /* \"#utility.yul\":5213:5231   */\n      0x44\n      dup3\n      add\n        /* \"#utility.yul\":5206:5268   */\n      mstore\n      shl(0xd8, 0x207a65726f)\n        /* \"#utility.yul\":5284:5302   */\n      0x64\n      dup3\n      add\n        /* \"#utility.yul\":5277:5312   */\n      mstore\n        /* \"#utility.yul\":5329:5348   */\n      0x84\n      add\n        /* \"@chainlink/contracts-ccip/src/v0.8/vendor/openzeppelin-solidity/v4.8.3/contracts/token/ERC20/ERC20.sol\":6423:6508  require(currentAllowance >= subtractedValue, \"ERC20: decreased allowance below zero\") */\n    tag_116:\n      mload(0x40)\n      dup1\n      swap2\n      sub\n      swap1\n      revert\n    tag_115:\n        /* \"@chainlink/contracts-ccip/src/v0.8/vendor/openzeppelin-solidity/v4.8.3/contracts/token/ERC20/ERC20.sol\":6532:6592  _approve(owner, spender, currentAllowance - subtractedValue) */\n      tag_86\n        /* \"@chainlink/contracts-ccip/src/v0.8/vendor/openzeppelin-solidity/v4.8.3/contracts/token/ERC20/ERC20.sol\":6541:6546  owner */\n      dup3\n        /* \"@chainlink/contracts-ccip/src/v0.8/vendor/openzeppelin-solidity/v4.8.3/contracts/token/ERC20/ERC20.sol\":6548:6555  spender */\n      dup7\n        /* \"@chainlink/contracts-ccip/src/v0.8/vendor/openzeppelin-solidity/v4.8.3/contracts/token/ERC20/ERC20.sol\":6576:6591  subtractedValue */\n      dup7\n        /* \"@chainlink/contracts-ccip/src/v0.8/vendor/openzeppelin-solidity/v4.8.3/contracts/token/ERC20/ERC20.sol\":6557:6573  currentAllowance */\n      dup5\n        /* \"@chainlink/contracts-ccip/src/v0.8/vendor/openzeppelin-solidity/v4.8.3/contracts/token/ERC20/ERC20.sol\":6557:6591  currentAllowance - subtractedValue */\n      sub\n        /* \"@chainlink/contracts-ccip/src/v0.8/vendor/openzeppelin-solidity/v4.8.3/contracts/token/ERC20/ERC20.sol\":6532:6540  _approve */\n      tag_80\n        /* \"@chainlink/contracts-ccip/src/v0.8/vendor/openzeppelin-solidity/v4.8.3/contracts/token/ERC20/ERC20.sol\":6532:6592  _approve(owner, spender, currentAllowance - subtractedValue) */\n      jump\t// in\n        /* \"@chainlink/contracts-ccip/src/v0.8/vendor/openzeppelin-solidity/v4.8.3/contracts/token/ERC20/ERC20.sol\":3577:3752  function transfer(address to, uint256 amount) public virtual override returns (bool) {... */\n    tag_62:\n        /* \"@chainlink/contracts-ccip/src/v0.8/vendor/openzeppelin-solidity/v4.8.3/contracts/token/ERC20/ERC20.sol\":3656:3660  bool */\n      0x00\n        /* \"@chainlink/contracts-ccip/src/v0.8/vendor/openzeppelin-solidity/v4.8.3/contracts/utils/Context.sol\":713:723  msg.sender */\n      caller\n        /* \"@chainlink/contracts-ccip/src/v0.8/vendor/openzeppelin-solidity/v4.8.3/contracts/token/ERC20/ERC20.sol\":3702:3730  _transfer(owner, to, amount) */\n      tag_79\n        /* \"@chainlink/contracts-ccip/src/v0.8/vendor/openzeppelin-solidity/v4.8.3/contracts/utils/Context.sol\":713:723  msg.sender */\n      dup2\n        /* \"@chainlink/contracts-ccip/src/v0.8/vendor/openzeppelin-solidity/v4.8.3/contracts/token/ERC20/ERC20.sol\":3719:3721  to */\n      dup6\n        /* \"@chainlink/contracts-ccip/src/v0.8/vendor/openzeppelin-solidity/v4.8.3/contracts/token/ERC20/ERC20.sol\":3723:3729  amount */\n      dup6\n        /* \"@chainlink/contracts-ccip/src/v0.8/vendor/openzeppelin-solidity/v4.8.3/contracts/token/ERC20/ERC20.sol\":3702:3711  _transfer */\n      tag_87\n        /* \"@chainlink/contracts-ccip/src/v0.8/vendor/openzeppelin-solidity/v4.8.3/contracts/token/ERC20/ERC20.sol\":3702:3730  _transfer(owner, to, amount) */\n      jump\t// in\n        /* \"@chainlink/contracts-ccip/src/v0.8/vendor/openzeppelin-solidity/v4.8.3/contracts/token/ERC20/ERC20.sol\":3802:3945  function allowance(address owner, address spender) public view virtual override returns (uint256) {... */\n    tag_67:\n      sub(shl(0xa0, 0x01), 0x01)\n        /* \"@chainlink/contracts-ccip/src/v0.8/vendor/openzeppelin-solidity/v4.8.3/contracts/token/ERC20/ERC20.sol\":3913:3931  _allowances[owner] */\n      swap2\n      dup3\n      and\n        /* \"@chainlink/contracts-ccip/src/v0.8/vendor/openzeppelin-solidity/v4.8.3/contracts/token/ERC20/ERC20.sol\":3891:3898  uint256 */\n      0x00\n        /* \"@chainlink/contracts-ccip/src/v0.8/vendor/openzeppelin-solidity/v4.8.3/contracts/token/ERC20/ERC20.sol\":3913:3931  _allowances[owner] */\n      swap1\n      dup2\n      mstore\n        /* \"@chainlink/contracts-ccip/src/v0.8/vendor/openzeppelin-solidity/v4.8.3/contracts/token/ERC20/ERC20.sol\":3913:3924  _allowances */\n      0x01\n        /* \"@chainlink/contracts-ccip/src/v0.8/vendor/openzeppelin-solidity/v4.8.3/contracts/token/ERC20/ERC20.sol\":3913:3931  _allowances[owner] */\n      0x20\n      swap1\n      dup2\n      mstore\n      0x40\n      dup1\n      dup4\n      keccak256\n        /* \"@chainlink/contracts-ccip/src/v0.8/vendor/openzeppelin-solidity/v4.8.3/contracts/token/ERC20/ERC20.sol\":3913:3940  _allowances[owner][spender] */\n      swap4\n      swap1\n      swap5\n      and\n      dup3\n      mstore\n      swap2\n      swap1\n      swap2\n      mstore\n      keccak256\n      sload\n      swap1\n        /* \"@chainlink/contracts-ccip/src/v0.8/vendor/openzeppelin-solidity/v4.8.3/contracts/token/ERC20/ERC20.sol\":3802:3945  function allowance(address owner, address spender) public view virtual override returns (uint256) {... */\n      jump\t// out\n        /* \"@chainlink/contracts-ccip/src/v0.8/vendor/openzeppelin-solidity/v4.8.3/contracts/token/ERC20/ERC20.sol\":9818:10140  function _approve(address owner, address spender, uint256 amount) internal virtual {... */\n    tag_80:\n      sub(shl(0xa0, 0x01), 0x01)\n        /* \"@chainlink/contracts-ccip/src/v0.8/vendor/openzeppelin-solidity/v4.8.3/contracts/token/ERC20/ERC20.sol\":9915:9934  owner != address(0) */\n      dup4\n      and\n        /* \"@chainlink/contracts-ccip/src/v0.8/vendor/openzeppelin-solidity/v4.8.3/contracts/token/ERC20/ERC20.sol\":9907:9975  require(owner != address(0), \"ERC20: approve from the zero address\") */\n      tag_125\n      jumpi\n      mload(0x40)\n      shl(0xe5, 0x461bcd)\n      dup2\n      mstore\n        /* \"#utility.yul\":5561:5563   */\n      0x20\n        /* \"@chainlink/contracts-ccip/src/v0.8/vendor/openzeppelin-solidity/v4.8.3/contracts/token/ERC20/ERC20.sol\":9907:9975  require(owner != address(0), \"ERC20: approve from the zero address\") */\n      0x04\n      dup3\n      add\n        /* \"#utility.yul\":5543:5564   */\n      mstore\n        /* \"#utility.yul\":5600:5602   */\n      0x24\n        /* \"#utility.yul\":5580:5598   */\n      dup1\n      dup3\n      add\n        /* \"#utility.yul\":5573:5603   */\n      mstore\n        /* \"#utility.yul\":5639:5673   */\n      0x45524332303a20617070726f76652066726f6d20746865207a65726f20616464\n        /* \"#utility.yul\":5619:5637   */\n      0x44\n      dup3\n      add\n        /* \"#utility.yul\":5612:5674   */\n      mstore\n      shl(0xe0, 0x72657373)\n        /* \"#utility.yul\":5690:5708   */\n      0x64\n      dup3\n      add\n        /* \"#utility.yul\":5683:5717   */\n      mstore\n        /* \"#utility.yul\":5734:5753   */\n      0x84\n      add\n        /* \"@chainlink/contracts-ccip/src/v0.8/vendor/openzeppelin-solidity/v4.8.3/contracts/token/ERC20/ERC20.sol\":9907:9975  require(owner != address(0), \"ERC20: approve from the zero address\") */\n      tag_116\n        /* \"#utility.yul\":5359:5759   */\n      jump\n        /* \"@chainlink/contracts-ccip/src/v0.8/vendor/openzeppelin-solidity/v4.8.3/contracts/token/ERC20/ERC20.sol\":9907:9975  require(owner != address(0), \"ERC20: approve from the zero address\") */\n    tag_125:\n      sub(shl(0xa0, 0x01), 0x01)\n        /* \"@chainlink/contracts-ccip/src/v0.8/vendor/openzeppelin-solidity/v4.8.3/contracts/token/ERC20/ERC20.sol\":9989:10010  spender != address(0) */\n      dup3\n      and\n        /* \"@chainlink/contracts-ccip/src/v0.8/vendor/openzeppelin-solidity/v4.8.3/contracts/token/ERC20/ERC20.sol\":9981:10049  require(spender != address(0), \"ERC20: approve to the zero address\") */\n      tag_128\n      jumpi\n      mload(0x40)\n      shl(0xe5, 0x461bcd)\n      dup2\n      mstore\n        /* \"#utility.yul\":5966:5968   */\n      0x20\n        /* \"@chainlink/contracts-ccip/src/v0.8/vendor/openzeppelin-solidity/v4.8.3/contracts/token/ERC20/ERC20.sol\":9981:10049  require(spender != address(0), \"ERC20: approve to the zero address\") */\n      0x04\n      dup3\n      add\n        /* \"#utility.yul\":5948:5969   */\n      mstore\n        /* \"#utility.yul\":6005:6007   */\n      0x22\n        /* \"#utility.yul\":5985:6003   */\n      0x24\n      dup3\n      add\n        /* \"#utility.yul\":5978:6008   */\n      mstore\n        /* \"#utility.yul\":6044:6078   */\n      0x45524332303a20617070726f766520746f20746865207a65726f206164647265\n        /* \"#utility.yul\":6024:6042   */\n      0x44\n      dup3\n      add\n        /* \"#utility.yul\":6017:6079   */\n      mstore\n      shl(0xf0, 0x7373)\n        /* \"#utility.yul\":6095:6113   */\n      0x64\n      dup3\n      add\n        /* \"#utility.yul\":6088:6120   */\n      mstore\n        /* \"#utility.yul\":6137:6156   */\n      0x84\n      add\n        /* \"@chainlink/contracts-ccip/src/v0.8/vendor/openzeppelin-solidity/v4.8.3/contracts/token/ERC20/ERC20.sol\":9981:10049  require(spender != address(0), \"ERC20: approve to the zero address\") */\n      tag_116\n        /* \"#utility.yul\":5764:6162   */\n      jump\n        /* \"@chainlink/contracts-ccip/src/v0.8/vendor/openzeppelin-solidity/v4.8.3/contracts/token/ERC20/ERC20.sol\":9981:10049  require(spender != address(0), \"ERC20: approve to the zero address\") */\n    tag_128:\n      sub(shl(0xa0, 0x01), 0x01)\n        /* \"@chainlink/contracts-ccip/src/v0.8/vendor/openzeppelin-solidity/v4.8.3/contracts/token/ERC20/ERC20.sol\":10056:10074  _allowances[owner] */\n      dup4\n      dup2\n      and\n      0x00\n      dup2\n      dup2\n      mstore\n        /* \"@chainlink/contracts-ccip/src/v0.8/vendor/openzeppelin-solidity/v4.8.3/contracts/token/ERC20/ERC20.sol\":10056:10067  _allowances */\n      0x01\n        /* \"@chainlink/contracts-ccip/src/v0.8/vendor/openzeppelin-solidity/v4.8.3/contracts/token/ERC20/ERC20.sol\":10056:10074  _allowances[owner] */\n      0x20\n      swap1\n      dup2\n      mstore\n      0x40\n      dup1\n      dup4\n      keccak256\n        /* \"@chainlink/contracts-ccip/src/v0.8/vendor/openzeppelin-solidity/v4.8.3/contracts/token/ERC20/ERC20.sol\":10056:10083  _allowances[owner][spender] */\n      swap5\n      dup8\n      and\n      dup1\n      dup5\n      mstore\n      swap5\n      dup3\n      mstore\n      swap2\n      dup3\n      swap1\n      keccak256\n        /* \"@chainlink/contracts-ccip/src/v0.8/vendor/openzeppelin-solidity/v4.8.3/contracts/token/ERC20/ERC20.sol\":10056:10092  _allowances[owner][spender] = amount */\n      dup6\n      swap1\n      sstore\n        /* \"@chainlink/contracts-ccip/src/v0.8/vendor/openzeppelin-solidity/v4.8.3/contracts/token/ERC20/ERC20.sol\":10103:10135  Approval(owner, spender, amount) */\n      swap1\n      mload\n        /* \"#utility.yul\":1442:1467   */\n      dup5\n      dup2\n      mstore\n        /* \"@chainlink/contracts-ccip/src/v0.8/vendor/openzeppelin-solidity/v4.8.3/contracts/token/ERC20/ERC20.sol\":10103:10135  Approval(owner, spender, amount) */\n      0x8c5be1e5ebec7d5bd14f71427d1e84f3dd0314c0f7b2291e5b200ac8c7c3b925\n      swap2\n        /* \"#utility.yul\":1415:1433   */\n      add\n        /* \"@chainlink/contracts-ccip/src/v0.8/vendor/openzeppelin-solidity/v4.8.3/contracts/token/ERC20/ERC20.sol\":10103:10135  Approval(owner, spender, amount) */\n      mload(0x40)\n      dup1\n      swap2\n      sub\n      swap1\n      log3\n        /* \"@chainlink/contracts-ccip/src/v0.8/vendor/openzeppelin-solidity/v4.8.3/contracts/token/ERC20/ERC20.sol\":9818:10140  function _approve(address owner, address spender, uint256 amount) internal virtual {... */\n      pop\n      pop\n      pop\n      jump\t// out\n        /* \"@chainlink/contracts-ccip/src/v0.8/vendor/openzeppelin-solidity/v4.8.3/contracts/token/ERC20/ERC20.sol\":10403:10774  function _spendAllowance(address owner, address spender, uint256 amount) internal virtual {... */\n    tag_85:\n        /* \"@chainlink/contracts-ccip/src/v0.8/vendor/openzeppelin-solidity/v4.8.3/contracts/token/ERC20/ERC20.sol\":10499:10523  uint256 currentAllowance */\n      0x00\n        /* \"@chainlink/contracts-ccip/src/v0.8/vendor/openzeppelin-solidity/v4.8.3/contracts/token/ERC20/ERC20.sol\":10526:10551  allowance(owner, spender) */\n      tag_133\n        /* \"@chainlink/contracts-ccip/src/v0.8/vendor/openzeppelin-solidity/v4.8.3/contracts/token/ERC20/ERC20.sol\":10536:10541  owner */\n      dup5\n        /* \"@chainlink/contracts-ccip/src/v0.8/vendor/openzeppelin-solidity/v4.8.3/contracts/token/ERC20/ERC20.sol\":10543:10550  spender */\n      dup5\n        /* \"@chainlink/contracts-ccip/src/v0.8/vendor/openzeppelin-solidity/v4.8.3/contracts/token/ERC20/ERC20.sol\":10526:10535  allowance */\n      tag_67\n        /* \"@chainlink/contracts-ccip/src/v0.8/vendor/openzeppelin-solidity/v4.8.3/contracts/token/ERC20/ERC20.sol\":10526:10551  allowance(owner, spender) */\n      jump\t// in\n    tag_133:\n        /* \"@chainlink/contracts-ccip/src/v0.8/vendor/openzeppelin-solidity/v4.8.3/contracts/token/ERC20/ERC20.sol\":10499:10551  uint256 currentAllowance = allowance(owner, spender) */\n      swap1\n      pop\n      not(0x00)\n        /* \"@chainlink/contracts-ccip/src/v0.8/vendor/openzeppelin-solidity/v4.8.3/contracts/token/ERC20/ERC20.sol\":10561:10577  currentAllowance */\n      dup2\n        /* \"@chainlink/contracts-ccip/src/v0.8/vendor/openzeppelin-solidity/v4.8.3/contracts/token/ERC20/ERC20.sol\":10561:10598  currentAllowance != type(uint256).max */\n      eq\n        /* \"@chainlink/contracts-ccip/src/v0.8/vendor/openzeppelin-solidity/v4.8.3/contracts/token/ERC20/ERC20.sol\":10557:10770  if (currentAllowance != type(uint256).max) {... */\n      tag_138\n      jumpi\n        /* \"@chainlink/contracts-ccip/src/v0.8/vendor/openzeppelin-solidity/v4.8.3/contracts/token/ERC20/ERC20.sol\":10636:10642  amount */\n      dup2\n        /* \"@chainlink/contracts-ccip/src/v0.8/vendor/openzeppelin-solidity/v4.8.3/contracts/token/ERC20/ERC20.sol\":10616:10632  currentAllowance */\n      dup2\n        /* \"@chainlink/contracts-ccip/src/v0.8/vendor/openzeppelin-solidity/v4.8.3/contracts/token/ERC20/ERC20.sol\":10616:10642  currentAllowance >= amount */\n      lt\n      iszero\n        /* \"@chainlink/contracts-ccip/src/v0.8/vendor/openzeppelin-solidity/v4.8.3/contracts/token/ERC20/ERC20.sol\":10608:10676  require(currentAllowance >= amount, \"ERC20: insufficient allowance\") */\n      tag_135\n      jumpi\n      mload(0x40)\n      shl(0xe5, 0x461bcd)\n      dup2\n      mstore\n        /* \"#utility.yul\":6369:6371   */\n      0x20\n        /* \"@chainlink/contracts-ccip/src/v0.8/vendor/openzeppelin-solidity/v4.8.3/contracts/token/ERC20/ERC20.sol\":10608:10676  require(currentAllowance >= amount, \"ERC20: insufficient allowance\") */\n      0x04\n      dup3\n      add\n        /* \"#utility.yul\":6351:6372   */\n      mstore\n        /* \"#utility.yul\":6408:6410   */\n      0x1d\n        /* \"#utility.yul\":6388:6406   */\n      0x24\n      dup3\n      add\n        /* \"#utility.yul\":6381:6411   */\n      mstore\n        /* \"#utility.yul\":6447:6478   */\n      0x45524332303a20696e73756666696369656e7420616c6c6f77616e6365000000\n        /* \"#utility.yul\":6427:6445   */\n      0x44\n      dup3\n      add\n        /* \"#utility.yul\":6420:6479   */\n      mstore\n        /* \"#utility.yul\":6496:6514   */\n      0x64\n      add\n        /* \"@chainlink/contracts-ccip/src/v0.8/vendor/openzeppelin-solidity/v4.8.3/contracts/token/ERC20/ERC20.sol\":10608:10676  require(currentAllowance >= amount, \"ERC20: insufficient allowance\") */\n      tag_116\n        /* \"#utility.yul\":6167:6520   */\n      jump\n        /* \"@chainlink/contracts-ccip/src/v0.8/vendor/openzeppelin-solidity/v4.8.3/contracts/token/ERC20/ERC20.sol\":10608:10676  require(currentAllowance >= amount, \"ERC20: insufficient allowance\") */\n    tag_135:\n        /* \"@chainlink/contracts-ccip/src/v0.8/vendor/openzeppelin-solidity/v4.8.3/contracts/token/ERC20/ERC20.sol\":10704:10755  _approve(owner, spender, currentAllowance - amount) */\n      tag_138\n        /* \"@chainlink/contracts-ccip/src/v0.8/vendor/openzeppelin-solidity/v4.8.3/contracts/token/ERC20/ERC20.sol\":10713:10718  owner */\n      dup5\n        /* \"@chainlink/contracts-ccip/src/v0.8/vendor/openzeppelin-solidity/v4.8.3/contracts/token/ERC20/ERC20.sol\":10720:10727  spender */\n      dup5\n        /* \"@chainlink/contracts-ccip/src/v0.8/vendor/openzeppelin-solidity/v4.8.3/contracts/token/ERC20/ERC20.sol\":10748:10754  amount */\n      dup5\n        /* \"@chainlink/contracts-ccip/src/v0.8/vendor/openzeppelin-solidity/v4.8.3/contracts/token/ERC20/ERC20.sol\":10729:10745  currentAllowance */\n      dup5\n        /* \"@chainlink/contracts-ccip/src/v0.8/vendor/openzeppelin-solidity/v4.8.3/contracts/token/ERC20/ERC20.sol\":10729:10754  currentAllowance - amount */\n      sub\n        /* \"@chainlink/contracts-ccip/src/v0.8/vendor/openzeppelin-solidity/v4.8.3/contracts/token/ERC20/ERC20.sol\":10704:10712  _approve */\n      tag_80\n        /* \"@chainlink/contracts-ccip/src/v0.8/vendor/openzeppelin-solidity/v4.8.3/contracts/token/ERC20/ERC20.sol\":10704:10755  _approve(owner, spender, currentAllowance - amount) */\n      jump\t// in\n    tag_138:\n        /* \"@chainlink/contracts-ccip/src/v0.8/vendor/openzeppelin-solidity/v4.8.3/contracts/token/ERC20/ERC20.sol\":10493:10774  {... */\n      pop\n        /* \"@chainlink/contracts-ccip/src/v0.8/vendor/openzeppelin-solidity/v4.8.3/contracts/token/ERC20/ERC20.sol\":10403:10774  function _spendAllowance(address owner, address spender, uint256 amount) internal virtual {... */\n      pop\n      pop\n      pop\n      jump\t// out\n        /* \"@chainlink/contracts-ccip/src/v0.8/vendor/openzeppelin-solidity/v4.8.3/contracts/token/ERC20/ERC20.sol\":7045:7771  function _transfer(address from, address to, uint256 amount) internal virtual {... */\n    tag_87:\n      sub(shl(0xa0, 0x01), 0x01)\n        /* \"@chainlink/contracts-ccip/src/v0.8/vendor/openzeppelin-solidity/v4.8.3/contracts/token/ERC20/ERC20.sol\":7137:7155  from != address(0) */\n      dup4\n      and\n        /* \"@chainlink/contracts-ccip/src/v0.8/vendor/openzeppelin-solidity/v4.8.3/contracts/token/ERC20/ERC20.sol\":7129:7197  require(from != address(0), \"ERC20: transfer from the zero address\") */\n      tag_140\n      jumpi\n      mload(0x40)\n      shl(0xe5, 0x461bcd)\n      dup2\n      mstore\n        /* \"#utility.yul\":6727:6729   */\n      0x20\n        /* \"@chainlink/contracts-ccip/src/v0.8/vendor/openzeppelin-solidity/v4.8.3/contracts/token/ERC20/ERC20.sol\":7129:7197  require(from != address(0), \"ERC20: transfer from the zero address\") */\n      0x04\n      dup3\n      add\n        /* \"#utility.yul\":6709:6730   */\n      mstore\n        /* \"#utility.yul\":6766:6768   */\n      0x25\n        /* \"#utility.yul\":6746:6764   */\n      0x24\n      dup3\n      add\n        /* \"#utility.yul\":6739:6769   */\n      mstore\n        /* \"#utility.yul\":6805:6839   */\n      0x45524332303a207472616e736665722066726f6d20746865207a65726f206164\n        /* \"#utility.yul\":6785:6803   */\n      0x44\n      dup3\n      add\n        /* \"#utility.yul\":6778:6840   */\n      mstore\n      shl(0xd8, 0x6472657373)\n        /* \"#utility.yul\":6856:6874   */\n      0x64\n      dup3\n      add\n        /* \"#utility.yul\":6849:6884   */\n      mstore\n        /* \"#utility.yul\":6901:6920   */\n      0x84\n      add\n        /* \"@chainlink/contracts-ccip/src/v0.8/vendor/openzeppelin-solidity/v4.8.3/contracts/token/ERC20/ERC20.sol\":7129:7197  require(from != address(0), \"ERC20: transfer from the zero address\") */\n      tag_116\n        /* \"#utility.yul\":6525:6926   */\n      jump\n        /* \"@chainlink/contracts-ccip/src/v0.8/vendor/openzeppelin-solidity/v4.8.3/contracts/token/ERC20/ERC20.sol\":7129:7197  require(from != address(0), \"ERC20: transfer from the zero address\") */\n    tag_140:\n      sub(shl(0xa0, 0x01), 0x01)\n        /* \"@chainlink/contracts-ccip/src/v0.8/vendor/openzeppelin-solidity/v4.8.3/contracts/token/ERC20/ERC20.sol\":7211:7227  to != address(0) */\n      dup3\n      and\n        /* \"@chainlink/contracts-ccip/src/v0.8/vendor/openzeppelin-solidity/v4.8.3/contracts/token/ERC20/ERC20.sol\":7203:7267  require(to != address(0), \"ERC20: transfer to the zero address\") */\n      tag_143\n      jumpi\n      mload(0x40)\n      shl(0xe5, 0x461bcd)\n      dup2\n      mstore\n        /* \"#utility.yul\":7133:7135   */\n      0x20\n        /* \"@chainlink/contracts-ccip/src/v0.8/vendor/openzeppelin-solidity/v4.8.3/contracts/token/ERC20/ERC20.sol\":7203:7267  require(to != address(0), \"ERC20: transfer to the zero address\") */\n      0x04\n      dup3\n      add\n        /* \"#utility.yul\":7115:7136   */\n      mstore\n        /* \"#utility.yul\":7172:7174   */\n      0x23\n        /* \"#utility.yul\":7152:7170   */\n      0x24\n      dup3\n      add\n        /* \"#utility.yul\":7145:7175   */\n      mstore\n        /* \"#utility.yul\":7211:7245   */\n      0x45524332303a207472616e7366657220746f20746865207a65726f2061646472\n        /* \"#utility.yul\":7191:7209   */\n      0x44\n      dup3\n      add\n        /* \"#utility.yul\":7184:7246   */\n      mstore\n      shl(0xe8, 0x657373)\n        /* \"#utility.yul\":7262:7280   */\n      0x64\n      dup3\n      add\n        /* \"#utility.yul\":7255:7288   */\n      mstore\n        /* \"#utility.yul\":7305:7324   */\n      0x84\n      add\n        /* \"@chainlink/contracts-ccip/src/v0.8/vendor/openzeppelin-solidity/v4.8.3/contracts/token/ERC20/ERC20.sol\":7203:7267  require(to != address(0), \"ERC20: transfer to the zero address\") */\n      tag_116\n        /* \"#utility.yul\":6931:7330   */\n      jump\n        /* \"@chainlink/contracts-ccip/src/v0.8/vendor/openzeppelin-solidity/v4.8.3/contracts/token/ERC20/ERC20.sol\":7203:7267  require(to != address(0), \"ERC20: transfer to the zero address\") */\n    tag_143:\n      sub(shl(0xa0, 0x01), 0x01)\n        /* \"@chainlink/contracts-ccip/src/v0.8/vendor/openzeppelin-solidity/v4.8.3/contracts/token/ERC20/ERC20.sol\":7341:7356  _balances[from] */\n      dup4\n      and\n        /* \"@chainlink/contracts-ccip/src/v0.8/vendor/openzeppelin-solidity/v4.8.3/contracts/token/ERC20/ERC20.sol\":7319:7338  uint256 fromBalance */\n      0x00\n        /* \"@chainlink/contracts-ccip/src/v0.8/vendor/openzeppelin-solidity/v4.8.3/contracts/token/ERC20/ERC20.sol\":7341:7356  _balances[from] */\n      swap1\n      dup2\n      mstore\n      0x20\n      dup2\n      swap1\n      mstore\n      0x40\n      swap1\n      keccak256\n      sload\n        /* \"@chainlink/contracts-ccip/src/v0.8/vendor/openzeppelin-solidity/v4.8.3/contracts/token/ERC20/ERC20.sol\":7370:7391  fromBalance >= amount */\n      dup2\n      dup2\n      lt\n      iszero\n        /* \"@chainlink/contracts-ccip/src/v0.8/vendor/openzeppelin-solidity/v4.8.3/contracts/token/ERC20/ERC20.sol\":7362:7434  require(fromBalance >= amount, \"ERC20: transfer amount exceeds balance\") */\n      tag_148\n      jumpi\n      mload(0x40)\n      shl(0xe5, 0x461bcd)\n      dup2\n      mstore\n        /* \"#utility.yul\":7537:7539   */\n      0x20\n        /* \"@chainlink/contracts-ccip/src/v0.8/vendor/openzeppelin-solidity/v4.8.3/contracts/token/ERC20/ERC20.sol\":7362:7434  require(fromBalance >= amount, \"ERC20: transfer amount exceeds balance\") */\n      0x04\n      dup3\n      add\n        /* \"#utility.yul\":7519:7540   */\n      mstore\n        /* \"#utility.yul\":7576:7578   */\n      0x26\n        /* \"#utility.yul\":7556:7574   */\n      0x24\n      dup3\n      add\n        /* \"#utility.yul\":7549:7579   */\n      mstore\n        /* \"#utility.yul\":7615:7649   */\n      0x45524332303a207472616e7366657220616d6f756e7420657863656564732062\n        /* \"#utility.yul\":7595:7613   */\n      0x44\n      dup3\n      add\n        /* \"#utility.yul\":7588:7650   */\n      mstore\n      shl(0xd0, 0x616c616e6365)\n        /* \"#utility.yul\":7666:7684   */\n      0x64\n      dup3\n      add\n        /* \"#utility.yul\":7659:7695   */\n      mstore\n        /* \"#utility.yul\":7712:7731   */\n      0x84\n      add\n        /* \"@chainlink/contracts-ccip/src/v0.8/vendor/openzeppelin-solidity/v4.8.3/contracts/token/ERC20/ERC20.sol\":7362:7434  require(fromBalance >= amount, \"ERC20: transfer amount exceeds balance\") */\n      tag_116\n        /* \"#utility.yul\":7335:7737   */\n      jump\n        /* \"@chainlink/contracts-ccip/src/v0.8/vendor/openzeppelin-solidity/v4.8.3/contracts/token/ERC20/ERC20.sol\":7362:7434  require(fromBalance >= amount, \"ERC20: transfer amount exceeds balance\") */\n    tag_148:\n      sub(shl(0xa0, 0x01), 0x01)\n        /* \"@chainlink/contracts-ccip/src/v0.8/vendor/openzeppelin-solidity/v4.8.3/contracts/token/ERC20/ERC20.sol\":7458:7473  _balances[from] */\n      dup5\n      dup2\n      and\n        /* \"@chainlink/contracts-ccip/src/v0.8/vendor/openzeppelin-solidity/v4.8.3/contracts/token/ERC20/ERC20.sol\":7458:7467  _balances */\n      0x00\n        /* \"@chainlink/contracts-ccip/src/v0.8/vendor/openzeppelin-solidity/v4.8.3/contracts/token/ERC20/ERC20.sol\":7458:7473  _balances[from] */\n      dup2\n      dup2\n      mstore\n      0x20\n      dup2\n      dup2\n      mstore\n      0x40\n      dup1\n      dup4\n      keccak256\n        /* \"@chainlink/contracts-ccip/src/v0.8/vendor/openzeppelin-solidity/v4.8.3/contracts/token/ERC20/ERC20.sol\":7476:7496  fromBalance - amount */\n      dup8\n      dup8\n      sub\n        /* \"@chainlink/contracts-ccip/src/v0.8/vendor/openzeppelin-solidity/v4.8.3/contracts/token/ERC20/ERC20.sol\":7458:7496  _balances[from] = fromBalance - amount */\n      swap1\n      sstore\n        /* \"@chainlink/contracts-ccip/src/v0.8/vendor/openzeppelin-solidity/v4.8.3/contracts/token/ERC20/ERC20.sol\":7655:7668  _balances[to] */\n      swap4\n      dup8\n      and\n      dup1\n      dup4\n      mstore\n      swap2\n      dup5\n      swap1\n      keccak256\n        /* \"@chainlink/contracts-ccip/src/v0.8/vendor/openzeppelin-solidity/v4.8.3/contracts/token/ERC20/ERC20.sol\":7655:7678  _balances[to] += amount */\n      dup1\n      sload\n      dup8\n      add\n      swap1\n      sstore\n        /* \"@chainlink/contracts-ccip/src/v0.8/vendor/openzeppelin-solidity/v4.8.3/contracts/token/ERC20/ERC20.sol\":7696:7722  Transfer(from, to, amount) */\n      swap3\n      mload\n        /* \"#utility.yul\":1442:1467   */\n      dup6\n      dup2\n      mstore\n        /* \"@chainlink/contracts-ccip/src/v0.8/vendor/openzeppelin-solidity/v4.8.3/contracts/token/ERC20/ERC20.sol\":7655:7668  _balances[to] */\n      swap1\n      swap3\n        /* \"@chainlink/contracts-ccip/src/v0.8/vendor/openzeppelin-solidity/v4.8.3/contracts/token/ERC20/ERC20.sol\":7696:7722  Transfer(from, to, amount) */\n      0xddf252ad1be2c89b69c2b068fc378daa952ba7f163c4a11628f55a4df523b3ef\n      swap2\n        /* \"#utility.yul\":1415:1433   */\n      add\n        /* \"@chainlink/contracts-ccip/src/v0.8/vendor/openzeppelin-solidity/v4.8.3/contracts/token/ERC20/ERC20.sol\":7696:7722  Transfer(from, to, amount) */\n      mload(0x40)\n      dup1\n      swap2\n      sub\n      swap1\n      log3\n        /* \"@chainlink/contracts-ccip/src/v0.8/vendor/openzeppelin-solidity/v4.8.3/contracts/token/ERC20/ERC20.sol\":7729:7766  _afterTokenTransfer(from, to, amount) */\n      tag_138\n        /* \"@chainlink/contracts-ccip/src/v0.8/vendor/openzeppelin-solidity/v4.8.3/contracts/token/ERC20/ERC20.sol\":11328:11419  function _beforeTokenTransfer(address from, address to, uint256 amount) internal virtual {} */\n      jump\n        /* \"#utility.yul\":14:437   */\n    tag_156:\n        /* \"#utility.yul\":56:59   */\n      0x00\n        /* \"#utility.yul\":94:99   */\n      dup2\n        /* \"#utility.yul\":88:100   */\n      mload\n        /* \"#utility.yul\":121:127   */\n      dup1\n        /* \"#utility.yul\":116:119   */\n      dup5\n        /* \"#utility.yul\":109:128   */\n      mstore\n        /* \"#utility.yul\":146:147   */\n      0x00\n        /* \"#utility.yul\":156:318   */\n    tag_161:\n        /* \"#utility.yul\":170:176   */\n      dup2\n        /* \"#utility.yul\":167:168   */\n      dup2\n        /* \"#utility.yul\":164:177   */\n      lt\n        /* \"#utility.yul\":156:318   */\n      iszero\n      tag_163\n      jumpi\n        /* \"#utility.yul\":232:236   */\n      0x20\n        /* \"#utility.yul\":288:301   */\n      dup2\n      dup6\n      add\n        /* \"#utility.yul\":284:306   */\n      dup2\n      add\n        /* \"#utility.yul\":278:307   */\n      mload\n        /* \"#utility.yul\":260:271   */\n      dup7\n      dup4\n      add\n        /* \"#utility.yul\":256:276   */\n      dup3\n      add\n        /* \"#utility.yul\":249:308   */\n      mstore\n        /* \"#utility.yul\":185:197   */\n      add\n        /* \"#utility.yul\":156:318   */\n      jump(tag_161)\n    tag_163:\n        /* \"#utility.yul\":160:163   */\n      pop\n        /* \"#utility.yul\":363:364   */\n      0x00\n        /* \"#utility.yul\":356:360   */\n      0x20\n        /* \"#utility.yul\":347:353   */\n      dup3\n        /* \"#utility.yul\":342:345   */\n      dup7\n        /* \"#utility.yul\":338:354   */\n      add\n        /* \"#utility.yul\":334:361   */\n      add\n        /* \"#utility.yul\":327:365   */\n      mstore\n        /* \"#utility.yul\":426:430   */\n      0x20\n        /* \"#utility.yul\":419:421   */\n      0x1f\n        /* \"#utility.yul\":415:422   */\n      not\n        /* \"#utility.yul\":410:412   */\n      0x1f\n        /* \"#utility.yul\":402:408   */\n      dup4\n        /* \"#utility.yul\":398:413   */\n      add\n        /* \"#utility.yul\":394:423   */\n      and\n        /* \"#utility.yul\":389:392   */\n      dup6\n        /* \"#utility.yul\":385:424   */\n      add\n        /* \"#utility.yul\":381:431   */\n      add\n        /* \"#utility.yul\":374:431   */\n      swap2\n      pop\n      pop\n        /* \"#utility.yul\":14:437   */\n      swap3\n      swap2\n      pop\n      pop\n      jump\t// out\n        /* \"#utility.yul\":442:662   */\n    tag_19:\n        /* \"#utility.yul\":591:593   */\n      0x20\n        /* \"#utility.yul\":580:589   */\n      dup2\n        /* \"#utility.yul\":573:594   */\n      mstore\n        /* \"#utility.yul\":554:558   */\n      0x00\n        /* \"#utility.yul\":611:656   */\n      tag_165\n        /* \"#utility.yul\":652:654   */\n      0x20\n        /* \"#utility.yul\":641:650   */\n      dup4\n        /* \"#utility.yul\":637:655   */\n      add\n        /* \"#utility.yul\":629:635   */\n      dup5\n        /* \"#utility.yul\":611:656   */\n      tag_156\n      jump\t// in\n    tag_165:\n        /* \"#utility.yul\":603:656   */\n      swap4\n        /* \"#utility.yul\":442:662   */\n      swap3\n      pop\n      pop\n      pop\n      jump\t// out\n        /* \"#utility.yul\":667:840   */\n    tag_157:\n        /* \"#utility.yul\":735:755   */\n      dup1\n      calldataload\n      sub(shl(0xa0, 0x01), 0x01)\n        /* \"#utility.yul\":784:815   */\n      dup2\n      and\n        /* \"#utility.yul\":774:816   */\n      dup2\n      eq\n        /* \"#utility.yul\":764:834   */\n      tag_167\n      jumpi\n        /* \"#utility.yul\":830:831   */\n      0x00\n        /* \"#utility.yul\":827:828   */\n      dup1\n        /* \"#utility.yul\":820:832   */\n      revert\n        /* \"#utility.yul\":764:834   */\n    tag_167:\n        /* \"#utility.yul\":667:840   */\n      swap2\n      swap1\n      pop\n      jump\t// out\n        /* \"#utility.yul\":845:1099   */\n    tag_22:\n        /* \"#utility.yul\":913:919   */\n      0x00\n        /* \"#utility.yul\":921:927   */\n      dup1\n        /* \"#utility.yul\":974:976   */\n      0x40\n        /* \"#utility.yul\":962:971   */\n      dup4\n        /* \"#utility.yul\":953:960   */\n      dup6\n        /* \"#utility.yul\":949:972   */\n      sub\n        /* \"#utility.yul\":945:977   */\n      slt\n        /* \"#utility.yul\":942:994   */\n      iszero\n      tag_169\n      jumpi\n        /* \"#utility.yul\":990:991   */\n      0x00\n        /* \"#utility.yul\":987:988   */\n      dup1\n        /* \"#utility.yul\":980:992   */\n      revert\n        /* \"#utility.yul\":942:994   */\n    tag_169:\n        /* \"#utility.yul\":1013:1042   */\n      tag_170\n        /* \"#utility.yul\":1032:1041   */\n      dup4\n        /* \"#utility.yul\":1013:1042   */\n      tag_157\n      jump\t// in\n    tag_170:\n        /* \"#utility.yul\":1003:1042   */\n      swap5\n        /* \"#utility.yul\":1089:1091   */\n      0x20\n        /* \"#utility.yul\":1074:1092   */\n      swap4\n      swap1\n      swap4\n      add\n        /* \"#utility.yul\":1061:1093   */\n      calldataload\n      swap4\n      pop\n      pop\n      pop\n        /* \"#utility.yul\":845:1099   */\n      jump\t// out\n        /* \"#utility.yul\":1478:1806   */\n    tag_32:\n        /* \"#utility.yul\":1555:1561   */\n      0x00\n        /* \"#utility.yul\":1563:1569   */\n      dup1\n        /* \"#utility.yul\":1571:1577   */\n      0x00\n        /* \"#utility.yul\":1624:1626   */\n      0x60\n        /* \"#utility.yul\":1612:1621   */\n      dup5\n        /* \"#utility.yul\":1603:1610   */\n      dup7\n        /* \"#utility.yul\":1599:1622   */\n      sub\n        /* \"#utility.yul\":1595:1627   */\n      slt\n        /* \"#utility.yul\":1592:1644   */\n      iszero\n      tag_174\n      jumpi\n        /* \"#utility.yul\":1640:1641   */\n      0x00\n        /* \"#utility.yul\":1637:1638   */\n      dup1\n        /* \"#utility.yul\":1630:1642   */\n      revert\n        /* \"#utility.yul\":1592:1644   */\n    tag_174:\n        /* \"#utility.yul\":1663:1692   */\n      tag_175\n        /* \"#utility.yul\":1682:1691   */\n      dup5\n        /* \"#utility.yul\":1663:1692   */\n      tag_157\n      jump\t// in\n    tag_175:\n        /* \"#utility.yul\":1653:1692   */\n      swap3\n      pop\n        /* \"#utility.yul\":1711:1749   */\n      tag_176\n        /* \"#utility.yul\":1745:1747   */\n      0x20\n        /* \"#utility.yul\":1734:1743   */\n      dup6\n        /* \"#utility.yul\":1730:1748   */\n      add\n        /* \"#utility.yul\":1711:1749   */\n      tag_157\n      jump\t// in\n    tag_176:\n        /* \"#utility.yul\":1701:1749   */\n      swap2\n      pop\n        /* \"#utility.yul\":1796:1798   */\n      0x40\n        /* \"#utility.yul\":1785:1794   */\n      dup5\n        /* \"#utility.yul\":1781:1799   */\n      add\n        /* \"#utility.yul\":1768:1800   */\n      calldataload\n        /* \"#utility.yul\":1758:1800   */\n      swap1\n      pop\n        /* \"#utility.yul\":1478:1806   */\n      swap3\n      pop\n      swap3\n      pop\n      swap3\n      jump\t// out\n        /* \"#utility.yul\":2000:2127   */\n    tag_158:\n        /* \"#utility.yul\":2061:2071   */\n      0x4e487b71\n        /* \"#utility.yul\":2056:2059   */\n      0xe0\n        /* \"#utility.yul\":2052:2072   */\n      shl\n        /* \"#utility.yul\":2049:2050   */\n      0x00\n        /* \"#utility.yul\":2042:2073   */\n      mstore\n        /* \"#utility.yul\":2092:2096   */\n      0x41\n        /* \"#utility.yul\":2089:2090   */\n      0x04\n        /* \"#utility.yul\":2082:2097   */\n      mstore\n        /* \"#utility.yul\":2116:2120   */\n      0x24\n        /* \"#utility.yul\":2113:2114   */\n      0x00\n        /* \"#utility.yul\":2106:2121   */\n      revert\n        /* \"#utility.yul\":2132:3195   */\n    tag_45:\n        /* \"#utility.yul\":2218:2224   */\n      0x00\n        /* \"#utility.yul\":2226:2232   */\n      dup1\n        /* \"#utility.yul\":2234:2240   */\n      0x00\n        /* \"#utility.yul\":2287:2289   */\n      0x60\n        /* \"#utility.yul\":2275:2284   */\n      dup5\n        /* \"#utility.yul\":2266:2273   */\n      dup7\n        /* \"#utility.yul\":2262:2285   */\n      sub\n        /* \"#utility.yul\":2258:2290   */\n      slt\n        /* \"#utility.yul\":2255:2307   */\n      iszero\n      tag_180\n      jumpi\n        /* \"#utility.yul\":2303:2304   */\n      0x00\n        /* \"#utility.yul\":2300:2301   */\n      dup1\n        /* \"#utility.yul\":2293:2305   */\n      revert\n        /* \"#utility.yul\":2255:2307   */\n    tag_180:\n        /* \"#utility.yul\":2326:2355   */\n      tag_181\n        /* \"#utility.yul\":2345:2354   */\n      dup5\n        /* \"#utility.yul\":2326:2355   */\n      tag_157\n      jump\t// in\n    tag_181:\n        /* \"#utility.yul\":2316:2355   */\n      swap3\n      pop\n        /* \"#utility.yul\":2402:2404   */\n      0x20\n        /* \"#utility.yul\":2391:2400   */\n      dup5\n        /* \"#utility.yul\":2387:2405   */\n      add\n        /* \"#utility.yul\":2374:2406   */\n      calldataload\n        /* \"#utility.yul\":2364:2406   */\n      swap2\n      pop\n        /* \"#utility.yul\":2457:2459   */\n      0x40\n        /* \"#utility.yul\":2446:2455   */\n      dup5\n        /* \"#utility.yul\":2442:2460   */\n      add\n        /* \"#utility.yul\":2429:2461   */\n      calldataload\n        /* \"#utility.yul\":2480:2498   */\n      0xffffffffffffffff\n        /* \"#utility.yul\":2521:2523   */\n      dup1\n        /* \"#utility.yul\":2513:2519   */\n      dup3\n        /* \"#utility.yul\":2510:2524   */\n      gt\n        /* \"#utility.yul\":2507:2541   */\n      iszero\n      tag_182\n      jumpi\n        /* \"#utility.yul\":2537:2538   */\n      0x00\n        /* \"#utility.yul\":2534:2535   */\n      dup1\n        /* \"#utility.yul\":2527:2539   */\n      revert\n        /* \"#utility.yul\":2507:2541   */\n    tag_182:\n        /* \"#utility.yul\":2575:2581   */\n      dup2\n        /* \"#utility.yul\":2564:2573   */\n      dup7\n        /* \"#utility.yul\":2560:2582   */\n      add\n        /* \"#utility.yul\":2550:2582   */\n      swap2\n      pop\n        /* \"#utility.yul\":2620:2627   */\n      dup7\n        /* \"#utility.yul\":2613:2617   */\n      0x1f\n        /* \"#utility.yul\":2609:2611   */\n      dup4\n        /* \"#utility.yul\":2605:2618   */\n      add\n        /* \"#utility.yul\":2601:2628   */\n      slt\n        /* \"#utility.yul\":2591:2646   */\n      tag_183\n      jumpi\n        /* \"#utility.yul\":2642:2643   */\n      0x00\n        /* \"#utility.yul\":2639:2640   */\n      dup1\n        /* \"#utility.yul\":2632:2644   */\n      revert\n        /* \"#utility.yul\":2591:2646   */\n    tag_183:\n        /* \"#utility.yul\":2678:2680   */\n      dup2\n        /* \"#utility.yul\":2665:2681   */\n      calldataload\n        /* \"#utility.yul\":2700:2702   */\n      dup2\n        /* \"#utility.yul\":2696:2698   */\n      dup2\n        /* \"#utility.yul\":2693:2703   */\n      gt\n        /* \"#utility.yul\":2690:2726   */\n      iszero\n      tag_185\n      jumpi\n        /* \"#utility.yul\":2706:2724   */\n      tag_185\n      tag_158\n      jump\t// in\n    tag_185:\n        /* \"#utility.yul\":2781:2783   */\n      0x40\n        /* \"#utility.yul\":2775:2784   */\n      mload\n        /* \"#utility.yul\":2749:2751   */\n      0x1f\n        /* \"#utility.yul\":2835:2848   */\n      dup3\n      add\n      not(0x1f)\n        /* \"#utility.yul\":2831:2853   */\n      swap1\n      dup2\n      and\n        /* \"#utility.yul\":2855:2857   */\n      0x3f\n        /* \"#utility.yul\":2827:2858   */\n      add\n        /* \"#utility.yul\":2823:2863   */\n      and\n        /* \"#utility.yul\":2811:2864   */\n      dup2\n      add\n      swap1\n        /* \"#utility.yul\":2879:2897   */\n      dup4\n      dup3\n      gt\n        /* \"#utility.yul\":2899:2921   */\n      dup2\n      dup4\n      lt\n        /* \"#utility.yul\":2876:2922   */\n      or\n        /* \"#utility.yul\":2873:2945   */\n      iszero\n      tag_187\n      jumpi\n        /* \"#utility.yul\":2925:2943   */\n      tag_187\n      tag_158\n      jump\t// in\n    tag_187:\n        /* \"#utility.yul\":2965:2975   */\n      dup2\n        /* \"#utility.yul\":2961:2963   */\n      0x40\n        /* \"#utility.yul\":2954:2976   */\n      mstore\n        /* \"#utility.yul\":3000:3002   */\n      dup3\n        /* \"#utility.yul\":2992:2998   */\n      dup2\n        /* \"#utility.yul\":2985:3003   */\n      mstore\n        /* \"#utility.yul\":3040:3047   */\n      dup10\n        /* \"#utility.yul\":3035:3037   */\n      0x20\n        /* \"#utility.yul\":3030:3032   */\n      dup5\n        /* \"#utility.yul\":3026:3028   */\n      dup8\n        /* \"#utility.yul\":3022:3033   */\n      add\n        /* \"#utility.yul\":3018:3038   */\n      add\n        /* \"#utility.yul\":3015:3048   */\n      gt\n        /* \"#utility.yul\":3012:3065   */\n      iszero\n      tag_188\n      jumpi\n        /* \"#utility.yul\":3061:3062   */\n      0x00\n        /* \"#utility.yul\":3058:3059   */\n      dup1\n        /* \"#utility.yul\":3051:3063   */\n      revert\n        /* \"#utility.yul\":3012:3065   */\n    tag_188:\n        /* \"#utility.yul\":3117:3119   */\n      dup3\n        /* \"#utility.yul\":3112:3114   */\n      0x20\n        /* \"#utility.yul\":3108:3110   */\n      dup7\n        /* \"#utility.yul\":3104:3115   */\n      add\n        /* \"#utility.yul\":3099:3101   */\n      0x20\n        /* \"#utility.yul\":3091:3097   */\n      dup4\n        /* \"#utility.yul\":3087:3102   */\n      add\n        /* \"#utility.yul\":3074:3120   */\n      calldatacopy\n        /* \"#utility.yul\":3162:3163   */\n      0x00\n        /* \"#utility.yul\":3157:3159   */\n      0x20\n        /* \"#utility.yul\":3152:3154   */\n      dup5\n        /* \"#utility.yul\":3144:3150   */\n      dup4\n        /* \"#utility.yul\":3140:3155   */\n      add\n        /* \"#utility.yul\":3136:3160   */\n      add\n        /* \"#utility.yul\":3129:3164   */\n      mstore\n        /* \"#utility.yul\":3183:3189   */\n      dup1\n        /* \"#utility.yul\":3173:3189   */\n      swap6\n      pop\n      pop\n      pop\n      pop\n      pop\n      pop\n        /* \"#utility.yul\":2132:3195   */\n      swap3\n      pop\n      swap3\n      pop\n      swap3\n      jump\t// out\n        /* \"#utility.yul\":3200:3386   */\n    tag_50:\n        /* \"#utility.yul\":3259:3265   */\n      0x00\n        /* \"#utility.yul\":3312:3314   */\n      0x20\n        /* \"#utility.yul\":3300:3309   */\n      dup3\n        /* \"#utility.yul\":3291:3298   */\n      dup5\n        /* \"#utility.yul\":3287:3310   */\n      sub\n        /* \"#utility.yul\":3283:3315   */\n      slt\n        /* \"#utility.yul\":3280:3332   */\n      iszero\n      tag_190\n      jumpi\n        /* \"#utility.yul\":3328:3329   */\n      0x00\n        /* \"#utility.yul\":3325:3326   */\n      dup1\n        /* \"#utility.yul\":3318:3330   */\n      revert\n        /* \"#utility.yul\":3280:3332   */\n    tag_190:\n        /* \"#utility.yul\":3351:3380   */\n      tag_165\n        /* \"#utility.yul\":3370:3379   */\n      dup3\n        /* \"#utility.yul\":3351:3380   */\n      tag_157\n      jump\t// in\n        /* \"#utility.yul\":3391:3651   */\n    tag_66:\n        /* \"#utility.yul\":3459:3465   */\n      0x00\n        /* \"#utility.yul\":3467:3473   */\n      dup1\n        /* \"#utility.yul\":3520:3522   */\n      0x40\n        /* \"#utility.yul\":3508:3517   */\n      dup4\n        /* \"#utility.yul\":3499:3506   */\n      dup6\n        /* \"#utility.yul\":3495:3518   */\n      sub\n        /* \"#utility.yul\":3491:3523   */\n      slt\n        /* \"#utility.yul\":3488:3540   */\n      iszero\n      tag_193\n      jumpi\n        /* \"#utility.yul\":3536:3537   */\n      0x00\n        /* \"#utility.yul\":3533:3534   */\n      dup1\n        /* \"#utility.yul\":3526:3538   */\n      revert\n        /* \"#utility.yul\":3488:3540   */\n    tag_193:\n        /* \"#utility.yul\":3559:3588   */\n      tag_194\n        /* \"#utility.yul\":3578:3587   */\n      dup4\n        /* \"#utility.yul\":3559:3588   */\n      tag_157\n      jump\t// in\n    tag_194:\n        /* \"#utility.yul\":3549:3588   */\n      swap2\n      pop\n        /* \"#utility.yul\":3607:3645   */\n      tag_195\n        /* \"#utility.yul\":3641:3643   */\n      0x20\n        /* \"#utility.yul\":3630:3639   */\n      dup5\n        /* \"#utility.yul\":3626:3644   */\n      add\n        /* \"#utility.yul\":3607:3645   */\n      tag_157\n      jump\t// in\n    tag_195:\n        /* \"#utility.yul\":3597:3645   */\n      swap1\n      pop\n        /* \"#utility.yul\":3391:3651   */\n      swap3\n      pop\n      swap3\n      swap1\n      pop\n      jump\t// out\n        /* \"#utility.yul\":3656:4036   */\n    tag_71:\n        /* \"#utility.yul\":3735:3736   */\n      0x01\n        /* \"#utility.yul\":3731:3743   */\n      dup2\n      dup2\n      shr\n      swap1\n        /* \"#utility.yul\":3778:3790   */\n      dup3\n      and\n      dup1\n        /* \"#utility.yul\":3799:3860   */\n      tag_197\n      jumpi\n        /* \"#utility.yul\":3853:3857   */\n      0x7f\n        /* \"#utility.yul\":3845:3851   */\n      dup3\n        /* \"#utility.yul\":3841:3858   */\n      and\n        /* \"#utility.yul\":3831:3858   */\n      swap2\n      pop\n        /* \"#utility.yul\":3799:3860   */\n    tag_197:\n        /* \"#utility.yul\":3906:3908   */\n      0x20\n        /* \"#utility.yul\":3898:3904   */\n      dup3\n        /* \"#utility.yul\":3895:3909   */\n      lt\n        /* \"#utility.yul\":3875:3893   */\n      dup2\n        /* \"#utility.yul\":3872:3910   */\n      sub\n        /* \"#utility.yul\":3869:4030   */\n      tag_198\n      jumpi\n        /* \"#utility.yul\":3952:3962   */\n      0x4e487b71\n        /* \"#utility.yul\":3947:3950   */\n      0xe0\n        /* \"#utility.yul\":3943:3963   */\n      shl\n        /* \"#utility.yul\":3940:3941   */\n      0x00\n        /* \"#utility.yul\":3933:3964   */\n      mstore\n        /* \"#utility.yul\":3987:3991   */\n      0x22\n        /* \"#utility.yul\":3984:3985   */\n      0x04\n        /* \"#utility.yul\":3977:3992   */\n      mstore\n        /* \"#utility.yul\":4015:4019   */\n      0x24\n        /* \"#utility.yul\":4012:4013   */\n      0x00\n        /* \"#utility.yul\":4005:4020   */\n      revert\n        /* \"#utility.yul\":3869:4030   */\n    tag_198:\n      pop\n        /* \"#utility.yul\":3656:4036   */\n      swap2\n      swap1\n      pop\n      jump\t// out\n        /* \"#utility.yul\":4041:4263   */\n    tag_94:\n        /* \"#utility.yul\":4106:4115   */\n      dup1\n      dup3\n      add\n        /* \"#utility.yul\":4127:4137   */\n      dup1\n      dup3\n      gt\n        /* \"#utility.yul\":4124:4257   */\n      iszero\n      tag_76\n      jumpi\n        /* \"#utility.yul\":4179:4189   */\n      0x4e487b71\n        /* \"#utility.yul\":4174:4177   */\n      0xe0\n        /* \"#utility.yul\":4170:4190   */\n      shl\n        /* \"#utility.yul\":4167:4168   */\n      0x00\n        /* \"#utility.yul\":4160:4191   */\n      mstore\n        /* \"#utility.yul\":4214:4218   */\n      0x11\n        /* \"#utility.yul\":4211:4212   */\n      0x04\n        /* \"#utility.yul\":4204:4219   */\n      mstore\n        /* \"#utility.yul\":4242:4246   */\n      0x24\n        /* \"#utility.yul\":4239:4240   */\n      0x00\n        /* \"#utility.yul\":4232:4247   */\n      revert\n        /* \"#utility.yul\":4268:4557   */\n    tag_98:\n        /* \"#utility.yul\":4443:4449   */\n      dup3\n        /* \"#utility.yul\":4432:4441   */\n      dup2\n        /* \"#utility.yul\":4425:4450   */\n      mstore\n        /* \"#utility.yul\":4486:4488   */\n      0x40\n        /* \"#utility.yul\":4481:4483   */\n      0x20\n        /* \"#utility.yul\":4470:4479   */\n      dup3\n        /* \"#utility.yul\":4466:4484   */\n      add\n        /* \"#utility.yul\":4459:4489   */\n      mstore\n        /* \"#utility.yul\":4406:4410   */\n      0x00\n        /* \"#utility.yul\":4506:4551   */\n      tag_202\n        /* \"#utility.yul\":4547:4549   */\n      0x40\n        /* \"#utility.yul\":4536:4545   */\n      dup4\n        /* \"#utility.yul\":4532:4550   */\n      add\n        /* \"#utility.yul\":4524:4530   */\n      dup5\n        /* \"#utility.yul\":4506:4551   */\n      tag_156\n      jump\t// in\n    tag_202:\n        /* \"#utility.yul\":4498:4551   */\n      swap5\n        /* \"#utility.yul\":4268:4557   */\n      swap4\n      pop\n      pop\n      pop\n      pop\n      jump\t// out\n        /* \"#utility.yul\":4562:4948   */\n    tag_101:\n        /* \"#utility.yul\":4794:4795   */\n      0x01\n        /* \"#utility.yul\":4790:4791   */\n      dup1\n        /* \"#utility.yul\":4785:4788   */\n      0xa0\n        /* \"#utility.yul\":4781:4792   */\n      shl\n        /* \"#utility.yul\":4777:4796   */\n      sub\n        /* \"#utility.yul\":4769:4775   */\n      dup5\n        /* \"#utility.yul\":4765:4797   */\n      and\n        /* \"#utility.yul\":4754:4763   */\n      dup2\n        /* \"#utility.yul\":4747:4798   */\n      mstore\n        /* \"#utility.yul\":4834:4840   */\n      dup3\n        /* \"#utility.yul\":4829:4831   */\n      0x20\n        /* \"#utility.yul\":4818:4827   */\n      dup3\n        /* \"#utility.yul\":4814:4832   */\n      add\n        /* \"#utility.yul\":4807:4841   */\n      mstore\n        /* \"#utility.yul\":4877:4879   */\n      0x60\n        /* \"#utility.yul\":4872:4874   */\n      0x40\n        /* \"#utility.yul\":4861:4870   */\n      dup3\n        /* \"#utility.yul\":4857:4875   */\n      add\n        /* \"#utility.yul\":4850:4880   */\n      mstore\n        /* \"#utility.yul\":4728:4732   */\n      0x00\n        /* \"#utility.yul\":4897:4942   */\n      tag_204\n        /* \"#utility.yul\":4938:4940   */\n      0x60\n        /* \"#utility.yul\":4927:4936   */\n      dup4\n        /* \"#utility.yul\":4923:4941   */\n      add\n        /* \"#utility.yul\":4915:4921   */\n      dup5\n        /* \"#utility.yul\":4897:4942   */\n      tag_156\n      jump\t// in\n    tag_204:\n        /* \"#utility.yul\":4889:4942   */\n      swap6\n        /* \"#utility.yul\":4562:4948   */\n      swap5\n      pop\n      pop\n      pop\n      pop\n      pop\n      jump\t// out\n\n    auxdata: 0xa26469706673582212206e4eaa87b8fcf8fa817b6644499c9000d66a3a9a645b54432efcd7797e8bcadf64736f6c63430008180033\n}\n",
				"bytecode": {
					"linkReferences": {},
					"object": "60806040523480156200001157600080fd5b5060405162000d8138038062000d81833981016040819052620000349162000126565b8181600362000044838262000221565b50600462000053828262000221565b5050505050620002ed565b634e487b7160e01b600052604160045260246000fd5b600082601f8301126200008657600080fd5b81516001600160401b0380821115620000a357620000a36200005e565b604051601f8301601f19908116603f01168101908282118183101715620000ce57620000ce6200005e565b8160405283815260209250866020858801011115620000ec57600080fd5b600091505b83821015620001105785820183015181830184015290820190620000f1565b6000602085830101528094505050505092915050565b600080604083850312156200013a57600080fd5b82516001600160401b03808211156200015257600080fd5b620001608683870162000074565b935060208501519150808211156200017757600080fd5b50620001868582860162000074565b9150509250929050565b600181811c90821680620001a557607f821691505b602082108103620001c657634e487b7160e01b600052602260045260246000fd5b50919050565b601f8211156200021c576000816000526020600020601f850160051c81016020861015620001f75750805b601f850160051c820191505b81811015620002185782815560010162000203565b5050505b505050565b81516001600160401b038111156200023d576200023d6200005e565b62000255816200024e845462000190565b84620001cc565b602080601f8311600181146200028d5760008415620002745750858301515b600019600386901b1c1916600185901b17855562000218565b600085815260208120601f198616915b82811015620002be578886015182559484019460019091019084016200029d565b5085821015620002dd5787850151600019600388901b60f8161c191681555b5050505050600190811b01905550565b610a8480620002fd6000396000f3fe608060405234801561001057600080fd5b50600436106100b45760003560e01c80634000aea0116100715780634000aea01461014157806370a082311461015457806395d89b411461017d578063a457c2d714610185578063a9059cbb14610198578063dd62ed3e146101ab57600080fd5b806306fdde03146100b9578063095ea7b3146100d757806318160ddd146100fa57806323b872dd1461010c578063313ce5671461011f578063395093511461012e575b600080fd5b6100c16101be565b6040516100ce91906107d7565b60405180910390f35b6100ea6100e536600461080d565b610250565b60405190151581526020016100ce565b6002545b6040519081526020016100ce565b6100ea61011a366004610837565b61026a565b604051601281526020016100ce565b6100ea61013c36600461080d565b61028e565b6100ea61014f366004610889565b6102b0565b6100fe610162366004610954565b6001600160a01b031660009081526020819052604090205490565b6100c1610387565b6100ea61019336600461080d565b610396565b6100ea6101a636600461080d565b610416565b6100fe6101b936600461096f565b610424565b6060600380546101cd906109a2565b80601f01602080910402602001604051908101604052809291908181526020018280546101f9906109a2565b80156102465780601f1061021b57610100808354040283529160200191610246565b820191906000526020600020905b81548152906001019060200180831161022957829003601f168201915b5050505050905090565b60003361025e81858561044f565b60019150505b92915050565b600033610278858285610573565b6102838585856105ed565b506001949350505050565b60003361025e8185856102a18383610424565b6102ab91906109dc565b61044f565b60006102bc8484610416565b50836001600160a01b0316336001600160a01b03167fe19260aff97b920c7df27010903aeb9c8d2be5d310a2c67824cf3f15396e4c1685856040516103029291906109fd565b60405180910390a36001600160a01b0384163b1561037d57604051635260769b60e11b81526001600160a01b0385169063a4c0ed369061034a90339087908790600401610a1e565b600060405180830381600087803b15801561036457600080fd5b505af1158015610378573d6000803e3d6000fd5b505050505b5060019392505050565b6060600480546101cd906109a2565b600033816103a48286610424565b9050838110156104095760405162461bcd60e51b815260206004820152602560248201527f45524332303a2064656372656173656420616c6c6f77616e63652062656c6f77604482015264207a65726f60d81b60648201526084015b60405180910390fd5b610283828686840361044f565b60003361025e8185856105ed565b6001600160a01b03918216600090815260016020908152604080832093909416825291909152205490565b6001600160a01b0383166104b15760405162461bcd60e51b8152602060048201526024808201527f45524332303a20617070726f76652066726f6d20746865207a65726f206164646044820152637265737360e01b6064820152608401610400565b6001600160a01b0382166105125760405162461bcd60e51b815260206004820152602260248201527f45524332303a20617070726f766520746f20746865207a65726f206164647265604482015261737360f01b6064820152608401610400565b6001600160a01b0383811660008181526001602090815260408083209487168084529482529182902085905590518481527f8c5be1e5ebec7d5bd14f71427d1e84f3dd0314c0f7b2291e5b200ac8c7c3b925910160405180910390a3505050565b600061057f8484610424565b905060001981146105e757818110156105da5760405162461bcd60e51b815260206004820152601d60248201527f45524332303a20696e73756666696369656e7420616c6c6f77616e63650000006044820152606401610400565b6105e7848484840361044f565b50505050565b6001600160a01b0383166106515760405162461bcd60e51b815260206004820152602560248201527f45524332303a207472616e736665722066726f6d20746865207a65726f206164604482015264647265737360d81b6064820152608401610400565b6001600160a01b0382166106b35760405162461bcd60e51b815260206004820152602360248201527f45524332303a207472616e7366657220746f20746865207a65726f206164647260448201526265737360e81b6064820152608401610400565b6001600160a01b0383166000908152602081905260409020548181101561072b5760405162461bcd60e51b815260206004820152602660248201527f45524332303a207472616e7366657220616d6f756e7420657863656564732062604482015265616c616e636560d01b6064820152608401610400565b6001600160a01b03848116600081815260208181526040808320878703905593871680835291849020805487019055925185815290927fddf252ad1be2c89b69c2b068fc378daa952ba7f163c4a11628f55a4df523b3ef910160405180910390a36105e7565b6000815180845260005b818110156107b75760208185018101518683018201520161079b565b506000602082860101526020601f19601f83011685010191505092915050565b6020815260006107ea6020830184610791565b9392505050565b80356001600160a01b038116811461080857600080fd5b919050565b6000806040838503121561082057600080fd5b610829836107f1565b946020939093013593505050565b60008060006060848603121561084c57600080fd5b610855846107f1565b9250610863602085016107f1565b9150604084013590509250925092565b634e487b7160e01b600052604160045260246000fd5b60008060006060848603121561089e57600080fd5b6108a7846107f1565b925060208401359150604084013567ffffffffffffffff808211156108cb57600080fd5b818601915086601f8301126108df57600080fd5b8135818111156108f1576108f1610873565b604051601f8201601f19908116603f0116810190838211818310171561091957610919610873565b8160405282815289602084870101111561093257600080fd5b8260208601602083013760006020848301015280955050505050509250925092565b60006020828403121561096657600080fd5b6107ea826107f1565b6000806040838503121561098257600080fd5b61098b836107f1565b9150610999602084016107f1565b90509250929050565b600181811c908216806109b657607f821691505b6020821081036109d657634e487b7160e01b600052602260045260246000fd5b50919050565b8082018082111561026457634e487b7160e01b600052601160045260246000fd5b828152604060208201526000610a166040830184610791565b949350505050565b60018060a01b0384168152826020820152606060408201526000610a456060830184610791565b9594505050505056fea26469706673582212206e4eaa87b8fcf8fa817b6644499c9000d66a3a9a645b54432efcd7797e8bcadf64736f6c63430008180033",
					"opcodes": "PUSH1 0x80 PUSH1 0x40 MSTORE CALLVALUE DUP1 ISZERO PUSH3 0x11 JUMPI PUSH1 0x0 DUP1 REVERT JUMPDEST POP PUSH1 0x40 MLOAD PUSH3 0xD81 CODESIZE SUB DUP1 PUSH3 0xD81 DUP4 CODECOPY DUP2 ADD PUSH1 0x40 DUP2 SWAP1 MSTORE PUSH3 0x34 SWAP2 PUSH3 0x126 JUMP JUMPDEST DUP2 DUP2 PUSH1 0x3 PUSH3 0x44 DUP4 DUP3 PUSH3 0x221 JUMP JUMPDEST POP PUSH1 0x4 PUSH3 0x53 DUP3 DUP3 PUSH3 0x221 JUMP JUMPDEST POP POP POP POP POP PUSH3 0x2ED JUMP JUMPDEST PUSH4 0x4E487B71 PUSH1 0xE0 SHL PUSH1 0x0 MSTORE PUSH1 0x41 PUSH1 0x4 MSTORE PUSH1 0x24 PUSH1 0x0 REVERT JUMPDEST PUSH1 0x0 DUP3 PUSH1 0x1F DUP4 ADD SLT PUSH3 0x86 JUMPI PUSH1 0x0 DUP1 REVERT JUMPDEST DUP2 MLOAD PUSH1 0x1 PUSH1 0x1 PUSH1 0x40 SHL SUB DUP1 DUP3 GT ISZERO PUSH3 0xA3 JUMPI PUSH3 0xA3 PUSH3 0x5E JUMP JUMPDEST PUSH1 0x40 MLOAD PUSH1 0x1F DUP4 ADD PUSH1 0x1F NOT SWAP1 DUP2 AND PUSH1 0x3F ADD AND DUP2 ADD SWAP1 DUP3 DUP3 GT DUP2 DUP4 LT OR ISZERO PUSH3 0xCE JUMPI PUSH3 0xCE PUSH3 0x5E JUMP JUMPDEST DUP2 PUSH1 0x40 MSTORE DUP4 DUP2 MSTORE PUSH1 0x20 SWAP3 POP DUP7 PUSH1 0x20 DUP6 DUP9 ADD ADD GT ISZERO PUSH3 0xEC JUMPI PUSH1 0x0 DUP1 REVERT JUMPDEST PUSH1 0x0 SWAP2 POP JUMPDEST DUP4 DUP3 LT ISZERO PUSH3 0x110 JUMPI DUP6 DUP3 ADD DUP4 ADD MLOAD DUP2 DUP4 ADD DUP5 ADD MSTORE SWAP1 DUP3 ADD SWAP1 PUSH3 0xF1 JUMP JUMPDEST PUSH1 0x0 PUSH1 0x20 DUP6 DUP4 ADD ADD MSTORE DUP1 SWAP5 POP POP POP POP POP SWAP3 SWAP2 POP POP JUMP JUMPDEST PUSH1 0x0 DUP1 PUSH1 0x40 DUP4 DUP6 SUB SLT ISZERO PUSH3 0x13A JUMPI PUSH1 0x0 DUP1 REVERT JUMPDEST DUP3 MLOAD PUSH1 0x1 PUSH1 0x1 PUSH1 0x40 SHL SUB DUP1 DUP3 GT ISZERO PUSH3 0x152 JUMPI PUSH1 0x0 DUP1 REVERT JUMPDEST PUSH3 0x160 DUP7 DUP4 DUP8 ADD PUSH3 0x74 JUMP JUMPDEST SWAP4 POP PUSH1 0x20 DUP6 ADD MLOAD SWAP2 POP DUP1 DUP3 GT ISZERO PUSH3 0x177 JUMPI PUSH1 0x0 DUP1 REVERT JUMPDEST POP PUSH3 0x186 DUP6 DUP3 DUP7 ADD PUSH3 0x74 JUMP JUMPDEST SWAP2 POP POP SWAP3 POP SWAP3 SWAP1 POP JUMP JUMPDEST PUSH1 0x1 DUP2 DUP2 SHR SWAP1 DUP3 AND DUP1 PUSH3 0x1A5 JUMPI PUSH1 0x7F DUP3 AND SWAP2 POP JUMPDEST PUSH1 0x20 DUP3 LT DUP2 SUB PUSH3 0x1C6 JUMPI PUSH4 0x4E487B71 PUSH1 0xE0 SHL PUSH1 0x0 MSTORE PUSH1 0x22 PUSH1 0x4 MSTORE PUSH1 0x24 PUSH1 0x0 REVERT JUMPDEST POP SWAP2 SWAP1 POP JUMP JUMPDEST PUSH1 0x1F DUP3 GT ISZERO PUSH3 0x21C JUMPI PUSH1 0x0 DUP2 PUSH1 0x0 MSTORE PUSH1 0x20 PUSH1 0x0 KECCAK256 PUSH1 0x1F DUP6 ADD PUSH1 0x5 SHR DUP2 ADD PUSH1 0x20 DUP7 LT ISZERO PUSH3 0x1F7 JUMPI POP DUP1 JUMPDEST PUSH1 0x1F DUP6 ADD PUSH1 0x5 SHR DUP3 ADD SWAP2 POP JUMPDEST DUP2 DUP2 LT ISZERO PUSH3 0x218 JUMPI DUP3 DUP2 SSTORE PUSH1 0x1 ADD PUSH3 0x203 JUMP JUMPDEST POP POP POP JUMPDEST POP POP POP JUMP JUMPDEST DUP2 MLOAD PUSH1 0x1 PUSH1 0x1 PUSH1 0x40 SHL SUB DUP2 GT ISZERO PUSH3 0x23D JUMPI PUSH3 0x23D PUSH3 0x5E JUMP JUMPDEST PUSH3 0x255 DUP2 PUSH3 0x24E DUP5 SLOAD PUSH3 0x190 JUMP JUMPDEST DUP5 PUSH3 0x1CC JUMP JUMPDEST PUSH1 0x20 DUP1 PUSH1 0x1F DUP4 GT PUSH1 0x1 DUP2 EQ PUSH3 0x28D JUMPI PUSH1 0x0 DUP5 ISZERO PUSH3 0x274 JUMPI POP DUP6 DUP4 ADD MLOAD JUMPDEST PUSH1 0x0 NOT PUSH1 0x3 DUP7 SWAP1 SHL SHR NOT AND PUSH1 0x1 DUP6 SWAP1 SHL OR DUP6 SSTORE PUSH3 0x218 JUMP JUMPDEST PUSH1 0x0 DUP6 DUP2 MSTORE PUSH1 0x20 DUP2 KECCAK256 PUSH1 0x1F NOT DUP7 AND SWAP2 JUMPDEST DUP3 DUP2 LT ISZERO PUSH3 0x2BE JUMPI DUP9 DUP7 ADD MLOAD DUP3 SSTORE SWAP5 DUP5 ADD SWAP5 PUSH1 0x1 SWAP1 SWAP2 ADD SWAP1 DUP5 ADD PUSH3 0x29D JUMP JUMPDEST POP DUP6 DUP3 LT ISZERO PUSH3 0x2DD JUMPI DUP8 DUP6 ADD MLOAD PUSH1 0x0 NOT PUSH1 0x3 DUP9 SWAP1 SHL PUSH1 0xF8 AND SHR NOT AND DUP2 SSTORE JUMPDEST POP POP POP POP POP PUSH1 0x1 SWAP1 DUP2 SHL ADD SWAP1 SSTORE POP JUMP JUMPDEST PUSH2 0xA84 DUP1 PUSH3 0x2FD PUSH1 0x0 CODECOPY PUSH1 0x0 RETURN INVALID PUSH1 0x80 PUSH1 0x40 MSTORE CALLVALUE DUP1 ISZERO PUSH2 0x10 JUMPI PUSH1 0x0 DUP1 REVERT JUMPDEST POP PUSH1 0x4 CALLDATASIZE LT PUSH2 0xB4 JUMPI PUSH1 0x0 CALLDATALOAD PUSH1 0xE0 SHR DUP1 PUSH4 0x4000AEA0 GT PUSH2 0x71 JUMPI DUP1 PUSH4 0x4000AEA0 EQ PUSH2 0x141 JUMPI DUP1 PUSH4 0x70A08231 EQ PUSH2 0x154 JUMPI DUP1 PUSH4 0x95D89B41 EQ PUSH2 0x17D JUMPI DUP1 PUSH4 0xA457C2D7 EQ PUSH2 0x185 JUMPI DUP1 PUSH4 0xA9059CBB EQ PUSH2 0x198 JUMPI DUP1 PUSH4 0xDD62ED3E EQ PUSH2 0x1AB JUMPI PUSH1 0x0 DUP1 REVERT JUMPDEST DUP1 PUSH4 0x6FDDE03 EQ PUSH2 0xB9 JUMPI DUP1 PUSH4 0x95EA7B3 EQ PUSH2 0xD7 JUMPI DUP1 PUSH4 0x18160DDD EQ PUSH2 0xFA JUMPI DUP1 PUSH4 0x23B872DD EQ PUSH2 0x10C JUMPI DUP1 PUSH4 0x313CE567 EQ PUSH2 0x11F JUMPI DUP1 PUSH4 0x39509351 EQ PUSH2 0x12E JUMPI JUMPDEST PUSH1 0x0 DUP1 REVERT JUMPDEST PUSH2 0xC1 PUSH2 0x1BE JUMP JUMPDEST PUSH1 0x40 MLOAD PUSH2 0xCE SWAP2 SWAP1 PUSH2 0x7D7 JUMP JUMPDEST PUSH1 0x40 MLOAD DUP1 SWAP2 SUB SWAP1 RETURN JUMPDEST PUSH2 0xEA PUSH2 0xE5 CALLDATASIZE PUSH1 0x4 PUSH2 0x80D JUMP JUMPDEST PUSH2 0x250 JUMP JUMPDEST PUSH1 0x40 MLOAD SWAP1 ISZERO ISZERO DUP2 MSTORE PUSH1 0x20 ADD PUSH2 0xCE JUMP JUMPDEST PUSH1 0x2 SLOAD JUMPDEST PUSH1 0x40 MLOAD SWAP1 DUP2 MSTORE PUSH1 0x20 ADD PUSH2 0xCE JUMP JUMPDEST PUSH2 0xEA PUSH2 0x11A CALLDATASIZE PUSH1 0x4 PUSH2 0x837 JUMP JUMPDEST PUSH2 0x26A JUMP JUMPDEST PUSH1 0x40 MLOAD PUSH1 0x12 DUP2 MSTORE PUSH1 0x20 ADD PUSH2 0xCE JUMP JUMPDEST PUSH2 0xEA PUSH2 0x13C CALLDATASIZE PUSH1 0x4 PUSH2 0x80D JUMP JUMPDEST PUSH2 0x28E JUMP JUMPDEST PUSH2 0xEA PUSH2 0x14F CALLDATASIZE PUSH1 0x4 PUSH2 0x889 JUMP JUMPDEST PUSH2 0x2B0 JUMP JUMPDEST PUSH2 0xFE PUSH2 0x162 CALLDATASIZE PUSH1 0x4 PUSH2 0x954 JUMP JUMPDEST PUSH1 0x1 PUSH1 0x1 PUSH1 0xA0 SHL SUB AND PUSH1 0x0 SWAP1 DUP2 MSTORE PUSH1 0x20 DUP2 SWAP1 MSTORE PUSH1 0x40 SWAP1 KECCAK256 SLOAD SWAP1 JUMP JUMPDEST PUSH2 0xC1 PUSH2 0x387 JUMP JUMPDEST PUSH2 0xEA PUSH2 0x193 CALLDATASIZE PUSH1 0x4 PUSH2 0x80D JUMP JUMPDEST PUSH2 0x396 JUMP JUMPDEST PUSH2 0xEA PUSH2 0x1A6 CALLDATASIZE PUSH1 0x4 PUSH2 0x80D JUMP JUMPDEST PUSH2 0x416 JUMP JUMPDEST PUSH2 0xFE PUSH2 0x1B9 CALLDATASIZE PUSH1 0x4 PUSH2 0x96F JUMP JUMPDEST PUSH2 0x424 JUMP JUMPDEST PUSH1 0x60 PUSH1 0x3 DUP1 SLOAD PUSH2 0x1CD SWAP1 PUSH2 0x9A2 JUMP JUMPDEST DUP1 PUSH1 0x1F ADD PUSH1 0x20 DUP1 SWAP2 DIV MUL PUSH1 0x20 ADD PUSH1 0x40 MLOAD SWAP1 DUP2 ADD PUSH1 0x40 MSTORE DUP1 SWAP3 SWAP2 SWAP1 DUP2 DUP2 MSTORE PUSH1 0x20 ADD DUP3 DUP1 SLOAD PUSH2 0x1F9 SWAP1 PUSH2 0x9A2 JUMP JUMPDEST DUP1 ISZERO PUSH2 0x246 JUMPI DUP1 PUSH1 0x1F LT PUSH2 0x21B JUMPI PUSH2 0x100 DUP1 DUP4 SLOAD DIV MUL DUP4 MSTORE SWAP2 PUSH1 0x20 ADD SWAP2 PUSH2 0x246 JUMP JUMPDEST DUP3 ADD SWAP2 SWAP1 PUSH1 0x0 MSTORE PUSH1 0x20 PUSH1 0x0 KECCAK256 SWAP1 JUMPDEST DUP2 SLOAD DUP2 MSTORE SWAP1 PUSH1 0x1 ADD SWAP1 PUSH1 0x20 ADD DUP1 DUP4 GT PUSH2 0x229 JUMPI DUP3 SWAP1 SUB PUSH1 0x1F AND DUP3 ADD SWAP2 JUMPDEST POP POP POP POP POP SWAP1 POP SWAP1 JUMP JUMPDEST PUSH1 0x0 CALLER PUSH2 0x25E DUP2 DUP6 DUP6 PUSH2 0x44F JUMP JUMPDEST PUSH1 0x1 SWAP2 POP POP JUMPDEST SWAP3 SWAP2 POP POP JUMP JUMPDEST PUSH1 0x0 CALLER PUSH2 0x278 DUP6 DUP3 DUP6 PUSH2 0x573 JUMP JUMPDEST PUSH2 0x283 DUP6 DUP6 DUP6 PUSH2 0x5ED JUMP JUMPDEST POP PUSH1 0x1 SWAP5 SWAP4 POP POP POP POP JUMP JUMPDEST PUSH1 0x0 CALLER PUSH2 0x25E DUP2 DUP6 DUP6 PUSH2 0x2A1 DUP4 DUP4 PUSH2 0x424 JUMP JUMPDEST PUSH2 0x2AB SWAP2 SWAP1 PUSH2 0x9DC JUMP JUMPDEST PUSH2 0x44F JUMP JUMPDEST PUSH1 0x0 PUSH2 0x2BC DUP5 DUP5 PUSH2 0x416 JUMP JUMPDEST POP DUP4 PUSH1 0x1 PUSH1 0x1 PUSH1 0xA0 SHL SUB AND CALLER PUSH1 0x1 PUSH1 0x1 PUSH1 0xA0 SHL SUB AND PUSH32 0xE19260AFF97B920C7DF27010903AEB9C8D2BE5D310A2C67824CF3F15396E4C16 DUP6 DUP6 PUSH1 0x40 MLOAD PUSH2 0x302 SWAP3 SWAP2 SWAP1 PUSH2 0x9FD JUMP JUMPDEST PUSH1 0x40 MLOAD DUP1 SWAP2 SUB SWAP1 LOG3 PUSH1 0x1 PUSH1 0x1 PUSH1 0xA0 SHL SUB DUP5 AND EXTCODESIZE ISZERO PUSH2 0x37D JUMPI PUSH1 0x40 MLOAD PUSH4 0x5260769B PUSH1 0xE1 SHL DUP2 MSTORE PUSH1 0x1 PUSH1 0x1 PUSH1 0xA0 SHL SUB DUP6 AND SWAP1 PUSH4 0xA4C0ED36 SWAP1 PUSH2 0x34A SWAP1 CALLER SWAP1 DUP8 SWAP1 DUP8 SWAP1 PUSH1 0x4 ADD PUSH2 0xA1E JUMP JUMPDEST PUSH1 0x0 PUSH1 0x40 MLOAD DUP1 DUP4 SUB DUP2 PUSH1 0x0 DUP8 DUP1 EXTCODESIZE ISZERO DUP1 ISZERO PUSH2 0x364 JUMPI PUSH1 0x0 DUP1 REVERT JUMPDEST POP GAS CALL ISZERO DUP1 ISZERO PUSH2 0x378 JUMPI RETURNDATASIZE PUSH1 0x0 DUP1 RETURNDATACOPY RETURNDATASIZE PUSH1 0x0 REVERT JUMPDEST POP POP POP POP JUMPDEST POP PUSH1 0x1 SWAP4 SWAP3 POP POP POP JUMP JUMPDEST PUSH1 0x60 PUSH1 0x4 DUP1 SLOAD PUSH2 0x1CD SWAP1 PUSH2 0x9A2 JUMP JUMPDEST PUSH1 0x0 CALLER DUP2 PUSH2 0x3A4 DUP3 DUP7 PUSH2 0x424 JUMP JUMPDEST SWAP1 POP DUP4 DUP2 LT ISZERO PUSH2 0x409 JUMPI PUSH1 0x40 MLOAD PUSH3 0x461BCD PUSH1 0xE5 SHL DUP2 MSTORE PUSH1 0x20 PUSH1 0x4 DUP3 ADD MSTORE PUSH1 0x25 PUSH1 0x24 DUP3 ADD MSTORE PUSH32 0x45524332303A2064656372656173656420616C6C6F77616E63652062656C6F77 PUSH1 0x44 DUP3 ADD MSTORE PUSH5 0x207A65726F PUSH1 0xD8 SHL PUSH1 0x64 DUP3 ADD MSTORE PUSH1 0x84 ADD JUMPDEST PUSH1 0x40 MLOAD DUP1 SWAP2 SUB SWAP1 REVERT JUMPDEST PUSH2 0x283 DUP3 DUP7 DUP7 DUP5 SUB PUSH2 0x44F JUMP JUMPDEST PUSH1 0x0 CALLER PUSH2 0x25E DUP2 DUP6 DUP6 PUSH2 0x5ED JUMP JUMPDEST PUSH1 0x1 PUSH1 0x1 PUSH1 0xA0 SHL SUB SWAP2 DUP3 AND PUSH1 0x0 SWAP1 DUP2 MSTORE PUSH1 0x1 PUSH1 0x20 SWAP1 DUP2 MSTORE PUSH1 0x40 DUP1 DUP4 KECCAK256 SWAP4 SWAP1 SWAP5 AND DUP3 MSTORE SWAP2 SWAP1 SWAP2 MSTORE KECCAK256 SLOAD SWAP1 JUMP JUMPDEST PUSH1 0x1 PUSH1 0x1 PUSH1 0xA0 SHL SUB DUP4 AND PUSH2 0x4B1 JUMPI PUSH1 0x40 MLOAD PUSH3 0x461BCD PUSH1 0xE5 SHL DUP2 MSTORE PUSH1 0x20 PUSH1 0x4 DUP3 ADD MSTORE PUSH1 0x24 DUP1 DUP3 ADD MSTORE PUSH32 0x45524332303A20617070726F76652066726F6D20746865207A65726F20616464 PUSH1 0x44 DUP3 ADD MSTORE PUSH4 0x72657373 PUSH1 0xE0 SHL PUSH1 0x64 DUP3 ADD MSTORE PUSH1 0x84 ADD PUSH2 0x400 JUMP JUMPDEST PUSH1 0x1 PUSH1 0x1 PUSH1 0xA0 SHL SUB DUP3 AND PUSH2 0x512 JUMPI PUSH1 0x40 MLOAD PUSH3 0x461BCD PUSH1 0xE5 SHL DUP2 MSTORE PUSH1 0x20 PUSH1 0x4 DUP3 ADD MSTORE PUSH1 0x22 PUSH1 0x24 DUP3 ADD MSTORE PUSH32 0x45524332303A20617070726F766520746F20746865207A65726F206164647265 PUSH1 0x44 DUP3 ADD MSTORE PUSH2 0x7373 PUSH1 0xF0 SHL PUSH1 0x64 DUP3 ADD MSTORE PUSH1 0x84 ADD PUSH2 0x400 JUMP JUMPDEST PUSH1 0x1 PUSH1 0x1 PUSH1 0xA0 SHL SUB DUP4 DUP2 AND PUSH1 0x0 DUP2 DUP2 MSTORE PUSH1 0x1 PUSH1 0x20 SWAP1 DUP2 MSTORE PUSH1 0x40 DUP1 DUP4 KECCAK256 SWAP5 DUP8 AND DUP1 DUP5 MSTORE SWAP5 DUP3 MSTORE SWAP2 DUP3 SWAP1 KECCAK256 DUP6 SWAP1 SSTORE SWAP1 MLOAD DUP5 DUP2 MSTORE PUSH32 0x8C5BE1E5EBEC7D5BD14F71427D1E84F3DD0314C0F7B2291E5B200AC8C7C3B925 SWAP2 ADD PUSH1 0x40 MLOAD DUP1 SWAP2 SUB SWAP1 LOG3 POP POP POP JUMP JUMPDEST PUSH1 0x0 PUSH2 0x57F DUP5 DUP5 PUSH2 0x424 JUMP JUMPDEST SWAP1 POP PUSH1 0x0 NOT DUP2 EQ PUSH2 0x5E7 JUMPI DUP2 DUP2 LT ISZERO PUSH2 0x5DA JUMPI PUSH1 0x40 MLOAD PUSH3 0x461BCD PUSH1 0xE5 SHL DUP2 MSTORE PUSH1 0x20 PUSH1 0x4 DUP3 ADD MSTORE PUSH1 0x1D PUSH1 0x24 DUP3 ADD MSTORE PUSH32 0x45524332303A20696E73756666696369656E7420616C6C6F77616E6365000000 PUSH1 0x44 DUP3 ADD MSTORE PUSH1 0x64 ADD PUSH2 0x400 JUMP JUMPDEST PUSH2 0x5E7 DUP5 DUP5 DUP5 DUP5 SUB PUSH2 0x44F JUMP JUMPDEST POP POP POP POP JUMP JUMPDEST PUSH1 0x1 PUSH1 0x1 PUSH1 0xA0 SHL SUB DUP4 AND PUSH2 0x651 JUMPI PUSH1 0x40 MLOAD PUSH3 0x461BCD PUSH1 0xE5 SHL DUP2 MSTORE PUSH1 0x20 PUSH1 0x4 DUP3 ADD MSTORE PUSH1 0x25 PUSH1 0x24 DUP3 ADD MSTORE PUSH32 0x45524332303A207472616E736665722066726F6D20746865207A65726F206164 PUSH1 0x44 DUP3 ADD MSTORE PUSH5 0x6472657373 PUSH1 0xD8 SHL PUSH1 0x64 DUP3 ADD MSTORE PUSH1 0x84 ADD PUSH2 0x400 JUMP JUMPDEST PUSH1 0x1 PUSH1 0x1 PUSH1 0xA0 SHL SUB DUP3 AND PUSH2 0x6B3 JUMPI PUSH1 0x40 MLOAD PUSH3 0x461BCD PUSH1 0xE5 SHL DUP2 MSTORE PUSH1 0x20 PUSH1 0x4 DUP3 ADD MSTORE PUSH1 0x23 PUSH1 0x24 DUP3 ADD MSTORE PUSH32 0x45524332303A207472616E7366657220746F20746865207A65726F2061646472 PUSH1 0x44 DUP3 ADD MSTORE PUSH3 0x657373 PUSH1 0xE8 SHL PUSH1 0x64 DUP3 ADD MSTORE PUSH1 0x84 ADD PUSH2 0x400 JUMP JUMPDEST PUSH1 0x1 PUSH1 0x1 PUSH1 0xA0 SHL SUB DUP4 AND PUSH1 0x0 SWAP1 DUP2 MSTORE PUSH1 0x20 DUP2 SWAP1 MSTORE PUSH1 0x40 SWAP1 KECCAK256 SLOAD DUP2 DUP2 LT ISZERO PUSH2 0x72B JUMPI PUSH1 0x40 MLOAD PUSH3 0x461BCD PUSH1 0xE5 SHL DUP2 MSTORE PUSH1 0x20 PUSH1 0x4 DUP3 ADD MSTORE PUSH1 0x26 PUSH1 0x24 DUP3 ADD MSTORE PUSH32 0x45524332303A207472616E7366657220616D6F756E7420657863656564732062 PUSH1 0x44 DUP3 ADD MSTORE PUSH6 0x616C616E6365 PUSH1 0xD0 SHL PUSH1 0x64 DUP3 ADD MSTORE PUSH1 0x84 ADD PUSH2 0x400 JUMP JUMPDEST PUSH1 0x1 PUSH1 0x1 PUSH1 0xA0 SHL SUB DUP5 DUP2 AND PUSH1 0x0 DUP2 DUP2 MSTORE PUSH1 0x20 DUP2 DUP2 MSTORE PUSH1 0x40 DUP1 DUP4 KECCAK256 DUP8 DUP8 SUB SWAP1 SSTORE SWAP4 DUP8 AND DUP1 DUP4 MSTORE SWAP2 DUP5 SWAP1 KECCAK256 DUP1 SLOAD DUP8 ADD SWAP1 SSTORE SWAP3 MLOAD DUP6 DUP2 MSTORE SWAP1 SWAP3 PUSH32 0xDDF252AD1BE2C89B69C2B068FC378DAA952BA7F163C4A11628F55A4DF523B3EF SWAP2 ADD PUSH1 0x40 MLOAD DUP1 SWAP2 SUB SWAP1 LOG3 PUSH2 0x5E7 JUMP JUMPDEST PUSH1 0x0 DUP2 MLOAD DUP1 DUP5 MSTORE PUSH1 0x0 JUMPDEST DUP2 DUP2 LT ISZERO PUSH2 0x7B7 JUMPI PUSH1 0x20 DUP2 DUP6 ADD DUP2 ADD MLOAD DUP7 DUP4 ADD DUP3 ADD MSTORE ADD PUSH2 0x79B JUMP JUMPDEST POP PUSH1 0x0 PUSH1 0x20 DUP3 DUP7 ADD ADD MSTORE PUSH1 0x20 PUSH1 0x1F NOT PUSH1 0x1F DUP4 ADD AND DUP6 ADD ADD SWAP2 POP POP SWAP3 SWAP2 POP POP JUMP JUMPDEST PUSH1 0x20 DUP2 MSTORE PUSH1 0x0 PUSH2 0x7EA PUSH1 0x20 DUP4 ADD DUP5 PUSH2 0x791 JUMP JUMPDEST SWAP4 SWAP3 POP POP POP JUMP JUMPDEST DUP1 CALLDATALOAD PUSH1 0x1 PUSH1 0x1 PUSH1 0xA0 SHL SUB DUP2 AND DUP2 EQ PUSH2 0x808 JUMPI PUSH1 0x0 DUP1 REVERT JUMPDEST SWAP2 SWAP1 POP JUMP JUMPDEST PUSH1 0x0 DUP1 PUSH1 0x40 DUP4 DUP6 SUB SLT ISZERO PUSH2 0x820 JUMPI PUSH1 0x0 DUP1 REVERT JUMPDEST PUSH2 0x829 DUP4 PUSH2 0x7F1 JUMP JUMPDEST SWAP5 PUSH1 0x20 SWAP4 SWAP1 SWAP4 ADD CALLDATALOAD SWAP4 POP POP POP JUMP JUMPDEST PUSH1 0x0 DUP1 PUSH1 0x0 PUSH1 0x60 DUP5 DUP7 SUB SLT ISZERO PUSH2 0x84C JUMPI PUSH1 0x0 DUP1 REVERT JUMPDEST PUSH2 0x855 DUP5 PUSH2 0x7F1 JUMP JUMPDEST SWAP3 POP PUSH2 0x863 PUSH1 0x20 DUP6 ADD PUSH2 0x7F1 JUMP JUMPDEST SWAP2 POP PUSH1 0x40 DUP5 ADD CALLDATALOAD SWAP1 POP SWAP3 POP SWAP3 POP SWAP3 JUMP JUMPDEST PUSH4 0x4E487B71 PUSH1 0xE0 SHL PUSH1 0x0 MSTORE PUSH1 0x41 PUSH1 0x4 MSTORE PUSH1 0x24 PUSH1 0x0 REVERT JUMPDEST PUSH1 0x0 DUP1 PUSH1 0x0 PUSH1 0x60 DUP5 DUP7 SUB SLT ISZERO PUSH2 0x89E JUMPI PUSH1 0x0 DUP1 REVERT JUMPDEST PUSH2 0x8A7 DUP5 PUSH2 0x7F1 JUMP JUMPDEST SWAP3 POP PUSH1 0x20 DUP5 ADD CALLDATALOAD SWAP2 POP PUSH1 0x40 DUP5 ADD CALLDATALOAD PUSH8 0xFFFFFFFFFFFFFFFF DUP1 DUP3 GT ISZERO PUSH2 0x8CB JUMPI PUSH1 0x0 DUP1 REVERT JUMPDEST DUP2 DUP7 ADD SWAP2 POP DUP7 PUSH1 0x1F DUP4 ADD SLT PUSH2 0x8DF JUMPI PUSH1 0x0 DUP1 REVERT JUMPDEST DUP2 CALLDATALOAD DUP2 DUP2 GT ISZERO PUSH2 0x8F1 JUMPI PUSH2 0x8F1 PUSH2 0x873 JUMP JUMPDEST PUSH1 0x40 MLOAD PUSH1 0x1F DUP3 ADD PUSH1 0x1F NOT SWAP1 DUP2 AND PUSH1 0x3F ADD AND DUP2 ADD SWAP1 DUP4 DUP3 GT DUP2 DUP4 LT OR ISZERO PUSH2 0x919 JUMPI PUSH2 0x919 PUSH2 0x873 JUMP JUMPDEST DUP2 PUSH1 0x40 MSTORE DUP3 DUP2 MSTORE DUP10 PUSH1 0x20 DUP5 DUP8 ADD ADD GT ISZERO PUSH2 0x932 JUMPI PUSH1 0x0 DUP1 REVERT JUMPDEST DUP3 PUSH1 0x20 DUP7 ADD PUSH1 0x20 DUP4 ADD CALLDATACOPY PUSH1 0x0 PUSH1 0x20 DUP5 DUP4 ADD ADD MSTORE DUP1 SWAP6 POP POP POP POP POP POP SWAP3 POP SWAP3 POP SWAP3 JUMP JUMPDEST PUSH1 0x0 PUSH1 0x20 DUP3 DUP5 SUB SLT ISZERO PUSH2 0x966 JUMPI PUSH1 0x0 DUP1 REVERT JUMPDEST PUSH2 0x7EA DUP3 PUSH2 0x7F1 JUMP JUMPDEST PUSH1 0x0 DUP1 PUSH1 0x40 DUP4 DUP6 SUB SLT ISZERO PUSH2 0x982 JUMPI PUSH1 0x0 DUP1 REVERT JUMPDEST PUSH2 0x98B DUP4 PUSH2 0x7F1 JUMP JUMPDEST SWAP2 POP PUSH2 0x999 PUSH1 0x20 DUP5 ADD PUSH2 0x7F1 JUMP JUMPDEST SWAP1 POP SWAP3 POP SWAP3 SWAP1 POP JUMP JUMPDEST PUSH1 0x1 DUP2 DUP2 SHR SWAP1 DUP3 AND DUP1 PUSH2 0x9B6 JUMPI PUSH1 0x7F DUP3 AND SWAP2 POP JUMPDEST PUSH1 0x20 DUP3 LT DUP2 SUB PUSH2 0x9D6 JUMPI PUSH4 0x4E487B71 PUSH1 0xE0 SHL PUSH1 0x0 MSTORE PUSH1 0x22 PUSH1 0x4 MSTORE PUSH1 0x24 PUSH1 0x0 REVERT JUMPDEST POP SWAP2 SWAP1 POP JUMP JUMPDEST DUP1 DUP3 ADD DUP1 DUP3 GT ISZERO PUSH2 0x264 JUMPI PUSH4 0x4E487B71 PUSH1 0xE0 SHL PUSH1 0x0 MSTORE PUSH1 0x11 PUSH1 0x4 MSTORE PUSH1 0x24 PUSH1 0x0 REVERT JUMPDEST DUP3 DUP2 MSTORE PUSH1 0x40 PUSH1 0x20 DUP3 ADD MSTORE PUSH1 0x0 PUSH2 0xA16 PUSH1 0x40 DUP4 ADD DUP5 PUSH2 0x791 JUMP JUMPDEST SWAP5 SWAP4 POP POP POP POP JUMP JUMPDEST PUSH1 0x1 DUP1 PUSH1 0xA0 SHL SUB DUP5 AND DUP2 MSTORE DUP3 PUSH1 0x20 DUP3 ADD MSTORE PUSH1 0x60 PUSH1 0x40 DUP3 ADD MSTORE PUSH1 0x0 PUSH2 0xA45 PUSH1 0x60 DUP4 ADD DUP5 PUSH2 0x791 JUMP JUMPDEST SWAP6 SWAP5 POP POP POP POP POP JUMP INVALID LOG2 PUSH5 0x6970667358 0x22 SLT KECCAK256 PUSH15 0x4EAA87B8FCF8FA817B6644499C9000 0xD6 PUSH11 0x3A9A645B54432EFCD7797E DUP12 0xCA 0xDF PUSH5 0x736F6C6343 STOP ADDMOD XOR STOP CALLER "
				},
				"gasEstimates": {
					"creation": {
						"codeDepositCost": "538400",
						"executionCost": "infinite",
						"totalCost": "infinite"
					},
					"external": {
						"allowance(address,address)": "infinite",
						"approve(address,uint256)": "24628",
						"balanceOf(address)": "2562",
						"decimals()": "266",
						"decreaseAllowance(address,uint256)": "27016",
						"increaseAllowance(address,uint256)": "infinite",
						"name()": "infinite",
						"symbol()": "infinite",
						"totalSupply()": "2326",
						"transfer(address,uint256)": "51138",
						"transferAndCall(address,uint256,bytes)": "infinite",
						"transferFrom(address,address,uint256)": "infinite"
					}
				},
				"methodIdentifiers": {
					"allowance(address,address)": "dd62ed3e",
					"approve(address,uint256)": "095ea7b3",
					"balanceOf(address)": "70a08231",
					"decimals()": "313ce567",
					"decreaseAllowance(address,uint256)": "a457c2d7",
					"increaseAllowance(address,uint256)": "39509351",
					"name()": "06fdde03",
					"symbol()": "95d89b41",
					"totalSupply()": "18160ddd",
					"transfer(address,uint256)": "a9059cbb",
					"transferAndCall(address,uint256,bytes)": "4000aea0",
					"transferFrom(address,address,uint256)": "23b872dd"
				}
			},
			"storageLayout": {
				"storage": [
					{
						"astId": 169,
						"contract": "@chainlink/contracts-ccip/src/v0.8/shared/token/ERC677/ERC677.sol:ERC677",
						"label": "_balances",
						"offset": 0,
						"slot": "0",
						"type": "t_mapping(t_address,t_uint256)"
					},
					{
						"astId": 175,
						"contract": "@chainlink/contracts-ccip/src/v0.8/shared/token/ERC677/ERC677.sol:ERC677",
						"label": "_allowances",
						"offset": 0,
						"slot": "1",
						"type": "t_mapping(t_address,t_mapping(t_address,t_uint256))"
					},
					{
						"astId": 177,
						"contract": "@chainlink/contracts-ccip/src/v0.8/shared/token/ERC677/ERC677.sol:ERC677",
						"label": "_totalSupply",
						"offset": 0,
						"slot": "2",
						"type": "t_uint256"
					},
					{
						"astId": 179,
						"contract": "@chainlink/contracts-ccip/src/v0.8/shared/token/ERC677/ERC677.sol:ERC677",
						"label": "_name",
						"offset": 0,
						"slot": "3",
						"type": "t_string_storage"
					},
					{
						"astId": 181,
						"contract": "@chainlink/contracts-ccip/src/v0.8/shared/token/ERC677/ERC677.sol:ERC677",
						"label": "_symbol",
						"offset": 0,
						"slot": "4",
						"type": "t_string_storage"
					}
				],
				"types": {
					"t_address": {
						"encoding": "inplace",
						"label": "address",
						"numberOfBytes": "20"
					},
					"t_mapping(t_address,t_mapping(t_address,t_uint256))": {
						"encoding": "mapping",
						"key": "t_address",
						"label": "mapping(address => mapping(address => uint256))",
						"numberOfBytes": "32",
						"value": "t_mapping(t_address,t_uint256)"
					},
					"t_mapping(t_address,t_uint256)": {
						"encoding": "mapping",
						"key": "t_address",
						"label": "mapping(address => uint256)",
						"numberOfBytes": "32",
						"value": "t_uint256"
					},
					"t_string_storage": {
						"encoding": "bytes",
						"label": "string",
						"numberOfBytes": "32"
					},
					"t_uint256": {
						"encoding": "inplace",
						"label": "uint256",
						"numberOfBytes": "32"
					}
				}
			},
			"userdoc": {
				"kind": "user",
				"methods": {
					"transferAndCall(address,uint256,bytes)": {
						"notice": "Transfer tokens from `msg.sender` to another address and then call `onTransferReceived` on receiver"
					}
				},
				"version": 1
			}
		}
	}
}