{
	".deps/npm/@chainlink/contracts-ccip@1.5.0/src/v0.8/ccip/libraries/Client.sol": {
		"Client": {
			"abi": [
				{
					"inputs": [],
					"name": "EVM_EXTRA_ARGS_V1_TAG",
					"outputs": [
						{
							"internalType": "bytes4",
							"name": "",
							"type": "bytes4"
						}
					],
					"stateMutability": "view",
					"type": "function"
				},
				{
					"inputs": [],
					"name": "EVM_EXTRA_ARGS_V2_TAG",
					"outputs": [
						{
							"internalType": "bytes4",
							"name": "",
							"type": "bytes4"
						}
					],
					"stateMutability": "view",
					"type": "function"
				}
			],
			"devdoc": {
				"kind": "dev",
				"methods": {},
				"version": 1
			},
			"evm": {
				"assembly": "    /* \".deps/npm/@chainlink/contracts-ccip@1.5.0/src/v0.8/ccip/libraries/Client.sol\":82:2234  library Client {... */\n  dataSize(sub_0)\n  dataOffset(sub_0)\n  0x0b\n  dup3\n  dup3\n  dup3\n  codecopy\n  dup1\n  mload\n  0x00\n  byte\n  0x73\n  eq\n  tag_1\n  jumpi\n  mstore(0x00, shl(0xe0, 0x4e487b71))\n  mstore(0x04, 0x00)\n  revert(0x00, 0x24)\ntag_1:\n  mstore(0x00, address)\n  0x73\n  dup2\n  mstore8\n  dup3\n  dup2\n  return\nstop\n\nsub_0: assembly {\n        /* \".deps/npm/@chainlink/contracts-ccip@1.5.0/src/v0.8/ccip/libraries/Client.sol\":82:2234  library Client {... */\n      eq(address, deployTimeAddress())\n      mstore(0x40, 0x80)\n      jumpi(tag_1, lt(calldatasize, 0x04))\n      shr(0xe0, calldataload(0x00))\n      dup1\n      0x3ab8c0d0\n      eq\n      tag_2\n      jumpi\n      dup1\n      0x8113c578\n      eq\n      tag_3\n      jumpi\n    tag_1:\n      0x00\n      dup1\n      revert\n        /* \".deps/npm/@chainlink/contracts-ccip@1.5.0/src/v0.8/ccip/libraries/Client.sol\":1171:1228  bytes4 public constant EVM_EXTRA_ARGS_V1_TAG = 0x97a657c9 */\n    tag_2:\n      tag_4\n      shl(0xe0, 0x97a657c9)\n      dup2\n      jump\n    tag_4:\n      mload(0x40)\n      not(sub(shl(0xe0, 0x01), 0x01))\n        /* \"#utility.yul\":184:217   */\n      swap1\n      swap2\n      and\n        /* \"#utility.yul\":166:218   */\n      dup2\n      mstore\n        /* \"#utility.yul\":154:156   */\n      0x20\n        /* \"#utility.yul\":139:157   */\n      add\n        /* \".deps/npm/@chainlink/contracts-ccip@1.5.0/src/v0.8/ccip/libraries/Client.sol\":1171:1228  bytes4 public constant EVM_EXTRA_ARGS_V1_TAG = 0x97a657c9 */\n      mload(0x40)\n      dup1\n      swap2\n      sub\n      swap1\n      return\n        /* \".deps/npm/@chainlink/contracts-ccip@1.5.0/src/v0.8/ccip/libraries/Client.sol\":1507:1564  bytes4 public constant EVM_EXTRA_ARGS_V2_TAG = 0x181dcf10 */\n    tag_3:\n      tag_4\n      shl(0xe4, 0x0181dcf1)\n      dup2\n      jump\n\n    auxdata: 0xa26469706673582212200405810fd34afff54b326aa276eff2e00372585492587d65d7e1709b8e35d7ab64736f6c63430008180033\n}\n",
				"bytecode": {
					"linkReferences": {},
					"object": "60af610039600b82828239805160001a60731461002c57634e487b7160e01b600052600060045260246000fd5b30600052607381538281f3fe7300000000000000000000000000000000000000003014608060405260043610603d5760003560e01c80633ab8c0d01460425780638113c57814606c575b600080fd5b604f6397a657c960e01b81565b6040516001600160e01b0319909116815260200160405180910390f35b604f630181dcf160e41b8156fea26469706673582212200405810fd34afff54b326aa276eff2e00372585492587d65d7e1709b8e35d7ab64736f6c63430008180033",
					"opcodes": "PUSH1 0xAF PUSH2 0x39 PUSH1 0xB DUP3 DUP3 DUP3 CODECOPY DUP1 MLOAD PUSH1 0x0 BYTE PUSH1 0x73 EQ PUSH2 0x2C JUMPI PUSH4 0x4E487B71 PUSH1 0xE0 SHL PUSH1 0x0 MSTORE PUSH1 0x0 PUSH1 0x4 MSTORE PUSH1 0x24 PUSH1 0x0 REVERT JUMPDEST ADDRESS PUSH1 0x0 MSTORE PUSH1 0x73 DUP2 MSTORE8 DUP3 DUP2 RETURN INVALID PUSH20 0x0 ADDRESS EQ PUSH1 0x80 PUSH1 0x40 MSTORE PUSH1 0x4 CALLDATASIZE LT PUSH1 0x3D JUMPI PUSH1 0x0 CALLDATALOAD PUSH1 0xE0 SHR DUP1 PUSH4 0x3AB8C0D0 EQ PUSH1 0x42 JUMPI DUP1 PUSH4 0x8113C578 EQ PUSH1 0x6C JUMPI JUMPDEST PUSH1 0x0 DUP1 REVERT JUMPDEST PUSH1 0x4F PUSH4 0x97A657C9 PUSH1 0xE0 SHL DUP2 JUMP JUMPDEST PUSH1 0x40 MLOAD PUSH1 0x1 PUSH1 0x1 PUSH1 0xE0 SHL SUB NOT SWAP1 SWAP2 AND DUP2 MSTORE PUSH1 0x20 ADD PUSH1 0x40 MLOAD DUP1 SWAP2 SUB SWAP1 RETURN JUMPDEST PUSH1 0x4F PUSH4 0x181DCF1 PUSH1 0xE4 SHL DUP2 JUMP INVALID LOG2 PUSH5 0x6970667358 0x22 SLT KECCAK256 DIV SDIV DUP2 0xF 0xD3 BLOBBASEFEE SELFDESTRUCT CREATE2 0x4B ORIGIN PUSH11 0xA276EFF2E0037258549258 PUSH30 0x65D7E1709B8E35D7AB64736F6C6343000818003300000000000000000000 "
				},
				"gasEstimates": {
					"creation": {
						"codeDepositCost": "35000",
						"executionCost": "118",
						"totalCost": "35118"
					},
					"external": {
						"EVM_EXTRA_ARGS_V1_TAG()": "175",
						"EVM_EXTRA_ARGS_V2_TAG()": "197"
					},
					"internal": {
						"_argsToBytes(struct Client.EVMExtraArgsV1 memory)": "infinite",
						"_argsToBytes(struct Client.EVMExtraArgsV2 memory)": "infinite"
					}
				},
				"methodIdentifiers": {
					"EVM_EXTRA_ARGS_V1_TAG()": "3ab8c0d0",
					"EVM_EXTRA_ARGS_V2_TAG()": "8113c578"
				}
			},
			"storageLayout": {
				"storage": [],
				"types": null
			},
			"userdoc": {
				"kind": "user",
				"methods": {},
				"version": 1
			}
		}
	}
}