{
	".deps/npm/Sender.sol": {
		"Sender": {
			"abi": [
				{
					"inputs": [
						{
							"internalType": "address",
							"name": "_router",
							"type": "address"
						},
						{
							"internalType": "address",
							"name": "_link",
							"type": "address"
						}
					],
					"stateMutability": "nonpayable",
					"type": "constructor"
				},
				{
					"inputs": [
						{
							"internalType": "uint256",
							"name": "currentBalance",
							"type": "uint256"
						},
						{
							"internalType": "uint256",
							"name": "calculatedFees",
							"type": "uint256"
						}
					],
					"name": "NotEnoughBalance",
					"type": "error"
				},
				{
					"anonymous": false,
					"inputs": [
						{
							"indexed": true,
							"internalType": "bytes32",
							"name": "messageId",
							"type": "bytes32"
						},
						{
							"indexed": true,
							"internalType": "uint64",
							"name": "destinationChainSelector",
							"type": "uint64"
						},
						{
							"indexed": false,
							"internalType": "address",
							"name": "receiver",
							"type": "address"
						},
						{
							"indexed": false,
							"internalType": "string",
							"name": "text",
							"type": "string"
						},
						{
							"indexed": false,
							"internalType": "address",
							"name": "feeToken",
							"type": "address"
						},
						{
							"indexed": false,
							"internalType": "uint256",
							"name": "fees",
							"type": "uint256"
						}
					],
					"name": "MessageSent",
					"type": "event"
				},
				{
					"anonymous": false,
					"inputs": [
						{
							"indexed": true,
							"internalType": "address",
							"name": "from",
							"type": "address"
						},
						{
							"indexed": true,
							"internalType": "address",
							"name": "to",
							"type": "address"
						}
					],
					"name": "OwnershipTransferRequested",
					"type": "event"
				},
				{
					"anonymous": false,
					"inputs": [
						{
							"indexed": true,
							"internalType": "address",
							"name": "from",
							"type": "address"
						},
						{
							"indexed": true,
							"internalType": "address",
							"name": "to",
							"type": "address"
						}
					],
					"name": "OwnershipTransferred",
					"type": "event"
				},
				{
					"inputs": [],
					"name": "acceptOwnership",
					"outputs": [],
					"stateMutability": "nonpayable",
					"type": "function"
				},
				{
					"inputs": [],
					"name": "owner",
					"outputs": [
						{
							"internalType": "address",
							"name": "",
							"type": "address"
						}
					],
					"stateMutability": "view",
					"type": "function"
				},
				{
					"inputs": [
						{
							"internalType": "uint64",
							"name": "destinationChainSelector",
							"type": "uint64"
						},
						{
							"internalType": "address",
							"name": "receiver",
							"type": "address"
						},
						{
							"internalType": "string",
							"name": "text",
							"type": "string"
						}
					],
					"name": "sendMessage",
					"outputs": [
						{
							"internalType": "bytes32",
							"name": "messageId",
							"type": "bytes32"
						}
					],
					"stateMutability": "nonpayable",
					"type": "function"
				},
				{
					"inputs": [
						{
							"internalType": "address",
							"name": "to",
							"type": "address"
						}
					],
					"name": "transferOwnership",
					"outputs": [],
					"stateMutability": "nonpayable",
					"type": "function"
				}
			],
			"devdoc": {
				"kind": "dev",
				"methods": {
					"constructor": {
						"params": {
							"_link": "The address of the link contract.",
							"_router": "The address of the router contract."
						}
					},
					"sendMessage(uint64,address,string)": {
						"details": "Assumes your contract has sufficient LINK.",
						"params": {
							"destinationChainSelector": "The identifier (aka selector) for the destination blockchain.",
							"receiver": "The address of the recipient on the destination blockchain.",
							"text": "The string text to be sent."
						},
						"returns": {
							"messageId": "The ID of the message that was sent."
						}
					}
				},
				"title": "- A simple contract for sending string data across chains.",
				"version": 1
			},
			"evm": {
				"assembly": "    /* \".deps/npm/Sender.sol\":721:4423  contract Sender is OwnerIsCreator {... */\n  mstore(0x40, 0x80)\n    /* \".deps/npm/Sender.sol\":1757:1900  constructor(address _router, address _link) {... */\n  callvalue\n  dup1\n  iszero\n  tag_1\n  jumpi\n  0x00\n  dup1\n  revert\ntag_1:\n  pop\n  mload(0x40)\n  sub(codesize, bytecodeSize)\n  dup1\n  bytecodeSize\n  dup4\n  codecopy\n  dup2\n  add\n  0x40\n  dup2\n  swap1\n  mstore\n  tag_2\n  swap2\n  tag_3\n  jump\t// in\ntag_2:\n    /* \"@chainlink/contracts-ccip@1.5.0/src/v0.8/shared/access/OwnerIsCreator.sol\":291:301  msg.sender */\n  caller\n  dup1\n    /* \"@chainlink/contracts-ccip@1.5.0/src/v0.8/shared/access/ConfirmedOwner.sol\":373:374  0 */\n  0x00\n    /* \"@chainlink/contracts-ccip@1.5.0/src/v0.8/shared/access/OwnerIsCreator.sol\":291:301  msg.sender */\n  dup2\n    /* \"@chainlink/contracts-ccip@1.5.0/src/v0.8/shared/access/ConfirmedOwnerWithProposal.sol\":590:649  require(newOwner != address(0), \"Cannot set owner to zero\") */\n  tag_9\n  jumpi\n  mload(0x40)\n  shl(0xe5, 0x461bcd)\n  dup2\n  mstore\n    /* \"#utility.yul\":696:698   */\n  0x20\n    /* \"@chainlink/contracts-ccip@1.5.0/src/v0.8/shared/access/ConfirmedOwnerWithProposal.sol\":590:649  require(newOwner != address(0), \"Cannot set owner to zero\") */\n  0x04\n  dup3\n  add\n    /* \"#utility.yul\":678:699   */\n  mstore\n    /* \"#utility.yul\":735:737   */\n  0x18\n    /* \"#utility.yul\":715:733   */\n  0x24\n  dup3\n  add\n    /* \"#utility.yul\":708:738   */\n  mstore\n    /* \"#utility.yul\":774:800   */\n  0x43616e6e6f7420736574206f776e657220746f207a65726f0000000000000000\n    /* \"#utility.yul\":754:772   */\n  0x44\n  dup3\n  add\n    /* \"#utility.yul\":747:801   */\n  mstore\n    /* \"#utility.yul\":818:836   */\n  0x64\n  add\n    /* \"@chainlink/contracts-ccip@1.5.0/src/v0.8/shared/access/ConfirmedOwnerWithProposal.sol\":590:649  require(newOwner != address(0), \"Cannot set owner to zero\") */\ntag_10:\n  mload(0x40)\n  dup1\n  swap2\n  sub\n  swap1\n  revert\ntag_9:\n    /* \"@chainlink/contracts-ccip@1.5.0/src/v0.8/shared/access/ConfirmedOwnerWithProposal.sol\":656:663  s_owner */\n  0x00\n    /* \"@chainlink/contracts-ccip@1.5.0/src/v0.8/shared/access/ConfirmedOwnerWithProposal.sol\":656:674  s_owner = newOwner */\n  dup1\n  sload\n  not(sub(shl(0xa0, 0x01), 0x01))\n  and\n  sub(shl(0xa0, 0x01), 0x01)\n  dup5\n  dup2\n  and\n  swap2\n  swap1\n  swap2\n  or\n  swap1\n  swap2\n  sstore\n    /* \"@chainlink/contracts-ccip@1.5.0/src/v0.8/shared/access/ConfirmedOwnerWithProposal.sol\":684:710  pendingOwner != address(0) */\n  dup2\n  and\n  iszero\n    /* \"@chainlink/contracts-ccip@1.5.0/src/v0.8/shared/access/ConfirmedOwnerWithProposal.sol\":680:759  if (pendingOwner != address(0)) {... */\n  tag_13\n  jumpi\n    /* \"@chainlink/contracts-ccip@1.5.0/src/v0.8/shared/access/ConfirmedOwnerWithProposal.sol\":720:752  _transferOwnership(pendingOwner) */\n  tag_13\n    /* \"@chainlink/contracts-ccip@1.5.0/src/v0.8/shared/access/ConfirmedOwnerWithProposal.sol\":739:751  pendingOwner */\n  dup2\n    /* \"@chainlink/contracts-ccip@1.5.0/src/v0.8/shared/access/ConfirmedOwnerWithProposal.sol\":720:738  _transferOwnership */\n  tag_14\n    /* \"@chainlink/contracts-ccip@1.5.0/src/v0.8/shared/access/ConfirmedOwnerWithProposal.sol\":720:752  _transferOwnership(pendingOwner) */\n  jump\t// in\ntag_13:\n  pop\n  pop\n    /* \".deps/npm/Sender.sol\":1811:1819  s_router */\n  0x02\n    /* \".deps/npm/Sender.sol\":1811:1844  s_router = IRouterClient(_router) */\n  dup1\n  sload\n  sub(shl(0xa0, 0x01), 0x01)\n  swap5\n  dup6\n  and\n  not(sub(shl(0xa0, 0x01), 0x01))\n  swap2\n  dup3\n  and\n  or\n  swap1\n  swap2\n  sstore\n    /* \".deps/npm/Sender.sol\":1854:1865  s_linkToken */\n  0x03\n    /* \".deps/npm/Sender.sol\":1854:1893  s_linkToken = LinkTokenInterface(_link) */\n  dup1\n  sload\n  swap4\n  swap1\n  swap5\n  and\n  swap3\n  and\n  swap2\n  swap1\n  swap2\n  or\n  swap1\n  swap2\n  sstore\n  pop\n    /* \".deps/npm/Sender.sol\":721:4423  contract Sender is OwnerIsCreator {... */\n  jump(tag_24)\n    /* \"@chainlink/contracts-ccip@1.5.0/src/v0.8/shared/access/ConfirmedOwnerWithProposal.sol\":1536:1775  function _transferOwnership(address to) private {... */\ntag_14:\n    /* \"@chainlink/contracts-ccip@1.5.0/src/v0.8/shared/access/ConfirmedOwnerWithProposal.sol\":1655:1665  msg.sender */\n  caller\n  sub(shl(0xa0, 0x01), 0x01)\n    /* \"@chainlink/contracts-ccip@1.5.0/src/v0.8/shared/access/ConfirmedOwnerWithProposal.sol\":1649:1665  to != msg.sender */\n  dup3\n  and\n  sub\n    /* \"@chainlink/contracts-ccip@1.5.0/src/v0.8/shared/access/ConfirmedOwnerWithProposal.sol\":1641:1693  require(to != msg.sender, \"Cannot transfer to self\") */\n  tag_20\n  jumpi\n  mload(0x40)\n  shl(0xe5, 0x461bcd)\n  dup2\n  mstore\n    /* \"#utility.yul\":1049:1051   */\n  0x20\n    /* \"@chainlink/contracts-ccip@1.5.0/src/v0.8/shared/access/ConfirmedOwnerWithProposal.sol\":1641:1693  require(to != msg.sender, \"Cannot transfer to self\") */\n  0x04\n  dup3\n  add\n    /* \"#utility.yul\":1031:1052   */\n  mstore\n    /* \"#utility.yul\":1088:1090   */\n  0x17\n    /* \"#utility.yul\":1068:1086   */\n  0x24\n  dup3\n  add\n    /* \"#utility.yul\":1061:1091   */\n  mstore\n    /* \"#utility.yul\":1127:1152   */\n  0x43616e6e6f74207472616e7366657220746f2073656c66000000000000000000\n    /* \"#utility.yul\":1107:1125   */\n  0x44\n  dup3\n  add\n    /* \"#utility.yul\":1100:1153   */\n  mstore\n    /* \"#utility.yul\":1170:1188   */\n  0x64\n  add\n    /* \"@chainlink/contracts-ccip@1.5.0/src/v0.8/shared/access/ConfirmedOwnerWithProposal.sol\":1641:1693  require(to != msg.sender, \"Cannot transfer to self\") */\n  tag_10\n    /* \"#utility.yul\":847:1194   */\n  jump\n    /* \"@chainlink/contracts-ccip@1.5.0/src/v0.8/shared/access/ConfirmedOwnerWithProposal.sol\":1641:1693  require(to != msg.sender, \"Cannot transfer to self\") */\ntag_20:\n    /* \"@chainlink/contracts-ccip@1.5.0/src/v0.8/shared/access/ConfirmedOwnerWithProposal.sol\":1700:1714  s_pendingOwner */\n  0x01\n    /* \"@chainlink/contracts-ccip@1.5.0/src/v0.8/shared/access/ConfirmedOwnerWithProposal.sol\":1700:1719  s_pendingOwner = to */\n  dup1\n  sload\n  not(sub(shl(0xa0, 0x01), 0x01))\n  and\n  sub(shl(0xa0, 0x01), 0x01)\n  dup4\n  dup2\n  and\n  swap2\n  dup3\n  or\n  swap1\n  swap3\n  sstore\n  0x00\n    /* \"@chainlink/contracts-ccip@1.5.0/src/v0.8/shared/access/ConfirmedOwnerWithProposal.sol\":1758:1765  s_owner */\n  dup1\n  sload\n    /* \"@chainlink/contracts-ccip@1.5.0/src/v0.8/shared/access/ConfirmedOwnerWithProposal.sol\":1731:1770  OwnershipTransferRequested(s_owner, to) */\n  mload(0x40)\n    /* \"@chainlink/contracts-ccip@1.5.0/src/v0.8/shared/access/ConfirmedOwnerWithProposal.sol\":1700:1719  s_pendingOwner = to */\n  swap3\n  swap4\n    /* \"@chainlink/contracts-ccip@1.5.0/src/v0.8/shared/access/ConfirmedOwnerWithProposal.sol\":1758:1765  s_owner */\n  and\n  swap2\n    /* \"@chainlink/contracts-ccip@1.5.0/src/v0.8/shared/access/ConfirmedOwnerWithProposal.sol\":1731:1770  OwnershipTransferRequested(s_owner, to) */\n  0xed8889f560326eb138920d842192f0eb3dd22b4f139c87a2c57538e05bae1278\n  swap2\n  swap1\n  log3\n    /* \"@chainlink/contracts-ccip@1.5.0/src/v0.8/shared/access/ConfirmedOwnerWithProposal.sol\":1536:1775  function _transferOwnership(address to) private {... */\n  pop\n  jump\t// out\n    /* \"#utility.yul\":14:191   */\ntag_23:\n    /* \"#utility.yul\":93:106   */\n  dup1\n  mload\n  sub(shl(0xa0, 0x01), 0x01)\n    /* \"#utility.yul\":135:166   */\n  dup2\n  and\n    /* \"#utility.yul\":125:167   */\n  dup2\n  eq\n    /* \"#utility.yul\":115:185   */\n  tag_26\n  jumpi\n    /* \"#utility.yul\":181:182   */\n  0x00\n    /* \"#utility.yul\":178:179   */\n  dup1\n    /* \"#utility.yul\":171:183   */\n  revert\n    /* \"#utility.yul\":115:185   */\ntag_26:\n    /* \"#utility.yul\":14:191   */\n  swap2\n  swap1\n  pop\n  jump\t// out\n    /* \"#utility.yul\":196:489   */\ntag_3:\n    /* \"#utility.yul\":275:281   */\n  0x00\n    /* \"#utility.yul\":283:289   */\n  dup1\n    /* \"#utility.yul\":336:338   */\n  0x40\n    /* \"#utility.yul\":324:333   */\n  dup4\n    /* \"#utility.yul\":315:322   */\n  dup6\n    /* \"#utility.yul\":311:334   */\n  sub\n    /* \"#utility.yul\":307:339   */\n  slt\n    /* \"#utility.yul\":304:356   */\n  iszero\n  tag_28\n  jumpi\n    /* \"#utility.yul\":352:353   */\n  0x00\n    /* \"#utility.yul\":349:350   */\n  dup1\n    /* \"#utility.yul\":342:354   */\n  revert\n    /* \"#utility.yul\":304:356   */\ntag_28:\n    /* \"#utility.yul\":375:415   */\n  tag_29\n    /* \"#utility.yul\":405:414   */\n  dup4\n    /* \"#utility.yul\":375:415   */\n  tag_23\n  jump\t// in\ntag_29:\n    /* \"#utility.yul\":365:415   */\n  swap2\n  pop\n    /* \"#utility.yul\":434:483   */\n  tag_30\n    /* \"#utility.yul\":479:481   */\n  0x20\n    /* \"#utility.yul\":468:477   */\n  dup5\n    /* \"#utility.yul\":464:482   */\n  add\n    /* \"#utility.yul\":434:483   */\n  tag_23\n  jump\t// in\ntag_30:\n    /* \"#utility.yul\":424:483   */\n  swap1\n  pop\n    /* \"#utility.yul\":196:489   */\n  swap3\n  pop\n  swap3\n  swap1\n  pop\n  jump\t// out\n    /* \"#utility.yul\":847:1194   */\ntag_24:\n    /* \".deps/npm/Sender.sol\":721:4423  contract Sender is OwnerIsCreator {... */\n  dataSize(sub_0)\n  dup1\n  dataOffset(sub_0)\n  0x00\n  codecopy\n  0x00\n  return\nstop\n\nsub_0: assembly {\n        /* \".deps/npm/Sender.sol\":721:4423  contract Sender is OwnerIsCreator {... */\n      mstore(0x40, 0x80)\n      callvalue\n      dup1\n      iszero\n      tag_1\n      jumpi\n      0x00\n      dup1\n      revert\n    tag_1:\n      pop\n      jumpi(tag_2, lt(calldatasize, 0x04))\n      shr(0xe0, calldataload(0x00))\n      dup1\n      0x0eb5ad45\n      eq\n      tag_3\n      jumpi\n      dup1\n      0x79ba5097\n      eq\n      tag_4\n      jumpi\n      dup1\n      0x8da5cb5b\n      eq\n      tag_5\n      jumpi\n      dup1\n      0xf2fde38b\n      eq\n      tag_6\n      jumpi\n    tag_2:\n      0x00\n      dup1\n      revert\n        /* \".deps/npm/Sender.sol\":2324:4421  function sendMessage(... */\n    tag_3:\n      tag_7\n      tag_8\n      calldatasize\n      0x04\n      tag_9\n      jump\t// in\n    tag_8:\n      tag_10\n      jump\t// in\n    tag_7:\n      mload(0x40)\n        /* \"#utility.yul\":1165:1190   */\n      swap1\n      dup2\n      mstore\n        /* \"#utility.yul\":1153:1155   */\n      0x20\n        /* \"#utility.yul\":1138:1156   */\n      add\n        /* \".deps/npm/Sender.sol\":2324:4421  function sendMessage(... */\n    tag_11:\n      mload(0x40)\n      dup1\n      swap2\n      sub\n      swap1\n      return\n        /* \"@chainlink/contracts-ccip@1.5.0/src/v0.8/shared/access/ConfirmedOwnerWithProposal.sol\":1026:1342  function acceptOwnership() external override {... */\n    tag_4:\n      tag_13\n      tag_14\n      jump\t// in\n    tag_13:\n      stop\n        /* \"@chainlink/contracts-ccip@1.5.0/src/v0.8/shared/access/ConfirmedOwnerWithProposal.sol\":1382:1463  function owner() public view override returns (address) {... */\n    tag_5:\n        /* \"@chainlink/contracts-ccip@1.5.0/src/v0.8/shared/access/ConfirmedOwnerWithProposal.sol\":1429:1436  address */\n      0x00\n        /* \"@chainlink/contracts-ccip@1.5.0/src/v0.8/shared/access/ConfirmedOwnerWithProposal.sol\":1451:1458  s_owner */\n      sload\n        /* \"@chainlink/contracts-ccip@1.5.0/src/v0.8/shared/access/ConfirmedOwnerWithProposal.sol\":1382:1463  function owner() public view override returns (address) {... */\n      mload(0x40)\n      sub(shl(0xa0, 0x01), 0x01)\n        /* \"@chainlink/contracts-ccip@1.5.0/src/v0.8/shared/access/ConfirmedOwnerWithProposal.sol\":1451:1458  s_owner */\n      swap1\n      swap2\n      and\n        /* \"#utility.yul\":1456:1507   */\n      dup2\n      mstore\n        /* \"#utility.yul\":1444:1446   */\n      0x20\n        /* \"#utility.yul\":1429:1447   */\n      add\n        /* \"@chainlink/contracts-ccip@1.5.0/src/v0.8/shared/access/ConfirmedOwnerWithProposal.sol\":1382:1463  function owner() public view override returns (address) {... */\n      tag_11\n        /* \"#utility.yul\":1310:1513   */\n      jump\n        /* \"@chainlink/contracts-ccip@1.5.0/src/v0.8/shared/access/ConfirmedOwnerWithProposal.sol\":847:945  function transferOwnership(address to) public override onlyOwner {... */\n    tag_6:\n      tag_13\n      tag_20\n      calldatasize\n      0x04\n      tag_21\n      jump\t// in\n    tag_20:\n      tag_22\n      jump\t// in\n        /* \".deps/npm/Sender.sol\":2324:4421  function sendMessage(... */\n    tag_10:\n        /* \".deps/npm/Sender.sol\":2476:2493  bytes32 messageId */\n      0x00\n        /* \"@chainlink/contracts-ccip@1.5.0/src/v0.8/shared/access/ConfirmedOwnerWithProposal.sol\":2075:2095  _validateOwnership() */\n      tag_24\n        /* \"@chainlink/contracts-ccip@1.5.0/src/v0.8/shared/access/ConfirmedOwnerWithProposal.sol\":2075:2093  _validateOwnership */\n      tag_25\n        /* \"@chainlink/contracts-ccip@1.5.0/src/v0.8/shared/access/ConfirmedOwnerWithProposal.sol\":2075:2095  _validateOwnership() */\n      jump\t// in\n    tag_24:\n        /* \".deps/npm/Sender.sol\":2665:3485  Client.EVM2AnyMessage({... */\n      0x40\n      dup1\n      mload\n      0xa0\n      dup2\n      add\n      swap1\n      swap2\n      mstore\n      sub(shl(0xa0, 0x01), 0x01)\n        /* \"#utility.yul\":1474:1506   */\n      dup6\n      and\n        /* \".deps/npm/Sender.sol\":2711:2731  abi.encode(receiver) */\n      0xc0\n      dup3\n      add\n        /* \"#utility.yul\":1456:1507   */\n      mstore\n        /* \".deps/npm/Sender.sol\":2619:2662  Client.EVM2AnyMessage memory evm2AnyMessage */\n      0x00\n      swap1\n        /* \".deps/npm/Sender.sol\":2665:3485  Client.EVM2AnyMessage({... */\n      dup1\n        /* \"#utility.yul\":1429:1447   */\n      0xe0\n      dup2\n      add\n        /* \".deps/npm/Sender.sol\":2711:2731  abi.encode(receiver) */\n      mload(0x40)\n      0x20\n      dup2\n      dup4\n      sub\n      sub\n      dup2\n      mstore\n      swap1\n      0x40\n      mstore\n        /* \".deps/npm/Sender.sol\":2665:3485  Client.EVM2AnyMessage({... */\n      dup2\n      mstore\n      0x20\n      add\n        /* \".deps/npm/Sender.sol\":2794:2798  text */\n      dup6\n      dup6\n        /* \".deps/npm/Sender.sol\":2783:2799  abi.encode(text) */\n      add(0x20, mload(0x40))\n      tag_28\n      swap3\n      swap2\n      swap1\n      tag_29\n      jump\t// in\n    tag_28:\n      0x40\n      dup1\n      mload\n      not(0x1f)\n      dup2\n      dup5\n      sub\n      add\n      dup2\n      mstore\n      swap2\n      swap1\n      mstore\n        /* \".deps/npm/Sender.sol\":2665:3485  Client.EVM2AnyMessage({... */\n      dup2\n      mstore\n        /* \".deps/npm/Sender.sol\":2783:2799  abi.encode(text) */\n      0x20\n        /* \".deps/npm/Sender.sol\":2665:3485  Client.EVM2AnyMessage({... */\n      add\n        /* \".deps/npm/Sender.sol\":2877:2878  0 */\n      0x00\n        /* \".deps/npm/Sender.sol\":2849:2879  new Client.EVMTokenAmount[](0) */\n      mload(0x40)\n      swap1\n      dup1\n      dup3\n      mstore\n      dup1\n      0x20\n      mul\n      0x20\n      add\n      dup3\n      add\n      0x40\n      mstore\n      dup1\n      iszero\n      tag_33\n      jumpi\n      dup2\n      0x20\n      add\n    tag_34:\n      0x40\n      dup1\n      mload\n      dup1\n      dup3\n      add\n      swap1\n      swap2\n      mstore\n      0x00\n      dup1\n      dup3\n      mstore\n      0x20\n      dup3\n      add\n      mstore\n      dup2\n      mstore\n      0x20\n      add\n      swap1\n      0x01\n      swap1\n      sub\n      swap1\n      dup2\n      tag_34\n      jumpi\n      swap1\n      pop\n    tag_33:\n      pop\n        /* \".deps/npm/Sender.sol\":2665:3485  Client.EVM2AnyMessage({... */\n      dup2\n      mstore\n        /* \".deps/npm/Sender.sol\":3462:3473  s_linkToken */\n      and(sub(shl(0xa0, 0x01), 0x01), sload(0x03))\n        /* \".deps/npm/Sender.sol\":2665:3485  Client.EVM2AnyMessage({... */\n      0x20\n      dup1\n      dup4\n      add\n      swap2\n      swap1\n      swap2\n      mstore\n      0x40\n        /* \".deps/npm/Sender.sol\":3051:3336  Client.EVMExtraArgsV2({... */\n      dup1\n      mload\n      dup1\n      dup3\n      add\n      dup3\n      mstore\n        /* \".deps/npm/Sender.sol\":3105:3112  200_000 */\n      0x030d40\n        /* \".deps/npm/Sender.sol\":3051:3336  Client.EVMExtraArgsV2({... */\n      dup1\n      dup3\n      mstore\n        /* \".deps/npm/Sender.sol\":3462:3473  s_linkToken */\n      0x01\n        /* \".deps/npm/Sender.sol\":3051:3336  Client.EVMExtraArgsV2({... */\n      swap2\n      dup5\n      add\n      swap2\n      dup3\n      mstore\n        /* \"@chainlink/contracts-ccip@1.5.0/src/v0.8/ccip/libraries/Client.sol\":2171:2227  abi.encodeWithSelector(EVM_EXTRA_ARGS_V2_TAG, extraArgs) */\n      dup3\n      mload\n      0x24\n      dup2\n      add\n        /* \"#utility.yul\":7025:7057   */\n      swap2\n      swap1\n      swap2\n      mstore\n        /* \"#utility.yul\":7109:7133   */\n      swap1\n      mload\n        /* \"#utility.yul\":7102:7134   */\n      iszero\n        /* \"#utility.yul\":7095:7135   */\n      iszero\n        /* \"#utility.yul\":7073:7093   */\n      0x44\n      dup1\n      dup4\n      add\n        /* \"#utility.yul\":7066:7136   */\n      swap2\n      swap1\n      swap2\n      mstore\n        /* \"@chainlink/contracts-ccip@1.5.0/src/v0.8/ccip/libraries/Client.sol\":2171:2227  abi.encodeWithSelector(EVM_EXTRA_ARGS_V2_TAG, extraArgs) */\n      dup3\n      mload\n      dup1\n      dup4\n      sub\n      swap1\n      swap2\n      add\n      dup2\n      mstore\n        /* \"#utility.yul\":6998:7016   */\n      0x64\n      swap1\n      swap2\n      add\n        /* \"@chainlink/contracts-ccip@1.5.0/src/v0.8/ccip/libraries/Client.sol\":2171:2227  abi.encodeWithSelector(EVM_EXTRA_ARGS_V2_TAG, extraArgs) */\n      dup3\n      mstore\n      swap2\n      dup3\n      add\n      dup1\n      mload\n      sub(shl(0xe0, 0x01), 0x01)\n      and\n      shl(0xe4, 0x0181dcf1)\n      or\n      swap1\n      mstore\n        /* \".deps/npm/Sender.sol\":2665:3485  Client.EVM2AnyMessage({... */\n      swap1\n      swap2\n      add\n      mstore\n        /* \".deps/npm/Sender.sol\":3563:3571  s_router */\n      sload(0x02)\n        /* \".deps/npm/Sender.sol\":3563:3654  s_router.getFee(... */\n      mload(0x40)\n      shl(0xe0, 0x20487ded)\n      dup2\n      mstore\n        /* \".deps/npm/Sender.sol\":2619:3485  Client.EVM2AnyMessage memory evm2AnyMessage = Client.EVM2AnyMessage({... */\n      swap2\n      swap3\n      pop\n        /* \".deps/npm/Sender.sol\":3548:3560  uint256 fees */\n      0x00\n      swap2\n      sub(shl(0xa0, 0x01), 0x01)\n        /* \".deps/npm/Sender.sol\":3563:3571  s_router */\n      swap1\n      swap2\n      and\n      swap1\n        /* \".deps/npm/Sender.sol\":3563:3578  s_router.getFee */\n      0x20487ded\n      swap1\n        /* \".deps/npm/Sender.sol\":3563:3654  s_router.getFee(... */\n      tag_39\n      swap1\n        /* \".deps/npm/Sender.sol\":3592:3616  destinationChainSelector */\n      dup11\n      swap1\n        /* \".deps/npm/Sender.sol\":2619:3485  Client.EVM2AnyMessage memory evm2AnyMessage = Client.EVM2AnyMessage({... */\n      dup7\n      swap1\n        /* \".deps/npm/Sender.sol\":3563:3654  s_router.getFee(... */\n      0x04\n      add\n      tag_40\n      jump\t// in\n    tag_39:\n      0x20\n      mload(0x40)\n      dup1\n      dup4\n      sub\n      dup2\n      dup7\n      gas\n      staticcall\n      iszero\n      dup1\n      iszero\n      tag_42\n      jumpi\n      returndatasize\n      0x00\n      dup1\n      returndatacopy\n      revert(0x00, returndatasize)\n    tag_42:\n      pop\n      pop\n      pop\n      pop\n      mload(0x40)\n      returndatasize\n      not(0x1f)\n      0x1f\n      dup3\n      add\n      and\n      dup3\n      add\n      dup1\n      0x40\n      mstore\n      pop\n      dup2\n      add\n      swap1\n      tag_43\n      swap2\n      swap1\n      tag_44\n      jump\t// in\n    tag_43:\n        /* \".deps/npm/Sender.sol\":3676:3687  s_linkToken */\n      sload(0x03)\n        /* \".deps/npm/Sender.sol\":3676:3712  s_linkToken.balanceOf(address(this)) */\n      mload(0x40)\n      shl(0xe0, 0x70a08231)\n      dup2\n      mstore\n        /* \".deps/npm/Sender.sol\":3706:3710  this */\n      address\n        /* \".deps/npm/Sender.sol\":3676:3712  s_linkToken.balanceOf(address(this)) */\n      0x04\n      dup3\n      add\n        /* \"#utility.yul\":1456:1507   */\n      mstore\n        /* \".deps/npm/Sender.sol\":3548:3654  uint256 fees = s_router.getFee(... */\n      swap2\n      swap3\n      pop\n      sub(shl(0xa0, 0x01), 0x01)\n        /* \".deps/npm/Sender.sol\":3676:3687  s_linkToken */\n      and\n      swap1\n        /* \".deps/npm/Sender.sol\":3676:3697  s_linkToken.balanceOf */\n      0x70a08231\n      swap1\n        /* \"#utility.yul\":1429:1447   */\n      0x24\n      add\n        /* \".deps/npm/Sender.sol\":3676:3712  s_linkToken.balanceOf(address(this)) */\n      0x20\n      mload(0x40)\n      dup1\n      dup4\n      sub\n      dup2\n      dup7\n      gas\n      staticcall\n      iszero\n      dup1\n      iszero\n      tag_47\n      jumpi\n      returndatasize\n      0x00\n      dup1\n      returndatacopy\n      revert(0x00, returndatasize)\n    tag_47:\n      pop\n      pop\n      pop\n      pop\n      mload(0x40)\n      returndatasize\n      not(0x1f)\n      0x1f\n      dup3\n      add\n      and\n      dup3\n      add\n      dup1\n      0x40\n      mstore\n      pop\n      dup2\n      add\n      swap1\n      tag_48\n      swap2\n      swap1\n      tag_44\n      jump\t// in\n    tag_48:\n        /* \".deps/npm/Sender.sol\":3669:3673  fees */\n      dup2\n        /* \".deps/npm/Sender.sol\":3669:3712  fees > s_linkToken.balanceOf(address(this)) */\n      gt\n        /* \".deps/npm/Sender.sol\":3665:3793  if (fees > s_linkToken.balanceOf(address(this)))... */\n      iszero\n      tag_49\n      jumpi\n        /* \".deps/npm/Sender.sol\":3750:3761  s_linkToken */\n      sload(0x03)\n        /* \".deps/npm/Sender.sol\":3750:3786  s_linkToken.balanceOf(address(this)) */\n      mload(0x40)\n      shl(0xe0, 0x70a08231)\n      dup2\n      mstore\n        /* \".deps/npm/Sender.sol\":3780:3784  this */\n      address\n        /* \".deps/npm/Sender.sol\":3750:3786  s_linkToken.balanceOf(address(this)) */\n      0x04\n      dup3\n      add\n        /* \"#utility.yul\":1456:1507   */\n      mstore\n      sub(shl(0xa0, 0x01), 0x01)\n        /* \".deps/npm/Sender.sol\":3750:3761  s_linkToken */\n      swap1\n      swap2\n      and\n      swap1\n        /* \".deps/npm/Sender.sol\":3750:3771  s_linkToken.balanceOf */\n      0x70a08231\n      swap1\n        /* \"#utility.yul\":1429:1447   */\n      0x24\n      add\n        /* \".deps/npm/Sender.sol\":3750:3786  s_linkToken.balanceOf(address(this)) */\n      0x20\n      mload(0x40)\n      dup1\n      dup4\n      sub\n      dup2\n      dup7\n      gas\n      staticcall\n      iszero\n      dup1\n      iszero\n      tag_52\n      jumpi\n      returndatasize\n      0x00\n      dup1\n      returndatacopy\n      revert(0x00, returndatasize)\n    tag_52:\n      pop\n      pop\n      pop\n      pop\n      mload(0x40)\n      returndatasize\n      not(0x1f)\n      0x1f\n      dup3\n      add\n      and\n      dup3\n      add\n      dup1\n      0x40\n      mstore\n      pop\n      dup2\n      add\n      swap1\n      tag_53\n      swap2\n      swap1\n      tag_44\n      jump\t// in\n    tag_53:\n        /* \".deps/npm/Sender.sol\":3733:3793  NotEnoughBalance(s_linkToken.balanceOf(address(this)), fees) */\n      mload(0x40)\n      shl(0xe1, 0x4787a103)\n      dup2\n      mstore\n      0x04\n      dup2\n      add\n        /* \"#utility.yul\":4763:4788   */\n      swap2\n      swap1\n      swap2\n      mstore\n        /* \"#utility.yul\":4804:4822   */\n      0x24\n      dup2\n      add\n        /* \"#utility.yul\":4797:4831   */\n      dup3\n      swap1\n      mstore\n        /* \"#utility.yul\":4736:4754   */\n      0x44\n      add\n        /* \".deps/npm/Sender.sol\":3733:3793  NotEnoughBalance(s_linkToken.balanceOf(address(this)), fees) */\n    tag_54:\n      mload(0x40)\n      dup1\n      swap2\n      sub\n      swap1\n      revert\n        /* \".deps/npm/Sender.sol\":3665:3793  if (fees > s_linkToken.balanceOf(address(this)))... */\n    tag_49:\n        /* \".deps/npm/Sender.sol\":3911:3922  s_linkToken */\n      sload(0x03)\n        /* \".deps/npm/Sender.sol\":3939:3947  s_router */\n      sload(0x02)\n        /* \".deps/npm/Sender.sol\":3911:3955  s_linkToken.approve(address(s_router), fees) */\n      mload(0x40)\n      shl(0xe0, 0x095ea7b3)\n      dup2\n      mstore\n      sub(shl(0xa0, 0x01), 0x01)\n        /* \".deps/npm/Sender.sol\":3939:3947  s_router */\n      swap2\n      dup3\n      and\n        /* \".deps/npm/Sender.sol\":3911:3955  s_linkToken.approve(address(s_router), fees) */\n      0x04\n      dup3\n      add\n        /* \"#utility.yul\":5016:5067   */\n      mstore\n        /* \"#utility.yul\":5083:5101   */\n      0x24\n      dup2\n      add\n        /* \"#utility.yul\":5076:5110   */\n      dup5\n      swap1\n      mstore\n        /* \".deps/npm/Sender.sol\":3911:3922  s_linkToken */\n      swap2\n      and\n      swap1\n        /* \".deps/npm/Sender.sol\":3911:3930  s_linkToken.approve */\n      0x095ea7b3\n      swap1\n        /* \"#utility.yul\":4989:5007   */\n      0x44\n      add\n        /* \".deps/npm/Sender.sol\":3911:3955  s_linkToken.approve(address(s_router), fees) */\n      0x20\n      mload(0x40)\n      dup1\n      dup4\n      sub\n      dup2\n      0x00\n      dup8\n      gas\n      call\n      iszero\n      dup1\n      iszero\n      tag_59\n      jumpi\n      returndatasize\n      0x00\n      dup1\n      returndatacopy\n      revert(0x00, returndatasize)\n    tag_59:\n      pop\n      pop\n      pop\n      pop\n      mload(0x40)\n      returndatasize\n      not(0x1f)\n      0x1f\n      dup3\n      add\n      and\n      dup3\n      add\n      dup1\n      0x40\n      mstore\n      pop\n      dup2\n      add\n      swap1\n      tag_60\n      swap2\n      swap1\n      tag_61\n      jump\t// in\n    tag_60:\n      pop\n        /* \".deps/npm/Sender.sol\":4059:4067  s_router */\n      sload(0x02)\n        /* \".deps/npm/Sender.sol\":4059:4118  s_router.ccipSend(destinationChainSelector, evm2AnyMessage) */\n      mload(0x40)\n      shl(0xe0, 0x96f4e9f9)\n      dup2\n      mstore\n      sub(shl(0xa0, 0x01), 0x01)\n        /* \".deps/npm/Sender.sol\":4059:4067  s_router */\n      swap1\n      swap2\n      and\n      swap1\n        /* \".deps/npm/Sender.sol\":4059:4076  s_router.ccipSend */\n      0x96f4e9f9\n      swap1\n        /* \".deps/npm/Sender.sol\":4059:4118  s_router.ccipSend(destinationChainSelector, evm2AnyMessage) */\n      tag_62\n      swap1\n        /* \".deps/npm/Sender.sol\":4077:4101  destinationChainSelector */\n      dup11\n      swap1\n        /* \".deps/npm/Sender.sol\":4103:4117  evm2AnyMessage */\n      dup7\n      swap1\n        /* \".deps/npm/Sender.sol\":4059:4118  s_router.ccipSend(destinationChainSelector, evm2AnyMessage) */\n      0x04\n      add\n      tag_40\n      jump\t// in\n    tag_62:\n      0x20\n      mload(0x40)\n      dup1\n      dup4\n      sub\n      dup2\n      0x00\n      dup8\n      gas\n      call\n      iszero\n      dup1\n      iszero\n      tag_64\n      jumpi\n      returndatasize\n      0x00\n      dup1\n      returndatacopy\n      revert(0x00, returndatasize)\n    tag_64:\n      pop\n      pop\n      pop\n      pop\n      mload(0x40)\n      returndatasize\n      not(0x1f)\n      0x1f\n      dup3\n      add\n      and\n      dup3\n      add\n      dup1\n      0x40\n      mstore\n      pop\n      dup2\n      add\n      swap1\n      tag_65\n      swap2\n      swap1\n      tag_44\n      jump\t// in\n    tag_65:\n        /* \".deps/npm/Sender.sol\":4314:4325  s_linkToken */\n      sload(0x03)\n        /* \".deps/npm/Sender.sol\":4180:4354  MessageSent(... */\n      mload(0x40)\n        /* \".deps/npm/Sender.sol\":4047:4118  messageId = s_router.ccipSend(destinationChainSelector, evm2AnyMessage) */\n      swap2\n      swap5\n      pop\n        /* \".deps/npm/Sender.sol\":4180:4354  MessageSent(... */\n      0xffffffffffffffff\n      dup10\n      and\n      swap2\n        /* \".deps/npm/Sender.sol\":4047:4118  messageId = s_router.ccipSend(destinationChainSelector, evm2AnyMessage) */\n      dup6\n      swap2\n        /* \".deps/npm/Sender.sol\":4180:4354  MessageSent(... */\n      0xd36445359b3c6e26c120659aef090ce0f2eb005cf9af450d11aa1225609b4f4d\n      swap2\n      tag_67\n      swap2\n        /* \".deps/npm/Sender.sol\":4266:4274  receiver */\n      dup12\n      swap2\n        /* \".deps/npm/Sender.sol\":4288:4292  text */\n      dup12\n      swap2\n      dup12\n      swap2\n      sub(shl(0xa0, 0x01), 0x01)\n        /* \".deps/npm/Sender.sol\":4314:4325  s_linkToken */\n      swap1\n      swap2\n      and\n      swap1\n        /* \".deps/npm/Sender.sol\":4340:4344  fees */\n      dup10\n      swap1\n        /* \".deps/npm/Sender.sol\":4180:4354  MessageSent(... */\n      tag_68\n      jump\t// in\n    tag_67:\n      mload(0x40)\n      dup1\n      swap2\n      sub\n      swap1\n      log3\n        /* \".deps/npm/Sender.sol\":4398:4414  return messageId */\n      pop\n      pop\n        /* \".deps/npm/Sender.sol\":2324:4421  function sendMessage(... */\n      swap5\n      swap4\n      pop\n      pop\n      pop\n      pop\n      jump\t// out\n        /* \"@chainlink/contracts-ccip@1.5.0/src/v0.8/shared/access/ConfirmedOwnerWithProposal.sol\":1026:1342  function acceptOwnership() external override {... */\n    tag_14:\n        /* \"@chainlink/contracts-ccip@1.5.0/src/v0.8/shared/access/ConfirmedOwnerWithProposal.sol\":1150:1164  s_pendingOwner */\n      and(sub(shl(0xa0, 0x01), 0x01), sload(0x01))\n        /* \"@chainlink/contracts-ccip@1.5.0/src/v0.8/shared/access/ConfirmedOwnerWithProposal.sol\":1136:1146  msg.sender */\n      caller\n        /* \"@chainlink/contracts-ccip@1.5.0/src/v0.8/shared/access/ConfirmedOwnerWithProposal.sol\":1136:1164  msg.sender == s_pendingOwner */\n      eq\n        /* \"@chainlink/contracts-ccip@1.5.0/src/v0.8/shared/access/ConfirmedOwnerWithProposal.sol\":1128:1191  require(msg.sender == s_pendingOwner, \"Must be proposed owner\") */\n      tag_70\n      jumpi\n      mload(0x40)\n      shl(0xe5, 0x461bcd)\n      dup2\n      mstore\n        /* \"#utility.yul\":6317:6319   */\n      0x20\n        /* \"@chainlink/contracts-ccip@1.5.0/src/v0.8/shared/access/ConfirmedOwnerWithProposal.sol\":1128:1191  require(msg.sender == s_pendingOwner, \"Must be proposed owner\") */\n      0x04\n      dup3\n      add\n        /* \"#utility.yul\":6299:6320   */\n      mstore\n        /* \"#utility.yul\":6356:6358   */\n      0x16\n        /* \"#utility.yul\":6336:6354   */\n      0x24\n      dup3\n      add\n        /* \"#utility.yul\":6329:6359   */\n      mstore\n      shl(0x51, 0x26bab9ba10313290383937b837b9b2b21037bbb732b9)\n        /* \"#utility.yul\":6375:6393   */\n      0x44\n      dup3\n      add\n        /* \"#utility.yul\":6368:6420   */\n      mstore\n        /* \"#utility.yul\":6437:6455   */\n      0x64\n      add\n        /* \"@chainlink/contracts-ccip@1.5.0/src/v0.8/shared/access/ConfirmedOwnerWithProposal.sol\":1128:1191  require(msg.sender == s_pendingOwner, \"Must be proposed owner\") */\n      tag_54\n        /* \"#utility.yul\":6115:6461   */\n      jump\n        /* \"@chainlink/contracts-ccip@1.5.0/src/v0.8/shared/access/ConfirmedOwnerWithProposal.sol\":1128:1191  require(msg.sender == s_pendingOwner, \"Must be proposed owner\") */\n    tag_70:\n        /* \"@chainlink/contracts-ccip@1.5.0/src/v0.8/shared/access/ConfirmedOwnerWithProposal.sol\":1198:1214  address oldOwner */\n      0x00\n        /* \"@chainlink/contracts-ccip@1.5.0/src/v0.8/shared/access/ConfirmedOwnerWithProposal.sol\":1217:1224  s_owner */\n      dup1\n      sload\n        /* \"@chainlink/contracts-ccip@1.5.0/src/v0.8/shared/access/ConfirmedOwnerWithProposal.sol\":1240:1250  msg.sender */\n      caller\n      not(sub(shl(0xa0, 0x01), 0x01))\n        /* \"@chainlink/contracts-ccip@1.5.0/src/v0.8/shared/access/ConfirmedOwnerWithProposal.sol\":1230:1250  s_owner = msg.sender */\n      dup1\n      dup4\n      and\n      dup3\n      or\n      dup5\n      sstore\n      0x01\n        /* \"@chainlink/contracts-ccip@1.5.0/src/v0.8/shared/access/ConfirmedOwnerWithProposal.sol\":1256:1283  s_pendingOwner = address(0) */\n      dup1\n      sload\n      swap1\n      swap2\n      and\n      swap1\n      sstore\n        /* \"@chainlink/contracts-ccip@1.5.0/src/v0.8/shared/access/ConfirmedOwnerWithProposal.sol\":1295:1337  OwnershipTransferred(oldOwner, msg.sender) */\n      mload(0x40)\n      sub(shl(0xa0, 0x01), 0x01)\n        /* \"@chainlink/contracts-ccip@1.5.0/src/v0.8/shared/access/ConfirmedOwnerWithProposal.sol\":1217:1224  s_owner */\n      swap1\n      swap3\n      and\n      swap3\n        /* \"@chainlink/contracts-ccip@1.5.0/src/v0.8/shared/access/ConfirmedOwnerWithProposal.sol\":1240:1250  msg.sender */\n      swap1\n      swap2\n        /* \"@chainlink/contracts-ccip@1.5.0/src/v0.8/shared/access/ConfirmedOwnerWithProposal.sol\":1217:1224  s_owner */\n      dup4\n      swap2\n        /* \"@chainlink/contracts-ccip@1.5.0/src/v0.8/shared/access/ConfirmedOwnerWithProposal.sol\":1295:1337  OwnershipTransferred(oldOwner, msg.sender) */\n      0x8be0079c531659141344cd1fd0a4f28419497f9722a3daafe3b4186f6b6457e0\n      swap2\n      log3\n        /* \"@chainlink/contracts-ccip@1.5.0/src/v0.8/shared/access/ConfirmedOwnerWithProposal.sol\":1071:1342  {... */\n      pop\n        /* \"@chainlink/contracts-ccip@1.5.0/src/v0.8/shared/access/ConfirmedOwnerWithProposal.sol\":1026:1342  function acceptOwnership() external override {... */\n      jump\t// out\n        /* \"@chainlink/contracts-ccip@1.5.0/src/v0.8/shared/access/ConfirmedOwnerWithProposal.sol\":847:945  function transferOwnership(address to) public override onlyOwner {... */\n    tag_22:\n        /* \"@chainlink/contracts-ccip@1.5.0/src/v0.8/shared/access/ConfirmedOwnerWithProposal.sol\":2075:2095  _validateOwnership() */\n      tag_75\n        /* \"@chainlink/contracts-ccip@1.5.0/src/v0.8/shared/access/ConfirmedOwnerWithProposal.sol\":2075:2093  _validateOwnership */\n      tag_25\n        /* \"@chainlink/contracts-ccip@1.5.0/src/v0.8/shared/access/ConfirmedOwnerWithProposal.sol\":2075:2095  _validateOwnership() */\n      jump\t// in\n    tag_75:\n        /* \"@chainlink/contracts-ccip@1.5.0/src/v0.8/shared/access/ConfirmedOwnerWithProposal.sol\":918:940  _transferOwnership(to) */\n      tag_77\n        /* \"@chainlink/contracts-ccip@1.5.0/src/v0.8/shared/access/ConfirmedOwnerWithProposal.sol\":937:939  to */\n      dup2\n        /* \"@chainlink/contracts-ccip@1.5.0/src/v0.8/shared/access/ConfirmedOwnerWithProposal.sol\":918:936  _transferOwnership */\n      tag_78\n        /* \"@chainlink/contracts-ccip@1.5.0/src/v0.8/shared/access/ConfirmedOwnerWithProposal.sol\":918:940  _transferOwnership(to) */\n      jump\t// in\n    tag_77:\n        /* \"@chainlink/contracts-ccip@1.5.0/src/v0.8/shared/access/ConfirmedOwnerWithProposal.sol\":847:945  function transferOwnership(address to) public override onlyOwner {... */\n      pop\n      jump\t// out\n        /* \"@chainlink/contracts-ccip@1.5.0/src/v0.8/shared/access/ConfirmedOwnerWithProposal.sol\":1809:1971  function _validateOwnership() internal view {... */\n    tag_25:\n        /* \"@chainlink/contracts-ccip@1.5.0/src/v0.8/shared/access/ConfirmedOwnerWithProposal.sol\":1932:1939  s_owner */\n      and(sub(shl(0xa0, 0x01), 0x01), sload(0x00))\n        /* \"@chainlink/contracts-ccip@1.5.0/src/v0.8/shared/access/ConfirmedOwnerWithProposal.sol\":1918:1928  msg.sender */\n      caller\n        /* \"@chainlink/contracts-ccip@1.5.0/src/v0.8/shared/access/ConfirmedOwnerWithProposal.sol\":1918:1939  msg.sender == s_owner */\n      eq\n        /* \"@chainlink/contracts-ccip@1.5.0/src/v0.8/shared/access/ConfirmedOwnerWithProposal.sol\":1910:1966  require(msg.sender == s_owner, \"Only callable by owner\") */\n      tag_80\n      jumpi\n      mload(0x40)\n      shl(0xe5, 0x461bcd)\n      dup2\n      mstore\n        /* \"#utility.yul\":6668:6670   */\n      0x20\n        /* \"@chainlink/contracts-ccip@1.5.0/src/v0.8/shared/access/ConfirmedOwnerWithProposal.sol\":1910:1966  require(msg.sender == s_owner, \"Only callable by owner\") */\n      0x04\n      dup3\n      add\n        /* \"#utility.yul\":6650:6671   */\n      mstore\n        /* \"#utility.yul\":6707:6709   */\n      0x16\n        /* \"#utility.yul\":6687:6705   */\n      0x24\n      dup3\n      add\n        /* \"#utility.yul\":6680:6710   */\n      mstore\n      shl(0x51, 0x27b7363c9031b0b63630b1363290313c9037bbb732b9)\n        /* \"#utility.yul\":6726:6744   */\n      0x44\n      dup3\n      add\n        /* \"#utility.yul\":6719:6771   */\n      mstore\n        /* \"#utility.yul\":6788:6806   */\n      0x64\n      add\n        /* \"@chainlink/contracts-ccip@1.5.0/src/v0.8/shared/access/ConfirmedOwnerWithProposal.sol\":1910:1966  require(msg.sender == s_owner, \"Only callable by owner\") */\n      tag_54\n        /* \"#utility.yul\":6466:6812   */\n      jump\n        /* \"@chainlink/contracts-ccip@1.5.0/src/v0.8/shared/access/ConfirmedOwnerWithProposal.sol\":1910:1966  require(msg.sender == s_owner, \"Only callable by owner\") */\n    tag_80:\n        /* \"@chainlink/contracts-ccip@1.5.0/src/v0.8/shared/access/ConfirmedOwnerWithProposal.sol\":1809:1971  function _validateOwnership() internal view {... */\n      jump\t// out\n        /* \"@chainlink/contracts-ccip@1.5.0/src/v0.8/shared/access/ConfirmedOwnerWithProposal.sol\":1536:1775  function _transferOwnership(address to) private {... */\n    tag_78:\n        /* \"@chainlink/contracts-ccip@1.5.0/src/v0.8/shared/access/ConfirmedOwnerWithProposal.sol\":1655:1665  msg.sender */\n      caller\n      sub(shl(0xa0, 0x01), 0x01)\n        /* \"@chainlink/contracts-ccip@1.5.0/src/v0.8/shared/access/ConfirmedOwnerWithProposal.sol\":1649:1665  to != msg.sender */\n      dup3\n      and\n      sub\n        /* \"@chainlink/contracts-ccip@1.5.0/src/v0.8/shared/access/ConfirmedOwnerWithProposal.sol\":1641:1693  require(to != msg.sender, \"Cannot transfer to self\") */\n      tag_87\n      jumpi\n      mload(0x40)\n      shl(0xe5, 0x461bcd)\n      dup2\n      mstore\n        /* \"#utility.yul\":7349:7351   */\n      0x20\n        /* \"@chainlink/contracts-ccip@1.5.0/src/v0.8/shared/access/ConfirmedOwnerWithProposal.sol\":1641:1693  require(to != msg.sender, \"Cannot transfer to self\") */\n      0x04\n      dup3\n      add\n        /* \"#utility.yul\":7331:7352   */\n      mstore\n        /* \"#utility.yul\":7388:7390   */\n      0x17\n        /* \"#utility.yul\":7368:7386   */\n      0x24\n      dup3\n      add\n        /* \"#utility.yul\":7361:7391   */\n      mstore\n        /* \"#utility.yul\":7427:7452   */\n      0x43616e6e6f74207472616e7366657220746f2073656c66000000000000000000\n        /* \"#utility.yul\":7407:7425   */\n      0x44\n      dup3\n      add\n        /* \"#utility.yul\":7400:7453   */\n      mstore\n        /* \"#utility.yul\":7470:7488   */\n      0x64\n      add\n        /* \"@chainlink/contracts-ccip@1.5.0/src/v0.8/shared/access/ConfirmedOwnerWithProposal.sol\":1641:1693  require(to != msg.sender, \"Cannot transfer to self\") */\n      tag_54\n        /* \"#utility.yul\":7147:7494   */\n      jump\n        /* \"@chainlink/contracts-ccip@1.5.0/src/v0.8/shared/access/ConfirmedOwnerWithProposal.sol\":1641:1693  require(to != msg.sender, \"Cannot transfer to self\") */\n    tag_87:\n        /* \"@chainlink/contracts-ccip@1.5.0/src/v0.8/shared/access/ConfirmedOwnerWithProposal.sol\":1700:1714  s_pendingOwner */\n      0x01\n        /* \"@chainlink/contracts-ccip@1.5.0/src/v0.8/shared/access/ConfirmedOwnerWithProposal.sol\":1700:1719  s_pendingOwner = to */\n      dup1\n      sload\n      not(sub(shl(0xa0, 0x01), 0x01))\n      and\n      sub(shl(0xa0, 0x01), 0x01)\n      dup4\n      dup2\n      and\n      swap2\n      dup3\n      or\n      swap1\n      swap3\n      sstore\n      0x00\n        /* \"@chainlink/contracts-ccip@1.5.0/src/v0.8/shared/access/ConfirmedOwnerWithProposal.sol\":1758:1765  s_owner */\n      dup1\n      sload\n        /* \"@chainlink/contracts-ccip@1.5.0/src/v0.8/shared/access/ConfirmedOwnerWithProposal.sol\":1731:1770  OwnershipTransferRequested(s_owner, to) */\n      mload(0x40)\n        /* \"@chainlink/contracts-ccip@1.5.0/src/v0.8/shared/access/ConfirmedOwnerWithProposal.sol\":1700:1719  s_pendingOwner = to */\n      swap3\n      swap4\n        /* \"@chainlink/contracts-ccip@1.5.0/src/v0.8/shared/access/ConfirmedOwnerWithProposal.sol\":1758:1765  s_owner */\n      and\n      swap2\n        /* \"@chainlink/contracts-ccip@1.5.0/src/v0.8/shared/access/ConfirmedOwnerWithProposal.sol\":1731:1770  OwnershipTransferRequested(s_owner, to) */\n      0xed8889f560326eb138920d842192f0eb3dd22b4f139c87a2c57538e05bae1278\n      swap2\n      swap1\n      log3\n        /* \"@chainlink/contracts-ccip@1.5.0/src/v0.8/shared/access/ConfirmedOwnerWithProposal.sol\":1536:1775  function _transferOwnership(address to) private {... */\n      pop\n      jump\t// out\n        /* \"#utility.yul\":14:187   */\n    tag_90:\n        /* \"#utility.yul\":82:102   */\n      dup1\n      calldataload\n      sub(shl(0xa0, 0x01), 0x01)\n        /* \"#utility.yul\":131:162   */\n      dup2\n      and\n        /* \"#utility.yul\":121:163   */\n      dup2\n      eq\n        /* \"#utility.yul\":111:181   */\n      tag_96\n      jumpi\n        /* \"#utility.yul\":177:178   */\n      0x00\n        /* \"#utility.yul\":174:175   */\n      dup1\n        /* \"#utility.yul\":167:179   */\n      revert\n        /* \"#utility.yul\":111:181   */\n    tag_96:\n        /* \"#utility.yul\":14:187   */\n      swap2\n      swap1\n      pop\n      jump\t// out\n        /* \"#utility.yul\":192:1014   */\n    tag_9:\n        /* \"#utility.yul\":280:286   */\n      0x00\n        /* \"#utility.yul\":288:294   */\n      dup1\n        /* \"#utility.yul\":296:302   */\n      0x00\n        /* \"#utility.yul\":304:310   */\n      dup1\n        /* \"#utility.yul\":357:359   */\n      0x60\n        /* \"#utility.yul\":345:354   */\n      dup6\n        /* \"#utility.yul\":336:343   */\n      dup8\n        /* \"#utility.yul\":332:355   */\n      sub\n        /* \"#utility.yul\":328:360   */\n      slt\n        /* \"#utility.yul\":325:377   */\n      iszero\n      tag_98\n      jumpi\n        /* \"#utility.yul\":373:374   */\n      0x00\n        /* \"#utility.yul\":370:371   */\n      dup1\n        /* \"#utility.yul\":363:375   */\n      revert\n        /* \"#utility.yul\":325:377   */\n    tag_98:\n        /* \"#utility.yul\":412:421   */\n      dup5\n        /* \"#utility.yul\":399:422   */\n      calldataload\n        /* \"#utility.yul\":441:459   */\n      0xffffffffffffffff\n        /* \"#utility.yul\":499:501   */\n      dup1\n        /* \"#utility.yul\":492:497   */\n      dup3\n        /* \"#utility.yul\":488:502   */\n      and\n        /* \"#utility.yul\":481:486   */\n      dup3\n        /* \"#utility.yul\":478:503   */\n      eq\n        /* \"#utility.yul\":468:521   */\n      tag_99\n      jumpi\n        /* \"#utility.yul\":517:518   */\n      0x00\n        /* \"#utility.yul\":514:515   */\n      dup1\n        /* \"#utility.yul\":507:519   */\n      revert\n        /* \"#utility.yul\":468:521   */\n    tag_99:\n        /* \"#utility.yul\":540:545   */\n      dup2\n        /* \"#utility.yul\":530:545   */\n      swap6\n      pop\n        /* \"#utility.yul\":564:602   */\n      tag_100\n        /* \"#utility.yul\":598:600   */\n      0x20\n        /* \"#utility.yul\":587:596   */\n      dup9\n        /* \"#utility.yul\":583:601   */\n      add\n        /* \"#utility.yul\":564:602   */\n      tag_90\n      jump\t// in\n    tag_100:\n        /* \"#utility.yul\":554:602   */\n      swap5\n      pop\n        /* \"#utility.yul\":653:655   */\n      0x40\n        /* \"#utility.yul\":642:651   */\n      dup8\n        /* \"#utility.yul\":638:656   */\n      add\n        /* \"#utility.yul\":625:657   */\n      calldataload\n        /* \"#utility.yul\":611:657   */\n      swap2\n      pop\n        /* \"#utility.yul\":680:682   */\n      dup1\n        /* \"#utility.yul\":672:678   */\n      dup3\n        /* \"#utility.yul\":669:683   */\n      gt\n        /* \"#utility.yul\":666:700   */\n      iszero\n      tag_101\n      jumpi\n        /* \"#utility.yul\":696:697   */\n      0x00\n        /* \"#utility.yul\":693:694   */\n      dup1\n        /* \"#utility.yul\":686:698   */\n      revert\n        /* \"#utility.yul\":666:700   */\n    tag_101:\n        /* \"#utility.yul\":734:740   */\n      dup2\n        /* \"#utility.yul\":723:732   */\n      dup8\n        /* \"#utility.yul\":719:741   */\n      add\n        /* \"#utility.yul\":709:741   */\n      swap2\n      pop\n        /* \"#utility.yul\":779:786   */\n      dup8\n        /* \"#utility.yul\":772:776   */\n      0x1f\n        /* \"#utility.yul\":768:770   */\n      dup4\n        /* \"#utility.yul\":764:777   */\n      add\n        /* \"#utility.yul\":760:787   */\n      slt\n        /* \"#utility.yul\":750:805   */\n      tag_102\n      jumpi\n        /* \"#utility.yul\":801:802   */\n      0x00\n        /* \"#utility.yul\":798:799   */\n      dup1\n        /* \"#utility.yul\":791:803   */\n      revert\n        /* \"#utility.yul\":750:805   */\n    tag_102:\n        /* \"#utility.yul\":841:843   */\n      dup2\n        /* \"#utility.yul\":828:844   */\n      calldataload\n        /* \"#utility.yul\":867:869   */\n      dup2\n        /* \"#utility.yul\":859:865   */\n      dup2\n        /* \"#utility.yul\":856:870   */\n      gt\n        /* \"#utility.yul\":853:887   */\n      iszero\n      tag_103\n      jumpi\n        /* \"#utility.yul\":883:884   */\n      0x00\n        /* \"#utility.yul\":880:881   */\n      dup1\n        /* \"#utility.yul\":873:885   */\n      revert\n        /* \"#utility.yul\":853:887   */\n    tag_103:\n        /* \"#utility.yul\":928:935   */\n      dup9\n        /* \"#utility.yul\":923:925   */\n      0x20\n        /* \"#utility.yul\":914:920   */\n      dup3\n        /* \"#utility.yul\":910:912   */\n      dup6\n        /* \"#utility.yul\":906:921   */\n      add\n        /* \"#utility.yul\":902:926   */\n      add\n        /* \"#utility.yul\":899:936   */\n      gt\n        /* \"#utility.yul\":896:953   */\n      iszero\n      tag_104\n      jumpi\n        /* \"#utility.yul\":949:950   */\n      0x00\n        /* \"#utility.yul\":946:947   */\n      dup1\n        /* \"#utility.yul\":939:951   */\n      revert\n        /* \"#utility.yul\":896:953   */\n    tag_104:\n        /* \"#utility.yul\":192:1014   */\n      swap6\n      swap9\n      swap5\n      swap8\n      pop\n      pop\n        /* \"#utility.yul\":980:982   */\n      0x20\n        /* \"#utility.yul\":972:983   */\n      add\n      swap5\n      pop\n      pop\n      pop\n        /* \"#utility.yul\":192:1014   */\n      jump\t// out\n        /* \"#utility.yul\":1518:1704   */\n    tag_21:\n        /* \"#utility.yul\":1577:1583   */\n      0x00\n        /* \"#utility.yul\":1630:1632   */\n      0x20\n        /* \"#utility.yul\":1618:1627   */\n      dup3\n        /* \"#utility.yul\":1609:1616   */\n      dup5\n        /* \"#utility.yul\":1605:1628   */\n      sub\n        /* \"#utility.yul\":1601:1633   */\n      slt\n        /* \"#utility.yul\":1598:1650   */\n      iszero\n      tag_109\n      jumpi\n        /* \"#utility.yul\":1646:1647   */\n      0x00\n        /* \"#utility.yul\":1643:1644   */\n      dup1\n        /* \"#utility.yul\":1636:1648   */\n      revert\n        /* \"#utility.yul\":1598:1650   */\n    tag_109:\n        /* \"#utility.yul\":1669:1698   */\n      tag_110\n        /* \"#utility.yul\":1688:1697   */\n      dup3\n        /* \"#utility.yul\":1669:1698   */\n      tag_90\n      jump\t// in\n    tag_110:\n        /* \"#utility.yul\":1659:1698   */\n      swap4\n        /* \"#utility.yul\":1518:1704   */\n      swap3\n      pop\n      pop\n      pop\n      jump\t// out\n        /* \"#utility.yul\":1709:1976   */\n    tag_92:\n        /* \"#utility.yul\":1798:1804   */\n      dup2\n        /* \"#utility.yul\":1793:1796   */\n      dup4\n        /* \"#utility.yul\":1786:1805   */\n      mstore\n        /* \"#utility.yul\":1850:1856   */\n      dup2\n        /* \"#utility.yul\":1843:1848   */\n      dup2\n        /* \"#utility.yul\":1836:1840   */\n      0x20\n        /* \"#utility.yul\":1831:1834   */\n      dup6\n        /* \"#utility.yul\":1827:1841   */\n      add\n        /* \"#utility.yul\":1814:1857   */\n      calldatacopy\n      pop\n        /* \"#utility.yul\":1902:1903   */\n      0x00\n        /* \"#utility.yul\":1877:1893   */\n      dup3\n      dup3\n      add\n        /* \"#utility.yul\":1895:1899   */\n      0x20\n        /* \"#utility.yul\":1873:1900   */\n      swap1\n      dup2\n      add\n        /* \"#utility.yul\":1866:1904   */\n      swap2\n      swap1\n      swap2\n      mstore\n        /* \"#utility.yul\":1958:1960   */\n      0x1f\n        /* \"#utility.yul\":1937:1952   */\n      swap1\n      swap2\n      add\n      not(0x1f)\n        /* \"#utility.yul\":1933:1962   */\n      and\n        /* \"#utility.yul\":1924:1963   */\n      swap1\n      swap2\n      add\n        /* \"#utility.yul\":1920:1970   */\n      add\n      swap1\n        /* \"#utility.yul\":1709:1976   */\n      jump\t// out\n        /* \"#utility.yul\":1981:2228   */\n    tag_29:\n        /* \"#utility.yul\":2140:2142   */\n      0x20\n        /* \"#utility.yul\":2129:2138   */\n      dup2\n        /* \"#utility.yul\":2122:2143   */\n      mstore\n        /* \"#utility.yul\":2103:2107   */\n      0x00\n        /* \"#utility.yul\":2160:2222   */\n      tag_113\n        /* \"#utility.yul\":2218:2220   */\n      0x20\n        /* \"#utility.yul\":2207:2216   */\n      dup4\n        /* \"#utility.yul\":2203:2221   */\n      add\n        /* \"#utility.yul\":2195:2201   */\n      dup5\n        /* \"#utility.yul\":2187:2193   */\n      dup7\n        /* \"#utility.yul\":2160:2222   */\n      tag_92\n      jump\t// in\n    tag_113:\n        /* \"#utility.yul\":2152:2222   */\n      swap5\n        /* \"#utility.yul\":1981:2228   */\n      swap4\n      pop\n      pop\n      pop\n      pop\n      jump\t// out\n        /* \"#utility.yul\":2365:2787   */\n    tag_93:\n        /* \"#utility.yul\":2406:2409   */\n      0x00\n        /* \"#utility.yul\":2444:2449   */\n      dup2\n        /* \"#utility.yul\":2438:2450   */\n      mload\n        /* \"#utility.yul\":2471:2477   */\n      dup1\n        /* \"#utility.yul\":2466:2469   */\n      dup5\n        /* \"#utility.yul\":2459:2478   */\n      mstore\n        /* \"#utility.yul\":2496:2497   */\n      0x00\n        /* \"#utility.yul\":2506:2668   */\n    tag_116:\n        /* \"#utility.yul\":2520:2526   */\n      dup2\n        /* \"#utility.yul\":2517:2518   */\n      dup2\n        /* \"#utility.yul\":2514:2527   */\n      lt\n        /* \"#utility.yul\":2506:2668   */\n      iszero\n      tag_118\n      jumpi\n        /* \"#utility.yul\":2582:2586   */\n      0x20\n        /* \"#utility.yul\":2638:2651   */\n      dup2\n      dup6\n      add\n        /* \"#utility.yul\":2634:2656   */\n      dup2\n      add\n        /* \"#utility.yul\":2628:2657   */\n      mload\n        /* \"#utility.yul\":2610:2621   */\n      dup7\n      dup4\n      add\n        /* \"#utility.yul\":2606:2626   */\n      dup3\n      add\n        /* \"#utility.yul\":2599:2658   */\n      mstore\n        /* \"#utility.yul\":2535:2547   */\n      add\n        /* \"#utility.yul\":2506:2668   */\n      jump(tag_116)\n    tag_118:\n        /* \"#utility.yul\":2510:2513   */\n      pop\n        /* \"#utility.yul\":2713:2714   */\n      0x00\n        /* \"#utility.yul\":2706:2710   */\n      0x20\n        /* \"#utility.yul\":2697:2703   */\n      dup3\n        /* \"#utility.yul\":2692:2695   */\n      dup7\n        /* \"#utility.yul\":2688:2704   */\n      add\n        /* \"#utility.yul\":2684:2711   */\n      add\n        /* \"#utility.yul\":2677:2715   */\n      mstore\n        /* \"#utility.yul\":2776:2780   */\n      0x20\n        /* \"#utility.yul\":2769:2771   */\n      0x1f\n        /* \"#utility.yul\":2765:2772   */\n      not\n        /* \"#utility.yul\":2760:2762   */\n      0x1f\n        /* \"#utility.yul\":2752:2758   */\n      dup4\n        /* \"#utility.yul\":2748:2763   */\n      add\n        /* \"#utility.yul\":2744:2773   */\n      and\n        /* \"#utility.yul\":2739:2742   */\n      dup6\n        /* \"#utility.yul\":2735:2774   */\n      add\n        /* \"#utility.yul\":2731:2781   */\n      add\n        /* \"#utility.yul\":2724:2781   */\n      swap2\n      pop\n      pop\n        /* \"#utility.yul\":2365:2787   */\n      swap3\n      swap2\n      pop\n      pop\n      jump\t// out\n        /* \"#utility.yul\":2792:4395   */\n    tag_40:\n        /* \"#utility.yul\":2972:2976   */\n      0x00\n        /* \"#utility.yul\":3001:3003   */\n      0x40\n        /* \"#utility.yul\":3042:3060   */\n      0xffffffffffffffff\n        /* \"#utility.yul\":3034:3040   */\n      dup6\n        /* \"#utility.yul\":3030:3061   */\n      and\n        /* \"#utility.yul\":3019:3028   */\n      dup4\n        /* \"#utility.yul\":3012:3062   */\n      mstore\n        /* \"#utility.yul\":3081:3083   */\n      0x20\n        /* \"#utility.yul\":3119:3121   */\n      0x40\n        /* \"#utility.yul\":3114:3116   */\n      dup2\n        /* \"#utility.yul\":3103:3112   */\n      dup6\n        /* \"#utility.yul\":3099:3117   */\n      add\n        /* \"#utility.yul\":3092:3122   */\n      mstore\n        /* \"#utility.yul\":3157:3163   */\n      dup5\n        /* \"#utility.yul\":3151:3164   */\n      mload\n        /* \"#utility.yul\":3200:3204   */\n      0xa0\n        /* \"#utility.yul\":3195:3197   */\n      0x40\n        /* \"#utility.yul\":3184:3193   */\n      dup7\n        /* \"#utility.yul\":3180:3198   */\n      add\n        /* \"#utility.yul\":3173:3205   */\n      mstore\n        /* \"#utility.yul\":3228:3279   */\n      tag_120\n        /* \"#utility.yul\":3274:3277   */\n      0xe0\n        /* \"#utility.yul\":3263:3272   */\n      dup7\n        /* \"#utility.yul\":3259:3278   */\n      add\n        /* \"#utility.yul\":3245:3257   */\n      dup3\n        /* \"#utility.yul\":3228:3279   */\n      tag_93\n      jump\t// in\n    tag_120:\n        /* \"#utility.yul\":3214:3279   */\n      swap1\n      pop\n        /* \"#utility.yul\":3328:3330   */\n      dup2\n        /* \"#utility.yul\":3320:3326   */\n      dup7\n        /* \"#utility.yul\":3316:3331   */\n      add\n        /* \"#utility.yul\":3310:3332   */\n      mload\n        /* \"#utility.yul\":3355:3357   */\n      0x3f\n        /* \"#utility.yul\":3351:3358   */\n      not\n        /* \"#utility.yul\":3422:3424   */\n      dup1\n        /* \"#utility.yul\":3410:3419   */\n      dup8\n        /* \"#utility.yul\":3402:3408   */\n      dup5\n        /* \"#utility.yul\":3398:3420   */\n      sub\n        /* \"#utility.yul\":3394:3425   */\n      add\n        /* \"#utility.yul\":3389:3391   */\n      0x60\n        /* \"#utility.yul\":3378:3387   */\n      dup9\n        /* \"#utility.yul\":3374:3392   */\n      add\n        /* \"#utility.yul\":3367:3426   */\n      mstore\n        /* \"#utility.yul\":3449:3489   */\n      tag_121\n        /* \"#utility.yul\":3482:3488   */\n      dup4\n        /* \"#utility.yul\":3466:3480   */\n      dup4\n        /* \"#utility.yul\":3449:3489   */\n      tag_93\n      jump\t// in\n    tag_121:\n        /* \"#utility.yul\":3538:3540   */\n      0x40\n        /* \"#utility.yul\":3526:3541   */\n      dup10\n      add\n        /* \"#utility.yul\":3520:3542   */\n      mload\n        /* \"#utility.yul\":3583:3605   */\n      dup9\n      dup3\n      sub\n        /* \"#utility.yul\":3579:3610   */\n      dup4\n      add\n        /* \"#utility.yul\":3573:3576   */\n      0x80\n        /* \"#utility.yul\":3558:3577   */\n      dup11\n      add\n        /* \"#utility.yul\":3551:3611   */\n      mstore\n        /* \"#utility.yul\":3660:3681   */\n      dup1\n      mload\n        /* \"#utility.yul\":3690:3712   */\n      dup1\n      dup4\n      mstore\n        /* \"#utility.yul\":3766:3789   */\n      swap1\n      dup7\n      add\n      swap5\n      pop\n        /* \"#utility.yul\":3807:3808   */\n      0x00\n      swap4\n      pop\n        /* \"#utility.yul\":3728:3743   */\n      swap1\n      dup6\n      add\n      swap1\n        /* \"#utility.yul\":3817:4097   */\n    tag_122:\n        /* \"#utility.yul\":3831:3837   */\n      dup1\n        /* \"#utility.yul\":3828:3829   */\n      dup5\n        /* \"#utility.yul\":3825:3838   */\n      lt\n        /* \"#utility.yul\":3817:4097   */\n      iszero\n      tag_124\n      jumpi\n        /* \"#utility.yul\":3890:3903   */\n      dup5\n      mload\n        /* \"#utility.yul\":3932:3941   */\n      dup1\n      mload\n      sub(shl(0xa0, 0x01), 0x01)\n        /* \"#utility.yul\":3928:3963   */\n      and\n        /* \"#utility.yul\":3916:3964   */\n      dup4\n      mstore\n        /* \"#utility.yul\":4004:4015   */\n      dup7\n      add\n        /* \"#utility.yul\":3998:4016   */\n      mload\n        /* \"#utility.yul\":3984:3996   */\n      dup7\n      dup4\n      add\n        /* \"#utility.yul\":3977:4017   */\n      mstore\n        /* \"#utility.yul\":4072:4087   */\n      swap4\n      dup6\n      add\n      swap4\n        /* \"#utility.yul\":3960:3961   */\n      0x01\n        /* \"#utility.yul\":3846:3855   */\n      swap4\n      swap1\n      swap4\n      add\n      swap3\n        /* \"#utility.yul\":4037:4049   */\n      swap1\n      dup7\n      add\n      swap1\n        /* \"#utility.yul\":3817:4097   */\n      jump(tag_122)\n    tag_124:\n      pop\n        /* \"#utility.yul\":4146:4148   */\n      0x60\n        /* \"#utility.yul\":4134:4149   */\n      dup10\n      add\n        /* \"#utility.yul\":4128:4150   */\n      mload\n      sub(shl(0xa0, 0x01), 0x01)\n        /* \"#utility.yul\":1267:1298   */\n      and\n        /* \"#utility.yul\":4209:4213   */\n      0xa0\n        /* \"#utility.yul\":4194:4214   */\n      dup10\n      add\n        /* \"#utility.yul\":1255:1299   */\n      mstore\n        /* \"#utility.yul\":4264:4267   */\n      0x80\n        /* \"#utility.yul\":4252:4268   */\n      dup10\n      add\n        /* \"#utility.yul\":4246:4269   */\n      mload\n        /* \"#utility.yul\":4310:4329   */\n      dup9\n      dup3\n      sub\n        /* \"#utility.yul\":4306:4334   */\n      dup4\n      add\n        /* \"#utility.yul\":4300:4303   */\n      0xc0\n        /* \"#utility.yul\":4285:4304   */\n      dup11\n      add\n        /* \"#utility.yul\":4278:4335   */\n      mstore\n        /* \"#utility.yul\":4246:4269   */\n      swap6\n      pop\n        /* \"#utility.yul\":4352:4389   */\n      tag_126\n        /* \"#utility.yul\":4314:4317   */\n      dup2\n        /* \"#utility.yul\":4246:4269   */\n      dup8\n        /* \"#utility.yul\":4352:4389   */\n      tag_93\n      jump\t// in\n    tag_126:\n        /* \"#utility.yul\":4344:4389   */\n      swap11\n        /* \"#utility.yul\":2792:4395   */\n      swap10\n      pop\n      pop\n      pop\n      pop\n      pop\n      pop\n      pop\n      pop\n      pop\n      pop\n      jump\t// out\n        /* \"#utility.yul\":4400:4584   */\n    tag_44:\n        /* \"#utility.yul\":4470:4476   */\n      0x00\n        /* \"#utility.yul\":4523:4525   */\n      0x20\n        /* \"#utility.yul\":4511:4520   */\n      dup3\n        /* \"#utility.yul\":4502:4509   */\n      dup5\n        /* \"#utility.yul\":4498:4521   */\n      sub\n        /* \"#utility.yul\":4494:4526   */\n      slt\n        /* \"#utility.yul\":4491:4543   */\n      iszero\n      tag_128\n      jumpi\n        /* \"#utility.yul\":4539:4540   */\n      0x00\n        /* \"#utility.yul\":4536:4537   */\n      dup1\n        /* \"#utility.yul\":4529:4541   */\n      revert\n        /* \"#utility.yul\":4491:4543   */\n    tag_128:\n      pop\n        /* \"#utility.yul\":4562:4578   */\n      mload\n      swap2\n        /* \"#utility.yul\":4400:4584   */\n      swap1\n      pop\n      jump\t// out\n        /* \"#utility.yul\":5121:5398   */\n    tag_61:\n        /* \"#utility.yul\":5188:5194   */\n      0x00\n        /* \"#utility.yul\":5241:5243   */\n      0x20\n        /* \"#utility.yul\":5229:5238   */\n      dup3\n        /* \"#utility.yul\":5220:5227   */\n      dup5\n        /* \"#utility.yul\":5216:5239   */\n      sub\n        /* \"#utility.yul\":5212:5244   */\n      slt\n        /* \"#utility.yul\":5209:5261   */\n      iszero\n      tag_132\n      jumpi\n        /* \"#utility.yul\":5257:5258   */\n      0x00\n        /* \"#utility.yul\":5254:5255   */\n      dup1\n        /* \"#utility.yul\":5247:5259   */\n      revert\n        /* \"#utility.yul\":5209:5261   */\n    tag_132:\n        /* \"#utility.yul\":5289:5298   */\n      dup2\n        /* \"#utility.yul\":5283:5299   */\n      mload\n        /* \"#utility.yul\":5342:5347   */\n      dup1\n        /* \"#utility.yul\":5335:5348   */\n      iszero\n        /* \"#utility.yul\":5328:5349   */\n      iszero\n        /* \"#utility.yul\":5321:5326   */\n      dup2\n        /* \"#utility.yul\":5318:5350   */\n      eq\n        /* \"#utility.yul\":5308:5368   */\n      tag_110\n      jumpi\n        /* \"#utility.yul\":5364:5365   */\n      0x00\n        /* \"#utility.yul\":5361:5362   */\n      dup1\n        /* \"#utility.yul\":5354:5366   */\n      revert\n        /* \"#utility.yul\":5592:6110   */\n    tag_68:\n        /* \"#utility.yul\":5798:5802   */\n      0x00\n        /* \"#utility.yul\":5844:5845   */\n      0x01\n        /* \"#utility.yul\":5840:5841   */\n      dup1\n        /* \"#utility.yul\":5835:5838   */\n      0xa0\n        /* \"#utility.yul\":5831:5842   */\n      shl\n        /* \"#utility.yul\":5827:5846   */\n      sub\n        /* \"#utility.yul\":5885:5887   */\n      dup1\n        /* \"#utility.yul\":5877:5883   */\n      dup9\n        /* \"#utility.yul\":5873:5888   */\n      and\n        /* \"#utility.yul\":5862:5871   */\n      dup4\n        /* \"#utility.yul\":5855:5889   */\n      mstore\n        /* \"#utility.yul\":5925:5928   */\n      0x80\n        /* \"#utility.yul\":5920:5922   */\n      0x20\n        /* \"#utility.yul\":5909:5918   */\n      dup5\n        /* \"#utility.yul\":5905:5923   */\n      add\n        /* \"#utility.yul\":5898:5929   */\n      mstore\n        /* \"#utility.yul\":5946:6009   */\n      tag_137\n        /* \"#utility.yul\":6004:6007   */\n      0x80\n        /* \"#utility.yul\":5993:6002   */\n      dup5\n        /* \"#utility.yul\":5989:6008   */\n      add\n        /* \"#utility.yul\":5981:5987   */\n      dup8\n        /* \"#utility.yul\":5973:5979   */\n      dup10\n        /* \"#utility.yul\":5946:6009   */\n      tag_92\n      jump\t// in\n    tag_137:\n        /* \"#utility.yul\":6045:6060   */\n      swap5\n      and\n        /* \"#utility.yul\":6040:6042   */\n      0x40\n        /* \"#utility.yul\":6025:6043   */\n      dup4\n      add\n        /* \"#utility.yul\":6018:6061   */\n      mstore\n      pop\n        /* \"#utility.yul\":6092:6094   */\n      0x60\n        /* \"#utility.yul\":6077:6095   */\n      add\n        /* \"#utility.yul\":6070:6104   */\n      mstore\n        /* \"#utility.yul\":5938:6009   */\n      swap4\n        /* \"#utility.yul\":5592:6110   */\n      swap3\n      pop\n      pop\n      pop\n      jump\t// out\n\n    auxdata: 0xa2646970667358221220128d6e0896d8ca8d97b3d903fd71510dc2ef1a3454cb7710dac9ea368f0cfff164736f6c63430008180033\n}\n",
				"bytecode": {
					"linkReferences": {},
					"object": "608060405234801561001057600080fd5b50604051610b41380380610b4183398101604081905261002f916101b2565b33806000816100855760405162461bcd60e51b815260206004820152601860248201527f43616e6e6f7420736574206f776e657220746f207a65726f000000000000000060448201526064015b60405180910390fd5b600080546001600160a01b0319166001600160a01b03848116919091179091558116156100b5576100b5816100ed565b5050600280546001600160a01b039485166001600160a01b0319918216179091556003805493909416921691909117909155506101e5565b336001600160a01b038216036101455760405162461bcd60e51b815260206004820152601760248201527f43616e6e6f74207472616e7366657220746f2073656c66000000000000000000604482015260640161007c565b600180546001600160a01b0319166001600160a01b0383811691821790925560008054604051929316917fed8889f560326eb138920d842192f0eb3dd22b4f139c87a2c57538e05bae12789190a350565b80516001600160a01b03811681146101ad57600080fd5b919050565b600080604083850312156101c557600080fd5b6101ce83610196565b91506101dc60208401610196565b90509250929050565b61094d806101f46000396000f3fe608060405234801561001057600080fd5b506004361061004c5760003560e01c80630eb5ad451461005157806379ba5097146100775780638da5cb5b14610081578063f2fde38b1461009c575b600080fd5b61006461005f366004610684565b6100af565b6040519081526020015b60405180910390f35b61007f6104ac565b005b6000546040516001600160a01b03909116815260200161006e565b61007f6100aa36600461071c565b610556565b60006100b961056a565b6040805160a081019091526001600160a01b03851660c08201526000908060e0810160405160208183030381529060405281526020018585604051602001610102929190610767565b60408051601f198184030181529190528152602001600060405190808252806020026020018201604052801561015e57816020015b60408051808201909152600080825260208201528152602001906001900390816101375790505b5081526003546001600160a01b031660208083019190915260408051808201825262030d4080825260019184019182528251602481019190915290511515604480830191909152825180830390910181526064909101825291820180516001600160e01b0316630181dcf160e41b179052909101526002546040516320487ded60e01b81529192506000916001600160a01b03909116906320487ded9061020b908a9086906004016107c9565b602060405180830381865afa158015610228573d6000803e3d6000fd5b505050506040513d601f19601f8201168201806040525081019061024c91906108a6565b6003546040516370a0823160e01b81523060048201529192506001600160a01b0316906370a0823190602401602060405180830381865afa158015610295573d6000803e3d6000fd5b505050506040513d601f19601f820116820180604052508101906102b991906108a6565b811115610355576003546040516370a0823160e01b81523060048201526001600160a01b03909116906370a0823190602401602060405180830381865afa158015610308573d6000803e3d6000fd5b505050506040513d601f19601f8201168201806040525081019061032c91906108a6565b604051634787a10360e11b81526004810191909152602481018290526044015b60405180910390fd5b60035460025460405163095ea7b360e01b81526001600160a01b0391821660048201526024810184905291169063095ea7b3906044016020604051808303816000875af11580156103aa573d6000803e3d6000fd5b505050506040513d601f19601f820116820180604052508101906103ce91906108bf565b506002546040516396f4e9f960e01b81526001600160a01b03909116906396f4e9f990610401908a9086906004016107c9565b6020604051808303816000875af1158015610420573d6000803e3d6000fd5b505050506040513d601f19601f8201168201806040525081019061044491906108a6565b60035460405191945067ffffffffffffffff89169185917fd36445359b3c6e26c120659aef090ce0f2eb005cf9af450d11aa1225609b4f4d9161049a918b918b918b916001600160a01b039091169089906108e1565b60405180910390a35050949350505050565b6001546001600160a01b031633146104ff5760405162461bcd60e51b815260206004820152601660248201527526bab9ba10313290383937b837b9b2b21037bbb732b960511b604482015260640161034c565b60008054336001600160a01b0319808316821784556001805490911690556040516001600160a01b0390921692909183917f8be0079c531659141344cd1fd0a4f28419497f9722a3daafe3b4186f6b6457e091a350565b61055e61056a565b610567816105bf565b50565b6000546001600160a01b031633146105bd5760405162461bcd60e51b815260206004820152601660248201527527b7363c9031b0b63630b1363290313c9037bbb732b960511b604482015260640161034c565b565b336001600160a01b038216036106175760405162461bcd60e51b815260206004820152601760248201527f43616e6e6f74207472616e7366657220746f2073656c66000000000000000000604482015260640161034c565b600180546001600160a01b0319166001600160a01b0383811691821790925560008054604051929316917fed8889f560326eb138920d842192f0eb3dd22b4f139c87a2c57538e05bae12789190a350565b80356001600160a01b038116811461067f57600080fd5b919050565b6000806000806060858703121561069a57600080fd5b843567ffffffffffffffff80821682146106b357600080fd5b8195506106c260208801610668565b945060408701359150808211156106d857600080fd5b818701915087601f8301126106ec57600080fd5b8135818111156106fb57600080fd5b88602082850101111561070d57600080fd5b95989497505060200194505050565b60006020828403121561072e57600080fd5b61073782610668565b9392505050565b81835281816020850137506000828201602090810191909152601f909101601f19169091010190565b60208152600061077b60208301848661073e565b949350505050565b6000815180845260005b818110156107a95760208185018101518683018201520161078d565b506000602082860101526020601f19601f83011685010191505092915050565b6000604067ffffffffffffffff851683526020604081850152845160a060408601526107f860e0860182610783565b905081860151603f19808784030160608801526108158383610783565b6040890151888203830160808a01528051808352908601945060009350908501905b8084101561086957845180516001600160a01b0316835286015186830152938501936001939093019290860190610837565b5060608901516001600160a01b031660a08901526080890151888203830160c08a015295506108988187610783565b9a9950505050505050505050565b6000602082840312156108b857600080fd5b5051919050565b6000602082840312156108d157600080fd5b8151801515811461073757600080fd5b600060018060a01b0380881683526080602084015261090460808401878961073e565b941660408301525060600152939250505056fea2646970667358221220128d6e0896d8ca8d97b3d903fd71510dc2ef1a3454cb7710dac9ea368f0cfff164736f6c63430008180033",
					"opcodes": "PUSH1 0x80 PUSH1 0x40 MSTORE CALLVALUE DUP1 ISZERO PUSH2 0x10 JUMPI PUSH1 0x0 DUP1 REVERT JUMPDEST POP PUSH1 0x40 MLOAD PUSH2 0xB41 CODESIZE SUB DUP1 PUSH2 0xB41 DUP4 CODECOPY DUP2 ADD PUSH1 0x40 DUP2 SWAP1 MSTORE PUSH2 0x2F SWAP2 PUSH2 0x1B2 JUMP JUMPDEST CALLER DUP1 PUSH1 0x0 DUP2 PUSH2 0x85 JUMPI PUSH1 0x40 MLOAD PUSH3 0x461BCD PUSH1 0xE5 SHL DUP2 MSTORE PUSH1 0x20 PUSH1 0x4 DUP3 ADD MSTORE PUSH1 0x18 PUSH1 0x24 DUP3 ADD MSTORE PUSH32 0x43616E6E6F7420736574206F776E657220746F207A65726F0000000000000000 PUSH1 0x44 DUP3 ADD MSTORE PUSH1 0x64 ADD JUMPDEST PUSH1 0x40 MLOAD DUP1 SWAP2 SUB SWAP1 REVERT JUMPDEST PUSH1 0x0 DUP1 SLOAD PUSH1 0x1 PUSH1 0x1 PUSH1 0xA0 SHL SUB NOT AND PUSH1 0x1 PUSH1 0x1 PUSH1 0xA0 SHL SUB DUP5 DUP2 AND SWAP2 SWAP1 SWAP2 OR SWAP1 SWAP2 SSTORE DUP2 AND ISZERO PUSH2 0xB5 JUMPI PUSH2 0xB5 DUP2 PUSH2 0xED JUMP JUMPDEST POP POP PUSH1 0x2 DUP1 SLOAD PUSH1 0x1 PUSH1 0x1 PUSH1 0xA0 SHL SUB SWAP5 DUP6 AND PUSH1 0x1 PUSH1 0x1 PUSH1 0xA0 SHL SUB NOT SWAP2 DUP3 AND OR SWAP1 SWAP2 SSTORE PUSH1 0x3 DUP1 SLOAD SWAP4 SWAP1 SWAP5 AND SWAP3 AND SWAP2 SWAP1 SWAP2 OR SWAP1 SWAP2 SSTORE POP PUSH2 0x1E5 JUMP JUMPDEST CALLER PUSH1 0x1 PUSH1 0x1 PUSH1 0xA0 SHL SUB DUP3 AND SUB PUSH2 0x145 JUMPI PUSH1 0x40 MLOAD PUSH3 0x461BCD PUSH1 0xE5 SHL DUP2 MSTORE PUSH1 0x20 PUSH1 0x4 DUP3 ADD MSTORE PUSH1 0x17 PUSH1 0x24 DUP3 ADD MSTORE PUSH32 0x43616E6E6F74207472616E7366657220746F2073656C66000000000000000000 PUSH1 0x44 DUP3 ADD MSTORE PUSH1 0x64 ADD PUSH2 0x7C JUMP JUMPDEST PUSH1 0x1 DUP1 SLOAD PUSH1 0x1 PUSH1 0x1 PUSH1 0xA0 SHL SUB NOT AND PUSH1 0x1 PUSH1 0x1 PUSH1 0xA0 SHL SUB DUP4 DUP2 AND SWAP2 DUP3 OR SWAP1 SWAP3 SSTORE PUSH1 0x0 DUP1 SLOAD PUSH1 0x40 MLOAD SWAP3 SWAP4 AND SWAP2 PUSH32 0xED8889F560326EB138920D842192F0EB3DD22B4F139C87A2C57538E05BAE1278 SWAP2 SWAP1 LOG3 POP JUMP JUMPDEST DUP1 MLOAD PUSH1 0x1 PUSH1 0x1 PUSH1 0xA0 SHL SUB DUP2 AND DUP2 EQ PUSH2 0x1AD JUMPI PUSH1 0x0 DUP1 REVERT JUMPDEST SWAP2 SWAP1 POP JUMP JUMPDEST PUSH1 0x0 DUP1 PUSH1 0x40 DUP4 DUP6 SUB SLT ISZERO PUSH2 0x1C5 JUMPI PUSH1 0x0 DUP1 REVERT JUMPDEST PUSH2 0x1CE DUP4 PUSH2 0x196 JUMP JUMPDEST SWAP2 POP PUSH2 0x1DC PUSH1 0x20 DUP5 ADD PUSH2 0x196 JUMP JUMPDEST SWAP1 POP SWAP3 POP SWAP3 SWAP1 POP JUMP JUMPDEST PUSH2 0x94D DUP1 PUSH2 0x1F4 PUSH1 0x0 CODECOPY PUSH1 0x0 RETURN INVALID PUSH1 0x80 PUSH1 0x40 MSTORE CALLVALUE DUP1 ISZERO PUSH2 0x10 JUMPI PUSH1 0x0 DUP1 REVERT JUMPDEST POP PUSH1 0x4 CALLDATASIZE LT PUSH2 0x4C JUMPI PUSH1 0x0 CALLDATALOAD PUSH1 0xE0 SHR DUP1 PUSH4 0xEB5AD45 EQ PUSH2 0x51 JUMPI DUP1 PUSH4 0x79BA5097 EQ PUSH2 0x77 JUMPI DUP1 PUSH4 0x8DA5CB5B EQ PUSH2 0x81 JUMPI DUP1 PUSH4 0xF2FDE38B EQ PUSH2 0x9C JUMPI JUMPDEST PUSH1 0x0 DUP1 REVERT JUMPDEST PUSH2 0x64 PUSH2 0x5F CALLDATASIZE PUSH1 0x4 PUSH2 0x684 JUMP JUMPDEST PUSH2 0xAF JUMP JUMPDEST PUSH1 0x40 MLOAD SWAP1 DUP2 MSTORE PUSH1 0x20 ADD JUMPDEST PUSH1 0x40 MLOAD DUP1 SWAP2 SUB SWAP1 RETURN JUMPDEST PUSH2 0x7F PUSH2 0x4AC JUMP JUMPDEST STOP JUMPDEST PUSH1 0x0 SLOAD PUSH1 0x40 MLOAD PUSH1 0x1 PUSH1 0x1 PUSH1 0xA0 SHL SUB SWAP1 SWAP2 AND DUP2 MSTORE PUSH1 0x20 ADD PUSH2 0x6E JUMP JUMPDEST PUSH2 0x7F PUSH2 0xAA CALLDATASIZE PUSH1 0x4 PUSH2 0x71C JUMP JUMPDEST PUSH2 0x556 JUMP JUMPDEST PUSH1 0x0 PUSH2 0xB9 PUSH2 0x56A JUMP JUMPDEST PUSH1 0x40 DUP1 MLOAD PUSH1 0xA0 DUP2 ADD SWAP1 SWAP2 MSTORE PUSH1 0x1 PUSH1 0x1 PUSH1 0xA0 SHL SUB DUP6 AND PUSH1 0xC0 DUP3 ADD MSTORE PUSH1 0x0 SWAP1 DUP1 PUSH1 0xE0 DUP2 ADD PUSH1 0x40 MLOAD PUSH1 0x20 DUP2 DUP4 SUB SUB DUP2 MSTORE SWAP1 PUSH1 0x40 MSTORE DUP2 MSTORE PUSH1 0x20 ADD DUP6 DUP6 PUSH1 0x40 MLOAD PUSH1 0x20 ADD PUSH2 0x102 SWAP3 SWAP2 SWAP1 PUSH2 0x767 JUMP JUMPDEST PUSH1 0x40 DUP1 MLOAD PUSH1 0x1F NOT DUP2 DUP5 SUB ADD DUP2 MSTORE SWAP2 SWAP1 MSTORE DUP2 MSTORE PUSH1 0x20 ADD PUSH1 0x0 PUSH1 0x40 MLOAD SWAP1 DUP1 DUP3 MSTORE DUP1 PUSH1 0x20 MUL PUSH1 0x20 ADD DUP3 ADD PUSH1 0x40 MSTORE DUP1 ISZERO PUSH2 0x15E JUMPI DUP2 PUSH1 0x20 ADD JUMPDEST PUSH1 0x40 DUP1 MLOAD DUP1 DUP3 ADD SWAP1 SWAP2 MSTORE PUSH1 0x0 DUP1 DUP3 MSTORE PUSH1 0x20 DUP3 ADD MSTORE DUP2 MSTORE PUSH1 0x20 ADD SWAP1 PUSH1 0x1 SWAP1 SUB SWAP1 DUP2 PUSH2 0x137 JUMPI SWAP1 POP JUMPDEST POP DUP2 MSTORE PUSH1 0x3 SLOAD PUSH1 0x1 PUSH1 0x1 PUSH1 0xA0 SHL SUB AND PUSH1 0x20 DUP1 DUP4 ADD SWAP2 SWAP1 SWAP2 MSTORE PUSH1 0x40 DUP1 MLOAD DUP1 DUP3 ADD DUP3 MSTORE PUSH3 0x30D40 DUP1 DUP3 MSTORE PUSH1 0x1 SWAP2 DUP5 ADD SWAP2 DUP3 MSTORE DUP3 MLOAD PUSH1 0x24 DUP2 ADD SWAP2 SWAP1 SWAP2 MSTORE SWAP1 MLOAD ISZERO ISZERO PUSH1 0x44 DUP1 DUP4 ADD SWAP2 SWAP1 SWAP2 MSTORE DUP3 MLOAD DUP1 DUP4 SUB SWAP1 SWAP2 ADD DUP2 MSTORE PUSH1 0x64 SWAP1 SWAP2 ADD DUP3 MSTORE SWAP2 DUP3 ADD DUP1 MLOAD PUSH1 0x1 PUSH1 0x1 PUSH1 0xE0 SHL SUB AND PUSH4 0x181DCF1 PUSH1 0xE4 SHL OR SWAP1 MSTORE SWAP1 SWAP2 ADD MSTORE PUSH1 0x2 SLOAD PUSH1 0x40 MLOAD PUSH4 0x20487DED PUSH1 0xE0 SHL DUP2 MSTORE SWAP2 SWAP3 POP PUSH1 0x0 SWAP2 PUSH1 0x1 PUSH1 0x1 PUSH1 0xA0 SHL SUB SWAP1 SWAP2 AND SWAP1 PUSH4 0x20487DED SWAP1 PUSH2 0x20B SWAP1 DUP11 SWAP1 DUP7 SWAP1 PUSH1 0x4 ADD PUSH2 0x7C9 JUMP JUMPDEST PUSH1 0x20 PUSH1 0x40 MLOAD DUP1 DUP4 SUB DUP2 DUP7 GAS STATICCALL ISZERO DUP1 ISZERO PUSH2 0x228 JUMPI RETURNDATASIZE PUSH1 0x0 DUP1 RETURNDATACOPY RETURNDATASIZE PUSH1 0x0 REVERT JUMPDEST POP POP POP POP PUSH1 0x40 MLOAD RETURNDATASIZE PUSH1 0x1F NOT PUSH1 0x1F DUP3 ADD AND DUP3 ADD DUP1 PUSH1 0x40 MSTORE POP DUP2 ADD SWAP1 PUSH2 0x24C SWAP2 SWAP1 PUSH2 0x8A6 JUMP JUMPDEST PUSH1 0x3 SLOAD PUSH1 0x40 MLOAD PUSH4 0x70A08231 PUSH1 0xE0 SHL DUP2 MSTORE ADDRESS PUSH1 0x4 DUP3 ADD MSTORE SWAP2 SWAP3 POP PUSH1 0x1 PUSH1 0x1 PUSH1 0xA0 SHL SUB AND SWAP1 PUSH4 0x70A08231 SWAP1 PUSH1 0x24 ADD PUSH1 0x20 PUSH1 0x40 MLOAD DUP1 DUP4 SUB DUP2 DUP7 GAS STATICCALL ISZERO DUP1 ISZERO PUSH2 0x295 JUMPI RETURNDATASIZE PUSH1 0x0 DUP1 RETURNDATACOPY RETURNDATASIZE PUSH1 0x0 REVERT JUMPDEST POP POP POP POP PUSH1 0x40 MLOAD RETURNDATASIZE PUSH1 0x1F NOT PUSH1 0x1F DUP3 ADD AND DUP3 ADD DUP1 PUSH1 0x40 MSTORE POP DUP2 ADD SWAP1 PUSH2 0x2B9 SWAP2 SWAP1 PUSH2 0x8A6 JUMP JUMPDEST DUP2 GT ISZERO PUSH2 0x355 JUMPI PUSH1 0x3 SLOAD PUSH1 0x40 MLOAD PUSH4 0x70A08231 PUSH1 0xE0 SHL DUP2 MSTORE ADDRESS PUSH1 0x4 DUP3 ADD MSTORE PUSH1 0x1 PUSH1 0x1 PUSH1 0xA0 SHL SUB SWAP1 SWAP2 AND SWAP1 PUSH4 0x70A08231 SWAP1 PUSH1 0x24 ADD PUSH1 0x20 PUSH1 0x40 MLOAD DUP1 DUP4 SUB DUP2 DUP7 GAS STATICCALL ISZERO DUP1 ISZERO PUSH2 0x308 JUMPI RETURNDATASIZE PUSH1 0x0 DUP1 RETURNDATACOPY RETURNDATASIZE PUSH1 0x0 REVERT JUMPDEST POP POP POP POP PUSH1 0x40 MLOAD RETURNDATASIZE PUSH1 0x1F NOT PUSH1 0x1F DUP3 ADD AND DUP3 ADD DUP1 PUSH1 0x40 MSTORE POP DUP2 ADD SWAP1 PUSH2 0x32C SWAP2 SWAP1 PUSH2 0x8A6 JUMP JUMPDEST PUSH1 0x40 MLOAD PUSH4 0x4787A103 PUSH1 0xE1 SHL DUP2 MSTORE PUSH1 0x4 DUP2 ADD SWAP2 SWAP1 SWAP2 MSTORE PUSH1 0x24 DUP2 ADD DUP3 SWAP1 MSTORE PUSH1 0x44 ADD JUMPDEST PUSH1 0x40 MLOAD DUP1 SWAP2 SUB SWAP1 REVERT JUMPDEST PUSH1 0x3 SLOAD PUSH1 0x2 SLOAD PUSH1 0x40 MLOAD PUSH4 0x95EA7B3 PUSH1 0xE0 SHL DUP2 MSTORE PUSH1 0x1 PUSH1 0x1 PUSH1 0xA0 SHL SUB SWAP2 DUP3 AND PUSH1 0x4 DUP3 ADD MSTORE PUSH1 0x24 DUP2 ADD DUP5 SWAP1 MSTORE SWAP2 AND SWAP1 PUSH4 0x95EA7B3 SWAP1 PUSH1 0x44 ADD PUSH1 0x20 PUSH1 0x40 MLOAD DUP1 DUP4 SUB DUP2 PUSH1 0x0 DUP8 GAS CALL ISZERO DUP1 ISZERO PUSH2 0x3AA JUMPI RETURNDATASIZE PUSH1 0x0 DUP1 RETURNDATACOPY RETURNDATASIZE PUSH1 0x0 REVERT JUMPDEST POP POP POP POP PUSH1 0x40 MLOAD RETURNDATASIZE PUSH1 0x1F NOT PUSH1 0x1F DUP3 ADD AND DUP3 ADD DUP1 PUSH1 0x40 MSTORE POP DUP2 ADD SWAP1 PUSH2 0x3CE SWAP2 SWAP1 PUSH2 0x8BF JUMP JUMPDEST POP PUSH1 0x2 SLOAD PUSH1 0x40 MLOAD PUSH4 0x96F4E9F9 PUSH1 0xE0 SHL DUP2 MSTORE PUSH1 0x1 PUSH1 0x1 PUSH1 0xA0 SHL SUB SWAP1 SWAP2 AND SWAP1 PUSH4 0x96F4E9F9 SWAP1 PUSH2 0x401 SWAP1 DUP11 SWAP1 DUP7 SWAP1 PUSH1 0x4 ADD PUSH2 0x7C9 JUMP JUMPDEST PUSH1 0x20 PUSH1 0x40 MLOAD DUP1 DUP4 SUB DUP2 PUSH1 0x0 DUP8 GAS CALL ISZERO DUP1 ISZERO PUSH2 0x420 JUMPI RETURNDATASIZE PUSH1 0x0 DUP1 RETURNDATACOPY RETURNDATASIZE PUSH1 0x0 REVERT JUMPDEST POP POP POP POP PUSH1 0x40 MLOAD RETURNDATASIZE PUSH1 0x1F NOT PUSH1 0x1F DUP3 ADD AND DUP3 ADD DUP1 PUSH1 0x40 MSTORE POP DUP2 ADD SWAP1 PUSH2 0x444 SWAP2 SWAP1 PUSH2 0x8A6 JUMP JUMPDEST PUSH1 0x3 SLOAD PUSH1 0x40 MLOAD SWAP2 SWAP5 POP PUSH8 0xFFFFFFFFFFFFFFFF DUP10 AND SWAP2 DUP6 SWAP2 PUSH32 0xD36445359B3C6E26C120659AEF090CE0F2EB005CF9AF450D11AA1225609B4F4D SWAP2 PUSH2 0x49A SWAP2 DUP12 SWAP2 DUP12 SWAP2 DUP12 SWAP2 PUSH1 0x1 PUSH1 0x1 PUSH1 0xA0 SHL SUB SWAP1 SWAP2 AND SWAP1 DUP10 SWAP1 PUSH2 0x8E1 JUMP JUMPDEST PUSH1 0x40 MLOAD DUP1 SWAP2 SUB SWAP1 LOG3 POP POP SWAP5 SWAP4 POP POP POP POP JUMP JUMPDEST PUSH1 0x1 SLOAD PUSH1 0x1 PUSH1 0x1 PUSH1 0xA0 SHL SUB AND CALLER EQ PUSH2 0x4FF JUMPI PUSH1 0x40 MLOAD PUSH3 0x461BCD PUSH1 0xE5 SHL DUP2 MSTORE PUSH1 0x20 PUSH1 0x4 DUP3 ADD MSTORE PUSH1 0x16 PUSH1 0x24 DUP3 ADD MSTORE PUSH22 0x26BAB9BA10313290383937B837B9B2B21037BBB732B9 PUSH1 0x51 SHL PUSH1 0x44 DUP3 ADD MSTORE PUSH1 0x64 ADD PUSH2 0x34C JUMP JUMPDEST PUSH1 0x0 DUP1 SLOAD CALLER PUSH1 0x1 PUSH1 0x1 PUSH1 0xA0 SHL SUB NOT DUP1 DUP4 AND DUP3 OR DUP5 SSTORE PUSH1 0x1 DUP1 SLOAD SWAP1 SWAP2 AND SWAP1 SSTORE PUSH1 0x40 MLOAD PUSH1 0x1 PUSH1 0x1 PUSH1 0xA0 SHL SUB SWAP1 SWAP3 AND SWAP3 SWAP1 SWAP2 DUP4 SWAP2 PUSH32 0x8BE0079C531659141344CD1FD0A4F28419497F9722A3DAAFE3B4186F6B6457E0 SWAP2 LOG3 POP JUMP JUMPDEST PUSH2 0x55E PUSH2 0x56A JUMP JUMPDEST PUSH2 0x567 DUP2 PUSH2 0x5BF JUMP JUMPDEST POP JUMP JUMPDEST PUSH1 0x0 SLOAD PUSH1 0x1 PUSH1 0x1 PUSH1 0xA0 SHL SUB AND CALLER EQ PUSH2 0x5BD JUMPI PUSH1 0x40 MLOAD PUSH3 0x461BCD PUSH1 0xE5 SHL DUP2 MSTORE PUSH1 0x20 PUSH1 0x4 DUP3 ADD MSTORE PUSH1 0x16 PUSH1 0x24 DUP3 ADD MSTORE PUSH22 0x27B7363C9031B0B63630B1363290313C9037BBB732B9 PUSH1 0x51 SHL PUSH1 0x44 DUP3 ADD MSTORE PUSH1 0x64 ADD PUSH2 0x34C JUMP JUMPDEST JUMP JUMPDEST CALLER PUSH1 0x1 PUSH1 0x1 PUSH1 0xA0 SHL SUB DUP3 AND SUB PUSH2 0x617 JUMPI PUSH1 0x40 MLOAD PUSH3 0x461BCD PUSH1 0xE5 SHL DUP2 MSTORE PUSH1 0x20 PUSH1 0x4 DUP3 ADD MSTORE PUSH1 0x17 PUSH1 0x24 DUP3 ADD MSTORE PUSH32 0x43616E6E6F74207472616E7366657220746F2073656C66000000000000000000 PUSH1 0x44 DUP3 ADD MSTORE PUSH1 0x64 ADD PUSH2 0x34C JUMP JUMPDEST PUSH1 0x1 DUP1 SLOAD PUSH1 0x1 PUSH1 0x1 PUSH1 0xA0 SHL SUB NOT AND PUSH1 0x1 PUSH1 0x1 PUSH1 0xA0 SHL SUB DUP4 DUP2 AND SWAP2 DUP3 OR SWAP1 SWAP3 SSTORE PUSH1 0x0 DUP1 SLOAD PUSH1 0x40 MLOAD SWAP3 SWAP4 AND SWAP2 PUSH32 0xED8889F560326EB138920D842192F0EB3DD22B4F139C87A2C57538E05BAE1278 SWAP2 SWAP1 LOG3 POP JUMP JUMPDEST DUP1 CALLDATALOAD PUSH1 0x1 PUSH1 0x1 PUSH1 0xA0 SHL SUB DUP2 AND DUP2 EQ PUSH2 0x67F JUMPI PUSH1 0x0 DUP1 REVERT JUMPDEST SWAP2 SWAP1 POP JUMP JUMPDEST PUSH1 0x0 DUP1 PUSH1 0x0 DUP1 PUSH1 0x60 DUP6 DUP8 SUB SLT ISZERO PUSH2 0x69A JUMPI PUSH1 0x0 DUP1 REVERT JUMPDEST DUP5 CALLDATALOAD PUSH8 0xFFFFFFFFFFFFFFFF DUP1 DUP3 AND DUP3 EQ PUSH2 0x6B3 JUMPI PUSH1 0x0 DUP1 REVERT JUMPDEST DUP2 SWAP6 POP PUSH2 0x6C2 PUSH1 0x20 DUP9 ADD PUSH2 0x668 JUMP JUMPDEST SWAP5 POP PUSH1 0x40 DUP8 ADD CALLDATALOAD SWAP2 POP DUP1 DUP3 GT ISZERO PUSH2 0x6D8 JUMPI PUSH1 0x0 DUP1 REVERT JUMPDEST DUP2 DUP8 ADD SWAP2 POP DUP8 PUSH1 0x1F DUP4 ADD SLT PUSH2 0x6EC JUMPI PUSH1 0x0 DUP1 REVERT JUMPDEST DUP2 CALLDATALOAD DUP2 DUP2 GT ISZERO PUSH2 0x6FB JUMPI PUSH1 0x0 DUP1 REVERT JUMPDEST DUP9 PUSH1 0x20 DUP3 DUP6 ADD ADD GT ISZERO PUSH2 0x70D JUMPI PUSH1 0x0 DUP1 REVERT JUMPDEST SWAP6 SWAP9 SWAP5 SWAP8 POP POP PUSH1 0x20 ADD SWAP5 POP POP POP JUMP JUMPDEST PUSH1 0x0 PUSH1 0x20 DUP3 DUP5 SUB SLT ISZERO PUSH2 0x72E JUMPI PUSH1 0x0 DUP1 REVERT JUMPDEST PUSH2 0x737 DUP3 PUSH2 0x668 JUMP JUMPDEST SWAP4 SWAP3 POP POP POP JUMP JUMPDEST DUP2 DUP4 MSTORE DUP2 DUP2 PUSH1 0x20 DUP6 ADD CALLDATACOPY POP PUSH1 0x0 DUP3 DUP3 ADD PUSH1 0x20 SWAP1 DUP2 ADD SWAP2 SWAP1 SWAP2 MSTORE PUSH1 0x1F SWAP1 SWAP2 ADD PUSH1 0x1F NOT AND SWAP1 SWAP2 ADD ADD SWAP1 JUMP JUMPDEST PUSH1 0x20 DUP2 MSTORE PUSH1 0x0 PUSH2 0x77B PUSH1 0x20 DUP4 ADD DUP5 DUP7 PUSH2 0x73E JUMP JUMPDEST SWAP5 SWAP4 POP POP POP POP JUMP JUMPDEST PUSH1 0x0 DUP2 MLOAD DUP1 DUP5 MSTORE PUSH1 0x0 JUMPDEST DUP2 DUP2 LT ISZERO PUSH2 0x7A9 JUMPI PUSH1 0x20 DUP2 DUP6 ADD DUP2 ADD MLOAD DUP7 DUP4 ADD DUP3 ADD MSTORE ADD PUSH2 0x78D JUMP JUMPDEST POP PUSH1 0x0 PUSH1 0x20 DUP3 DUP7 ADD ADD MSTORE PUSH1 0x20 PUSH1 0x1F NOT PUSH1 0x1F DUP4 ADD AND DUP6 ADD ADD SWAP2 POP POP SWAP3 SWAP2 POP POP JUMP JUMPDEST PUSH1 0x0 PUSH1 0x40 PUSH8 0xFFFFFFFFFFFFFFFF DUP6 AND DUP4 MSTORE PUSH1 0x20 PUSH1 0x40 DUP2 DUP6 ADD MSTORE DUP5 MLOAD PUSH1 0xA0 PUSH1 0x40 DUP7 ADD MSTORE PUSH2 0x7F8 PUSH1 0xE0 DUP7 ADD DUP3 PUSH2 0x783 JUMP JUMPDEST SWAP1 POP DUP2 DUP7 ADD MLOAD PUSH1 0x3F NOT DUP1 DUP8 DUP5 SUB ADD PUSH1 0x60 DUP9 ADD MSTORE PUSH2 0x815 DUP4 DUP4 PUSH2 0x783 JUMP JUMPDEST PUSH1 0x40 DUP10 ADD MLOAD DUP9 DUP3 SUB DUP4 ADD PUSH1 0x80 DUP11 ADD MSTORE DUP1 MLOAD DUP1 DUP4 MSTORE SWAP1 DUP7 ADD SWAP5 POP PUSH1 0x0 SWAP4 POP SWAP1 DUP6 ADD SWAP1 JUMPDEST DUP1 DUP5 LT ISZERO PUSH2 0x869 JUMPI DUP5 MLOAD DUP1 MLOAD PUSH1 0x1 PUSH1 0x1 PUSH1 0xA0 SHL SUB AND DUP4 MSTORE DUP7 ADD MLOAD DUP7 DUP4 ADD MSTORE SWAP4 DUP6 ADD SWAP4 PUSH1 0x1 SWAP4 SWAP1 SWAP4 ADD SWAP3 SWAP1 DUP7 ADD SWAP1 PUSH2 0x837 JUMP JUMPDEST POP PUSH1 0x60 DUP10 ADD MLOAD PUSH1 0x1 PUSH1 0x1 PUSH1 0xA0 SHL SUB AND PUSH1 0xA0 DUP10 ADD MSTORE PUSH1 0x80 DUP10 ADD MLOAD DUP9 DUP3 SUB DUP4 ADD PUSH1 0xC0 DUP11 ADD MSTORE SWAP6 POP PUSH2 0x898 DUP2 DUP8 PUSH2 0x783 JUMP JUMPDEST SWAP11 SWAP10 POP POP POP POP POP POP POP POP POP POP JUMP JUMPDEST PUSH1 0x0 PUSH1 0x20 DUP3 DUP5 SUB SLT ISZERO PUSH2 0x8B8 JUMPI PUSH1 0x0 DUP1 REVERT JUMPDEST POP MLOAD SWAP2 SWAP1 POP JUMP JUMPDEST PUSH1 0x0 PUSH1 0x20 DUP3 DUP5 SUB SLT ISZERO PUSH2 0x8D1 JUMPI PUSH1 0x0 DUP1 REVERT JUMPDEST DUP2 MLOAD DUP1 ISZERO ISZERO DUP2 EQ PUSH2 0x737 JUMPI PUSH1 0x0 DUP1 REVERT JUMPDEST PUSH1 0x0 PUSH1 0x1 DUP1 PUSH1 0xA0 SHL SUB DUP1 DUP9 AND DUP4 MSTORE PUSH1 0x80 PUSH1 0x20 DUP5 ADD MSTORE PUSH2 0x904 PUSH1 0x80 DUP5 ADD DUP8 DUP10 PUSH2 0x73E JUMP JUMPDEST SWAP5 AND PUSH1 0x40 DUP4 ADD MSTORE POP PUSH1 0x60 ADD MSTORE SWAP4 SWAP3 POP POP POP JUMP INVALID LOG2 PUSH5 0x6970667358 0x22 SLT KECCAK256 SLT DUP14 PUSH15 0x896D8CA8D97B3D903FD71510DC2EF BYTE CALLVALUE SLOAD 0xCB PUSH24 0x10DAC9EA368F0CFFF164736F6C6343000818003300000000 "
				},
				"gasEstimates": {
					"creation": {
						"codeDepositCost": "476200",
						"executionCost": "infinite",
						"totalCost": "infinite"
					},
					"external": {
						"acceptOwnership()": "52299",
						"owner()": "2323",
						"sendMessage(uint64,address,string)": "infinite",
						"transferOwnership(address)": "30480"
					}
				},
				"methodIdentifiers": {
					"acceptOwnership()": "79ba5097",
					"owner()": "8da5cb5b",
					"sendMessage(uint64,address,string)": "0eb5ad45",
					"transferOwnership(address)": "f2fde38b"
				}
			},
			"storageLayout": {
				"storage": [
					{
						"astId": 324,
						"contract": ".deps/npm/Sender.sol:Sender",
						"label": "s_owner",
						"offset": 0,
						"slot": "0",
						"type": "t_address"
					},
					{
						"astId": 326,
						"contract": ".deps/npm/Sender.sol:Sender",
						"label": "s_pendingOwner",
						"offset": 0,
						"slot": "1",
						"type": "t_address"
					},
					{
						"astId": 35,
						"contract": ".deps/npm/Sender.sol:Sender",
						"label": "s_router",
						"offset": 0,
						"slot": "2",
						"type": "t_contract(IRouterClient)214"
					},
					{
						"astId": 38,
						"contract": ".deps/npm/Sender.sol:Sender",
						"label": "s_linkToken",
						"offset": 0,
						"slot": "3",
						"type": "t_contract(LinkTokenInterface)605"
					}
				],
				"types": {
					"t_address": {
						"encoding": "inplace",
						"label": "address",
						"numberOfBytes": "20"
					},
					"t_contract(IRouterClient)214": {
						"encoding": "inplace",
						"label": "contract IRouterClient",
						"numberOfBytes": "20"
					},
					"t_contract(LinkTokenInterface)605": {
						"encoding": "inplace",
						"label": "contract LinkTokenInterface",
						"numberOfBytes": "20"
					}
				}
			},
			"userdoc": {
				"kind": "user",
				"methods": {
					"acceptOwnership()": {
						"notice": "Allows an ownership transfer to be completed by the recipient."
					},
					"constructor": {
						"notice": "Constructor initializes the contract with the router address."
					},
					"owner()": {
						"notice": "Get the current owner"
					},
					"sendMessage(uint64,address,string)": {
						"notice": "Sends data to receiver on the destination chain."
					},
					"transferOwnership(address)": {
						"notice": "Allows an owner to begin transferring ownership to a new address."
					}
				},
				"version": 1
			}
		}
	}
}